:020000040000fa
:080000000002040000000000f2
:020000040000fa
:1000080028030000a43b0000d03b0000f63b0000a2
:100018001c3c0000423c00002803000028030000ac
:10002800280300002803000028030000c638000049
:10003800282c0000280300002803000028030000e3
:100048002803000028030000280300009c29000062
:100058005829000028030000280300002803000096
:1000680028030000d425000028030000280300000e
:1000780028030000280300002803000028030000cc
:100088002803000028030000280300001e32000097
:10009800f038000028030000182b0000c22a0000d6
:1000a80028030000f8330000280300000a3100008c
:1000b800280300002803000028030000280300008c
:1000c800280300002803000028030000280300007c
:1000d8002803000028030000280300000e39000050
:1000e8004c39000028030000921f0000280300007c
:1000f80028030000bc370000280300002803000084
:100108009e30000028030000280300002803000098
:10011800280300002803000028030000280300002b
:10012800280300002803000028030000280300001b
:10013800280300002803000028030000280300000b
:1001480028030000280300002803000028030000fb
:1001580028030000280300002803000028030000eb
:1001680028030000280300002803000028030000db
:1001780028030000280300002803000028030000cb
:1001880028030000280300002803000028030000bb
:1001980028030000280300002803000028030000ab
:1001a800280300002803000028030000280300009b
:1001b800280300002803000028030000280300008b
:1001c800280300002803000028030000280300007b
:1001d800280300002803000028030000280300006b
:1001e800280300002803000028030000280300005b
:0801f8002803000028030000a9
:020000040000fa
:1002080028030000a43b0000d03b0000f63b0000a0
:100218001c3c0000423c00002803000028030000aa
:10022800280300002803000028030000c638000047
:10023800282c0000280300002803000028030000e1
:100248002803000028030000280300009c29000060
:100258005829000028030000280300002803000094
:1002680028030000d425000028030000280300000c
:1002780028030000280300002803000028030000ca
:100288002803000028030000280300001e32000095
:10029800f038000028030000182b0000c22a0000d4
:1002a80028030000f8330000280300000a3100008a
:1002b800280300002803000028030000280300008a
:1002c800280300002803000028030000280300007a
:1002d8002803000028030000280300000e3900004e
:1002e8004c39000028030000921f0000280300007a
:1002f80028030000bc370000280300002803000082
:100308009e30000028030000280300002803000096
:100318002803000028030000280300002803000029
:100328002803000028030000280300002803000019
:100338002803000028030000280300002803000009
:1003480028030000280300002803000028030000f9
:1003580028030000280300002803000028030000e9
:1003680028030000280300002803000028030000d9
:1003780028030000280300002803000028030000c9
:1003880028030000280300002803000028030000b9
:1003980028030000280300002803000028030000a9
:1003a8002803000028030000280300002803000099
:1003b8002803000028030000280300002803000089
:1003c8002803000028030000280300002803000079
:1003d8002803000028030000280300002803000069
:1003e8002803000028030000280300002803000059
:0803f8002803000028030000a7
:020000040000fa
:100400002fb720000efb27000e018800000000001f
:100410000c000700004f230001002000110007001e
:10042000000020000000e000020032000000020096
:10043000000000007c220200000000000040da0002
:100440000000fe004440a900800320000000e000fe
:100450000300320000002000a00188004440a800f2
:100460000000060091018800800078000000eb0089
:1004700015003700e280400032a0b4009101ba00bc
:10048000e280400032a0b4009102ba00e280400055
:1004900032a0b4000002eb00472bde00f507b200eb
:1004a000602ce10004003a000059eb008301e900f0
:1004b000fdff3e00040037006128e100010032002a
:1004c0000082eb00040007001101ba000200e00006
:1004d000e8ff3a00000006003159ba008301e90044
:1004e0000c0032002159ba008301e90008003200f3
:1004f0000400e00003003a00e280400032a0b400b3
:10050000f5ff370011d9ba008301e900faff3a007c
:100510008100e800e180400032a0b4000000060045
:10052000423b040000000000be2504000000000063
:100530004c28040000000000f62604000000000023
:1005400006270400000000001c2704000000000033
:10055000c827040000000000662704000000000017
:10056000a427040000000000b027040000000000e1
:10057000d827040000000000ec2704000000000061
:1005800012280400000000004028040000000000c1
:1005900006280400000000005228040000000000ab
:1005a00040220400000000007c1f04000000000046
:1005b000c420040000000000b0210400000000007e
:1005c000e020040000000000f6200400000000000d
:1005d000a0210400000000004021040000000000f1
:1005e0007c210400000000008821040000000000bd
:1005f000e0210400000000000622040000000000ca
:100600003422040000000000fa2104000000000071
:100610004622040000000000de3a04000000000052
:100620007237040000000000ba330400000000002c
:1006300020230400000000009004040000000000db
:10064000a4100400000000000000040000000000ee
:100650000040da000000fe001200fa006007980077
:1006600071079800020f98000022200010079800e0
:1006700020222000200798006022200030079800e8
:1006800080222000400798006e009000600040002b
:10069000e20f500042003e0060538000e20f500025
:1006a00008003a00002320001007980020232000b3
:1006b0002007980060232000300798008023200046
:1006c000400798001e00900090007800000028006d
:1006d00000806000e00f500008003a004e009000db
:1006e0008000eb00010878001e00900010017800e7
:1006f0000100280081007100010878000e089000b8
:10070000000f78001c003700000a200050079800f6
:10071000030037005e0090000000e90050079800d9
:100720002e0090001000780061006000e00f500083
:1007300003003a005e009000e00f5000f5ff3a0021
:100740002e0090001000780061006000e00f500063
:100750000d003200fe0090003e0090001000780076
:1007600000407800804878007e0090000000e8009b
:10077000700798001e0fe9001e007800e00f50007f
:10078000e1ff3a0001003700000000001e00780081
:100790008e08900000805000000f98000100370084
:1007a000000000000e0890000080fa000000060023
:1007b0001000fa005007980061079800720798002f
:1007c0000022200010079800202220002007980017
:1007d0004022200030079800802220004007980027
:1007e0005e009000cf80de00420020000300200069
:1007f000820f5000838f580012003e0000600100fd
:100800000400370003003700020037000f003700f4
:100810000e00370060538000e20f50000d003a00d8
:1008200000232000100798002023200020079800b4
:1008300040232000300798008023200040079800c4
:10084000050037000000eb00330037000000000017
:1008500001003700000000001e00900090007800aa
:100860000000280000806000e00f500008003a00ff
:100870004e0090008000eb00010878001e00900000
:100880001001780001002800810071000108780043
:100890002e00900090007800004020000080600052
:1008a000e00f500005003a002e0090001001780083
:1008b0000140200081007100010878007e00900056
:1008c000000f780010003700000000002e0090009c
:1008d000900078000010200000806000e00f5000c1
:1008e000faff32006e009000104078008000fb009c
:1008f0003e009000010878006e0090000000e800c3
:10090000600798001e0fe9001e007800e00f5000fd
:10091000edff3a007e0090000080fa000000060023
:10092000889fbe00000478000100780082047800ef
:10093000880178000901780011002000f902070001
:10094000890f5000010032000004eb00080078001d
:100950004f04be00000006000000fa00e8815700c6
:100960004fb99700018320000049200002000700d2
:100970000080fa00000006004f06b000889fbe000d
:100980008a9fbe008c9fbe008e1f78008005780075
:1009900001057800820478008300780000f92f00b8
:1009a0000f0040009505070028f92f000f044400b0
:1009b0004b0498005a0498000000eb00600c98006b
:1009c0002e9e20006d9d2000fcff2700194078001e
:1009d0008085fb000b05fb008b05ea00cf5dde0088
:1009e00050022000800f55000d003200e18f5500ad
:1009f0000b003a00c80190000b01780089007800d4
:100a0000580090000300010050049800e00f5000cf
:100a10008b003200680890000000e800600c98002d
:100a20008b84440050022000800f550004003200e7
:100a3000e00f5500e5ff3a007f90970081003700f6
:100a40000000eb00400c9800300c9800200c98003f
:100a5000100c9800000c9800700498000014980086
:100a6000070037000e005000000040006d007800c5
:100a70008810900001007000001498008904e800bc
:100a8000194578008a00fb00209e2000090307001a
:100a9000e00f5000f3ff3a00a1c2b300814f5500b0
:100aa0000e003a008f8897000180e900808f9f0038
:100ab00010007800700c9800e00f500005003d0019
:100ac0000000ea00700c9800081090000020a000c0
:100ad000001498008904e8000f003700700c98009b
:100ae00008003700780890008c0f50000400320096
:100af0006a00b9000003b10002004000700c9800c9
:100b00008904e8001901fb0000fd2f0002004000ed
:100b1000e90f5000f3ff3600e0c2b300994f100018
:100b2000030032000080eb00500c98001a003700e0
:100b3000a0c2b300d94f100007003a008f88970079
:100b40000180e900808f9f0010007800500c980011
:100b50008904e800100037000000eb00500c9800fa
:100b600008003700580890008c0f50000400320035
:100b70006a00b9000003b10002004000500c980068
:100b80008904e8001901fb0000fd2f00020040006d
:100b9000e90f5000f3ff3600194578008a00fb008a
:100ba000e09c2000c3020700e00f5000020032006a
:100bb0008904e80001003700004578002a649800a5
:100bc00080c6b300804f550004003a00994f1500cd
:100bd0000a003a006640500006003700c0c6b30065
:100be000804f550005003a00994f150003003a0068
:100bf00065404000206498008904e8001901fb006a
:100c000063fb2f008f81410001f92f008f8040008e
:100c10000800780011000700e00f500008003a00bb
:100c200061fb2f008f804000080078003704070028
:100c3000e00f5000020035008904e80063ff370030
:100c40000080eb004f0778004f06be004f05be0046
:100c50004f04be004f06b10000000600881f780058
:100c60000102780082407800e2c6b30082cf5000d3
:100c7000c200320010003c006b41510082cf500096
:100c80001800320005003c0052c2b30082cf500071
:100c9000ff00320082c5b3000f00370042c6b30028
:100ca00082cf5000170032006541410082cf5000d2
:100cb000fa003a001300370002c7b30082cf500099
:100cc000e50032005c0035006541410082cf5000f4
:100cd000590032006341410082cf5000ef003a00da
:100ce000550037001481e900020a7800f0009000f6
:100cf0001241780082f178008100e80071009800cc
:100d0000ee00370020619000c5c6b300854f51004a
:100d100009003a009402780064815200020a7800c7
:100d20001202be00120190004f91de000203780013
:100d3000820378001200370015c7b300854f5100b9
:100d400003003200a5c6b300854f510006003a00eb
:100d50009402780068815200020a78003202be00d4
:100d60002203be00060037001481e900020a780061
:100d700012027800cfa2de00050378008603780017
:100d80000498be000690be002061900088c6b300a3
:100d9000884f51000e00320028c6b300884f510022
:100da00005003a000402fb00cfa2de000503780034
:100db000860378000900370048c7b300884f510008
:100dc0000300320066444400884f510005003a0099
:100dd000cfa2de0005037800860378000498be00e9
:100de0000690be003002be002003be0070019000dd
:100df000e00f5200e08f5a00e00f5b00e08f5b00d5
:100e000002003d00d4c2b300080037000012900079
:100e1000e202620002003200b4c2b30003003700f5
:100e2000610262005100320004c2b3008471790093
:100e30000201e8004c00370020619000c5c6b300f5
:100e4000854f510007003a009402780064815200f7
:100e5000020a78001202be000003eb00860378004d
:100e60001200370015c7b300854f51000300320050
:100e7000a5c6b300854f510006003a0094027800e1
:100e800068815200020a78003202be002203be00ce
:100e9000060037001481e900020a78001202780087
:100ea0000500200006002000070020000498be0076
:100eb0000690be002061900088c6b300884f5100a4
:100ec0000e00320028c6b300884f510005003a00da
:100ed0000482fb000500200006002000070020001f
:100ee0000900370048c7b300884f510003003200a3
:100ef00066444400884f510005003a000500200078
:100f000006002000070020000498be000690be00e6
:100f10000011900068016100140032003002be0030
:100f20002003be00e00f5200e08f5a00e00f5b008c
:100f3000e08f5b000d00320082c7b30082cf50000b
:100f40000300320082c5b30082cf500007003a0090
:100f50007002900002c3b30082717a000401e800bd
:100f6000817179000481e80072009800700190009e
:100f7000828141006300980043003700a060900028
:100f8000c3c6b3001481e90083cf500026003200ad
:100f90000a003c00e4c1510083cf50001f00320022
:100fa00083c1e80083cf500013003200e8c1510034
:100fb00083cf500022003a000a00370043c7b30035
:100fc00083cf500015003200e6c1410083cf5000ae
:100fd00012003200e9c1510083cf500018003a00de
:100fe00005003700020a780092007800405890000f
:100ff0008048780031003700020a78001202780039
:1010000060089000cf80de00010178008201780046
:10101000009abe000292be0028003700020a780043
:101020009200780009003700020a78001201780067
:1010300060089000cf80de000089be001f003700ee
:101040009480e900010a780091007800600890001f
:1010500080087800190037009480e900010a7800c0
:1010600011027800cfa2de00050378008603780025
:101070000498be000690be00f000900081814100ff
:101080006300980081c7b300da0107000b00370046
:1010900070019000817179000600370070019000a6
:1010a00082814100e0cf500001003a0051c2b300fc
:1010b000814978000201e800720098000000eb000e
:1010c0004f047800000006000000df00000006006a
:1010d0000080cf00000006009820a90061e2a9006e
:1010e0008820a900000006008820a9006701600090
:1010f0004411dd00a3058000f1f82f00818061001c
:1011000082807000a1058800680060004300de0056
:101110006100600080004000c00480000010a10059
:1011200001007000c0048800000006001013880051
:10113000211388000213880000000600889fbe006b
:101140008a9fbe003004be002005be000404440097
:1011500085844c0006054d0087854d000898be002b
:101160000a90be000440e10005c8e10006d0e1009d
:1011700007d8e10002003100680040001008e800d4
:101180004f05be004f04be0000000600889fbe0051
:101190008a9fbe008c1f7800000678003c04be00c9
:1011a0002c05be000400540085805c0006015d0033
:1011b00087815d00009ebe00029ebe0010002000e0
:1011c0000440e10005c8e10006d0e10007d8e100d5
:1011d000010039000000eb001c0e10004f067800e3
:1011e0004f05be004f04be00000006001200fa00ca
:1011f000889fbe008a9fbe008c9fbe000205be0075
:101200000004be00e4b79f00f5b79f0086bf9f00b3
:1012100097bf9f000000eb00d0b79f00c0b79f00b2
:10122000b0b79f00a0b79f0090b79f00000678005e
:10123000fd032000dfb197004fb09700038141000c
:10124000bfb09700e08f510004003d002900070067
:101250007e805700b9ff0700030037002500070014
:101260007e805700c9ff0700dfb09700e08f500075
:101270000700350014002000050020006033b8008e
:1012800008047200898472000a0573008b8573005c
:101290000c06e8008d0f5600e6ff3400e08f50008a
:1012a00006003d006fb29700ffb297000fbb97009a
:1012b0009fbb97007e805700a0ff07005fa89700a4
:1012c000e00f500004003a001fb49700afb497003d
:1012d0003fb59700cfb597000800be000a01be00d9
:1012e0004f06be004f05be004f04be000080fa004e
:1012f00000000600cf01de0002817100b2b79f003e
:101300004f09de000000400000007100a0b79f0000
:101310000fb097004f01de00818040008100710016
:1013200091b79f007faa9700cf20de000000400009
:101330000080700080b79f000800be000a01be0058
:101340004f18de000402420000027200f4af9f005a
:101350000804440089844c000a054d008b854d002b
:101360004fb29700dfb297006fb39700ffb39700bb
:1013700000000600881f780018002000881f7800f1
:101380009aff07008f87e9004f04780000000600ed
:10139000801feb0095ff07008f87e9000000060023
:1013a000889fbe008a9fbe008c1f7800e00f50000f
:1013b000e08f5800e00f5900e08f59000f003d000a
:1013c0006044b8006055b8000000540081805c00a3
:1013d00002015d0083815d001c0020000820e10007
:1013e00009a8e1000ab0e1000bb8e1000d003d00e2
:1013f000190007000006eb000a0037000006eb00aa
:10140000e00f5200e08f5a00e00f5b00e08f5b00be
:1014100004003d006044b8006055b8000e000700ad
:101420001c002000d3ff0700e00f5600060032002a
:101430006022b8006033b8000000520081805a007a
:1014400002015b0083815b004f0678004f05be0000
:101450004f04be00000006000402540085825c00b8
:1014600006035d0087835d0000000600889fbe00c4
:101470008a9fbe008c1f7800e00f5000e08f58005c
:10148000e00f5900e08f59000d003d006044b800a6
:101490006055b8000000540081805c0002015d00ce
:1014a00083815d001c0020000820e10009a8e10004
:1014b0000ab0e1000bb8e1000d003d000800370064
:1014c0000006eb00e00f5200e08f5a00e00f5b00d7
:1014d000e08f5b0006003d006044b8006055b80036
:1014e0000402540085825c0006035d0087835d0072
:1014f000a7ff0700e00f5600060032006022b80088
:101500006033b8000000520081805a0002015b0085
:1015100083815b004f0678004f05be004f04be007c
:1015200000000600889fbe008a9fbe008c9fbe0000
:101530008e1f780081067800030478000d95b900ad
:101540000a077800e00f550043003200e08f560094
:101550004200320000067800c80090006800900049
:10156000808f500004003900080078005a000700fe
:10157000e00f500026003500004020009805600074
:101580000a0032000a017800a10020000c00780057
:101590003800070080057800e08f55000300320016
:1015a000e104160089844500010037008a047800b0
:1015b00048009000e800900080805000898f500023
:1015c00002003100810478008005eb0009017800f9
:1015d0008c00780030000700090555004800900095
:1015e0000900400040049800e08f550004003200dc
:1015f00008007800e0020700e00f500004003a0005
:10160000e00f55000200320009064600d2ff370005
:1016100000802000180060000200320008007800fe
:10162000d502070000c02000180060000200320050
:1016300048009000600498000a05570000017800f7
:10164000811f7800110009000d85d8000001fd0000
:10165000cf007800010037000a017800020078000e
:101660004f0778004f06be004f05be004f04be0076
:10167000000006000400370090cf10000500320083
:101680000000e8000201e900e00f5100faff3a0013
:101690000200780000000600800178000200370098
:1016a000b15978000201e900e00f5100fcff3a0057
:1016b0000000060003003700e04f51000500320033
:1016c0000000e80010417800814f5100faff3a0015
:1016d0000000060000000500889fbe008a1f7800f9
:1016e00000047800c8009000680190000000eb0042
:1016f000828f50003c003900180078002200290039
:1017000002016000e20f51000700320001202400b6
:10171000e00f500001003d0001202000008c70000f
:101720000080eb003000370002002600020060005d
:10173000820f500009003a0038009000808f50005e
:1017400006003900080078008b020700800078004e
:101750000080eb00e08f500023003a00180578006d
:1017600000c020000000650018003a00a8049000a6
:101770006002200008004000808f540013003a00ef
:10178000002020002d03070020049800e00f5000e7
:1017900005003a0029049800490498008904e800eb
:1017a00039049800080037000a60a0000a0c78008d
:1017b00040049800012020008080400031049800ff
:1017c000400c9800500c980011020700280090006f
:1017d0005004980038009000600498000000260033
:1017e000180c70000000eb004f0578004f04be009d
:1017f000000006004f02b000889fbe008a9fbe0016
:101800008c9fbe008e1f78000006780080c5b30054
:1018100080cf50000a0032007740400080cf500057
:101820000a0032006940400080cf50000b003200b7
:101830005098200080bf9f00ae0020000a003700b3
:101840004297200082bf9f00060037005398200077
:1018500083bf9f008e0020000300370054982000b3
:1018600084bf9f000e0120003c02be002c03be007e
:101870000605be000404be0040c6b30080cf500081
:10188000030032006540400080cf50000b003a005a
:10189000e00f5200e08f5a00e00f5b00e08f5b002a
:1018a00006003d006044b8006055b80004045400d0
:1018b00085845c0006055d0087855d00e80f5700a4
:1018c00003003200f00f57003a003a0002003700e0
:1018d000300020000100370040002000e00f5400dd
:1018e000e08f5c00e00f5d00e08f5d0004003a00d7
:1018f000dc0890008d012000e08f500006003200cf
:101900008e00e900888060008fba9700e5c07800fb
:10191000f1e79f007d012000800078008100e90050
:10192000050033008b05d1000a85d3008984d300dc
:101930000884d300f9ff3700089ebe000a96be0057
:101940008e00e900110037008d06e9000481600077
:101950008fb997006344790003fd2f008f81410008
:1019600088f17e00000178000201e90005003300e3
:101970008783d1000683d3008582d3000482d300fd
:10198000f9ff3700049ebe000696be003c02be0072
:101990002c03be00e00f5200e08f5a00e00f5b0006
:1019a000e08f5b00a1003400e08f5600e6ff3c00b2
:1019b0009e003700ac60900080c6b30080cf50001e
:1019c0000b00320006003c00e0cf5000080032005f
:1019d0006640500080cf500058003a0004003700a5
:1019e000c0c6b30080cf500054003a002a00370030
:1019f000e00f540004003a005c0890008d012000c4
:101a0000e00f500007003200110009000e84d800da
:101a10008000fd008fb9970063407800f0e79f00d9
:101a20007d01200000027800811f7800110009006c
:101a30000e84d8000002fd00cf0078000c003700b3
:101a4000110009000e02d800000178008d06e9009f
:101a50000e90b900000052000fba9700e4427800df
:101a600004fd2f000f02420005f27e000202780002
:101a7000e00f520002003200e08f5600f0ff3c0001
:101a8000cfa2de000503780086037800049ebe0026
:101a90000696be0065003700e00f5400e08f5c0042
:101aa00004003a005c0890008d012000e00f500017
:101ab000070032006171b9000800be00ea020700a9
:101ac0000fb9970062417800f2e79f007d01200086
:101ad0006175b9000a01be000800be00d20207000d
:101ae0000b0037000a01be000800be00bf0207005d
:101af0008d06e90000f1b900020154008fb997008a
:101b00006342790003fd2f008f81410084f17e0044
:101b10000004be00e00f5000e08f580002003200c9
:101b2000e08f5600efff3c00088ebe004fc8de007d
:101b300020069800300698003c003700e00f540063
:101b4000e08f5c00e00f5d00e08f5d0004003a0074
:101b50005c0890008d012000e00f50000b00320067
:101b60000e027800cfa2de0005037800860378001d
:101b70000800be000a01be0005fe07008fba9700ec
:101b8000e5427800f5e79f007d0120000e00780017
:101b9000cf80de000101780082017800c0b79f008d
:101ba000d1b79f00e2b79f00f3b79f000203be00ca
:101bb0000002be000800be000a01be00edfd0700e5
:101bc0000f0037004fb29700dfb297006fb3970056
:101bd000ffb397000800be000a01be00f0fd070039
:101be0008d06e90000f2b900040454000fba970012
:101bf000e4427c0004fd2f000f02420005f27e004b
:101c0000009ebe000296be003c04be002c05be0035
:101c1000e00f5400e08f5c00e00f5d00e08f5d009e
:101c200002003400e08f5600e6ff3c00e80f57004a
:101c300010003a000c109000680060000d003200a7
:101c4000f78f560006003e0008fd2f000f044400e9
:101c5000e8c07e0000c3b30080cf50000500320012
:101c60008d06e90002c3b30001fd2f008f80400004
:101c700082f07e0078811600120e98006c009000b1
:101c800003fd2f008f8141008d80410082fe0700ff
:101c90001c089000dc089000810f500006003d00f9
:101ca00000805000000e98000c1090000040a10031
:101cb000001698000f003700e08f50000d003d0027
:101cc0008c109000f4806000f08f500009003a0002
:101cd0007c099000fc009000810051000c099000ec
:101ce00082805000008050004240a9000100340072
:101cf000000e98004f0778004f06be004f05be004b
:101d00004f04be004f02b100000006000400fa00bc
:101d1000889fbe008a9fbe008c1f78000004780058
:101d200001067800f80d900078009000808555003d
:101d3000080890008085550018089000808555009f
:101d4000a80c900089855500b80c90008985550035
:101d5000c80c9000898555000002220090bf9f00aa
:101d600000032300a0bf9f000810900064006000e3
:101d700015003a00e08f5500130034000b05780081
:101d80008a047800e20f5500010036002900200087
:101d9000c801900009017800ee80570058009000bb
:101da0000300010050049800e00f50008c00320046
:101db0006808900009004000600c98000905550073
:101dc0004240a900eeff3c0078019000e00f510076
:101dd0000c003400c80190008c007800580090007e
:101de00003000100500498008080eb00e00f5000d9
:101df0007c003200e80890007800900000804000ed
:101e0000600c9800880c9000e08f540011003400a2
:101e100009057800e28f5400010036002a002000f6
:101e2000c80190000a017800ec805700580090002b
:101e30000300010050049800e00f500068003200d9
:101e4000680890000a004000600c98008a845400e2
:101e5000edff370018099000e00f51000c0034002e
:101e6000c8019000e80090005800900003000100b5
:101e7000500498008080eb00e00f500059003200c1
:101e8000e80890001808900000804000600c98005e
:101e9000a80c9000e08f5400110034000905780070
:101ea000e28f5400010036002a002000c801900093
:101eb0000a017800ec8057005800900003000100f0
:101ec00050049800e00f5000450032006808900070
:101ed0000a004000600c98008a845400edff37002f
:101ee00038099000e00f51000e003400e800900027
:101ef0001808900080804000c801900058009000b1
:101f000003000100500498008080eb00e00f5000b7
:101f100034003200e808900038089000008040004b
:101f2000600c9800c80c9000e08f54001100340041
:101f300009057800e28f5400010036002a002000d5
:101f4000c80190000a017800ec805700580090000a
:101f50000300010050049800e00f50002000320000
:101f6000680890000a004000600c98008a845400c1
:101f7000edff370088109000e48060001900320007
:101f80008000eb00818f5500160034008b04780030
:101f900009057800e28f5400010036002a00200075
:101fa000c80190000a017800ee80570058009000a8
:101fb0000300010050049800e00f500008003200b8
:101fc000680890000a004000600c98008a84540061
:101fd0004240a900eeff3c008000eb00010037000a
:101fe0008080eb00010078004f0678004f05be00ae
:101ff0004f04be000080fa000000060001087800cf
:1020000000000600400a21009a00070000000600b8
:10201000881f7800e8a620000040eb00984f1000d1
:1020200003003a00f7ff070020c0b300004c78001f
:102030004f04780000000600889fbe00000478006e
:10204000080078004c00070080047800000420009d
:102050001800600002003200280090009300070082
:102060000000eb002004980038409000e04f500042
:10207000050035000000fb0026010700e00f5000be
:10208000010032008084eb0018109000e00f500037
:10209000080032002a010700e00f50000100320062
:1020a0008084eb0018109000800007000000eb0017
:1020b0001014980000082000180060001100320081
:1020c0006011b800048820000200410083804900ac
:1020d00000004200900f140002003a000008eb00dc
:1020e0000500370061014100e0814900e70f510020
:1020f000e08f5900f4ff3600080078006b000700fd
:102100000e003700000c780000c0eb00304498004f
:10211000610220008880400021049800410498005a
:1021200051049800410c980061049800510c9800eb
:102130007104980076004400000c980009007800b3
:102140004f04be0000000600889fbe0078002000fb
:10215000098820000800d00069007800e00f5000d6
:1021600001003200b4ff07000804e900f9ff3b005a
:102170004f04be0000000600889fbe008a1f780042
:1021800000047800e00f54000e003a008804780044
:102190000a8820000900d0006a007800e00f500093
:1021a00004003200f4ff0700e00f500001003d0082
:1021b0000084eb008904e800e78f5400f5ff340049
:1021c00028003700000022001800600024003200c0
:1021d000a80490000f00370009015100384090001a
:1021e0000000fb008900780071f90700e00f500043
:1021f00007003c002800900040049800600498000c
:10220000500c98001890a0000084eb0015003700d7
:102210008084440048019000828f5400eeff390012
:1022200028009000400498009800780002c0200028
:102230000281600001003a00380090000200240092
:102240008280600003003200600498000004eb000c
:1022500004003700500c980001047800010037009a
:1022600000047800080078004f0578004f04be0095
:102270000000060001002000e08f50000a0032003c
:1022800002008000e00f5100070032000201e90067
:102290000200880003002000020141008381490000
:1022a000010080008030790000000600e00f50003f
:1022b0002f003200c0017800e38f51002c0036005f
:1022c000e18061002a003a00a1528000e08f5000b6
:1022d00002003200810f500004003100110098000c
:1022e000a05288001600370082007800110190008b
:1022f000e00f510002003200800f5100faff390058
:102300001102780084824000850f500018003900c7
:10231000808f520003003a008308420001007800d9
:1023200007003700e00f5100030032008301400036
:10233000830f51000e0039001200980090009800a1
:1023400090009000e08f5000090032001001400022
:10235000828f500006003a0022a520000009eb0001
:1023600010017800110841009100900011009800c0
:1023700000000600889fbe00000478009152800093
:10238000e08f500002003200010078000d0037009d
:10239000a152800040a5200004003700910f540096
:1023a000240036000180e80091009000e08f50008a
:1023b000faff3a0010003700920f54001d0036005b
:1023c0000280e80010017800e00f5100faff3a00a7
:1023d00011017800a152800040a5200004003700c0
:1023e000910f5400130036000180e8009100900026
:1023f000828f5000faff3a00b9528000888f540053
:1024000001003100880478000900780035000700d9
:10241000e00f500004003a00888f5400050032009d
:102420008904d100f5ff3700091878009fff0700e5
:10243000d2ff37004f04be0000000600881f78005e
:1024400080007800638440000800a1000000eb00d9
:10245000810f540021003600e30f540001003e00bc
:102460004800200008007800c2ff0700e00f50007d
:102470001a003200900078009101780064815100c8
:10248000880f51000300310011019000020878000c
:102490000700370008814000020878009101900091
:1024a00013019800100178001109140088087800c1
:1024b00010007800e00f500006003200100190007c
:1024c000e00f5100020032000080e80001003700f8
:1024d00002007800905288000180e8004f047800e4
:1024e00000000600800078000000eb00808f5000a4
:1024f00005003400010078001a000700e10f4000d9
:1025000001003a000000eb000000060000c0da0005
:10251000000006000a00fa0011002000b1bf9f0071
:10252000c0bf9f006a805700f8ff07004fb89700b0
:102530000080fa000000060000c0da00000006007b
:102540000a00fa0051002000b1bf9f00c0bf9f00e9
:102550006a805700f8ff07005fb897000080fa0014
:1025600000000600889fbe00800478008053800031
:10257000e00f500004003a000e0007000084eb005a
:10258000e00f50000800350088538000e08f5400b1
:10259000050032000900440006000700e00f50006b
:1025a00001003d000084eb00080078004f04be00ed
:1025b00000000600e00f500004003a0021a72000b0
:1025c0008153880080007800060037008080eb008f
:1025d00022b72000820f500002003e008053880086
:1025e0008000eb000100780000000600839f680077
:1025f0000100e00002003d0060001000e0801800d3
:102600000300e00002003d0060011100e0811900bc
:10261000050007004f00e00002003b0060001000d2
:10262000e0801800000006006022b80006022000ca
:102630000000d0008180d2000482d2008582d200c6
:102640000000a0000202520083825a000300310001
:102650000202420083824a000000a1000603e90052
:10266000f3ff3a0000000600efff07000400be0081
:042670000000060060
:020000040000fa
:1026740025300000367500002061000078790000e4
:102684007a20000025300000366900002025000073
:102694003036000069200000253000003669000053
:1026a40020670000787900007a20000025300000bf
:1026b4003669000020250000303600006920000043
:1026c4002530000036690000207400002025000039
:1026d400750d00000a000000010200000304000060
:020000040000fa
:1026e4000400fa00000f7800214798001e007800cb
:1026f400cf80de008202200003002000820f500001
:10270400838f5800e8013e00006001002800370074
:10271400320037003c003700460037004f003700d6
:1027240058003700620037006c003700760037002d
:10273400800037008a003700940037009e0037007d
:10274400a8003700b2003700bc003700c6003700cd
:10275400cf003700d9003700e3003700ec00370022
:10276400f6003700000137000a0137001401370072
:102774001e01370028013700320137003c013700c1
:1027840046013700500137005a0137006401370011
:102794006e01370078013700820137008c01370061
:1027a400960137009f013700a9013700b3013700b4
:1027b4002e409000614060000080fb0061006000da
:1027c4004800dd0092168000f1ef2f0081006100c7
:1027d4000080700090168800b30137002e409000ee
:1027e400614060000080fb00610060004a00dd0081
:1027f40092168000f1bf2f008100610000807000fc
:1028040090168800a80137002e40900061406000b7
:102814000080fb00610060004d00dd009216800026
:10282400f1ff2d0081006100008070009016880087
:102834009d0137002e409000614060000080fb0045
:102844004f00dd0092168000f1ff27008100610037
:102854000080700090168800930137002e4090008d
:10286400614060000080fb006100600092168000ff
:10287400e1ff2f0081006100008070009016880045
:10288400890137002e409000614060000080fb0009
:10289400610060000000400092168000d1ff2f000c
:1028a4008100610000807000901688007e0137006e
:1028b4002e409000614060000080fb0061006000d9
:1028c4004300dd009216800071ff2f00810061003b
:1028d4000080700090168800730137002e4090002d
:1028e400614060000080fb00610060004500dd0085
:1028f40092168000f1fd2f008100610000807000bd
:1029040090168800680137002e40900061406000f6
:102914000080fb00610060004700dd00921680002b
:10292400f1f72f008100610000807000901688008c
:102934005d0137002e409000614060000080fb0084
:10294400610060004d00dd00f2168000f1ff2d00f3
:102954008100610000807000f01688005201370089
:102964002e409000614060000080fb006100600028
:102974004500dd00f2168000f1fd2f0081006100aa
:1029840000807000f0168800470137002e40900048
:10299400614060000080fb00610060004300dd00d6
:1029a4000216800071ff2f0081006100008070001a
:1029b400001688003c0137002e4090006140600002
:1029c4000080fb00610060004c00dd000216800006
:1029d400f1ff2e0081006100008070000016880065
:1029e400310137002e409000614060000080fb0000
:1029f400610060004200dd0032168000b1ff2f004c
:102a040081006100008070003016880026013700c4
:102a14002e409000614060000080fb006100600077
:102a24004800dd00f2168000f1ef2f008100610004
:102a340000807000f01688001b0137002e409000c3
:102a4400614060000080fb00610060004600dd0022
:102a5400f2168000f1fb2f008100610000807000fd
:102a6400f0168800100137002e409000614060008d
:102a74000080fb004f00dd0032168000f1ff2700cc
:102a84008100610000807000301688000601370064
:102a94002e409000614060000080fb0061006000f7
:102aa4004200dd0062168000b1ff2f00810061004a
:102ab4000080700060168800fb0037002e409000f4
:102ac400614060000080fb00610060004500dd00a3
:102ad40002168000f1fd2f0081006100008070006b
:102ae40000168800f00037002e409000614060001e
:102af4000080fb0061006000c2168000e1ff2f002f
:102b04008100610000807000c0168800e600370074
:102b14002e409000614060000080fb006100600076
:102b240000004000f2168000d1ff2f0081006100f8
:102b340000807000f0168800db0037002e40900003
:102b4400614060000080fb00610060004300dd0024
:102b5400f216800071ff2f00810061000080700078
:102b6400f0168800d00037002e40900061406000cd
:102b74000080fb00610060004900dd0092168000c7
:102b8400f1df2f0081006100008070009016880042
:102b9400c50037002e409000614060000080fb00bb
:102ba400610060004b00dd0092168000f17f2f0071
:102bb400810061000080700090168800ba00370020
:102bc4002e409000614060000080fb0061006000c6
:102bd4004c00dd0092168000f1ff2e0081006100a0
:102be4000080700090168800af0037002e409000df
:102bf400614060000080fb00610060004e00dd0069
:102c040092168000f1ff2b008100610000807000ab
:102c140090168800a40037002e40900061406000a8
:102c24000080fb00610060004200dd00921680001d
:102c3400b1ff2f00810061000080700090168800b1
:102c4400990037002e409000614060000080fb0036
:102c5400610060004400dd0092168000f1fe2f0048
:102c64008100610000807000901688008e0037009b
:102c74002e409000614060000080fb006100600015
:102c84004600dd0092168000f1fb2f0081006100f8
:102c94000080700090168800830037002e4090005a
:102ca400614060000080fb00610060004400dd00c2
:102cb400f2168000f1fe2f00810061000080700098
:102cc400f0168800780037002e40900061406000c4
:102cd4000080fb00610060004200dd0002168000fd
:102ce400b1ff2f0081006100008070000016880091
:102cf4006d0037002e409000614060000080fb00b2
:102d0400610060004c00dd00f2168000f1ff2e002f
:102d14008100610000807000f016880062003700b6
:102d24002e409000614060000080fb006100600064
:102d34004d00dd0002168000f1ff2d0081006100ce
:102d44000080700000168800570037002e40900065
:102d5400614060000080fb00610060004700dd000e
:102d6400f2168000f1f72f008100610000807000ee
:102d7400f01688004c0037002e409000614060003f
:102d84000080fb00610060000000400062168000cb
:102d9400d1ff2f0081006100008070006016880060
:102da400410037002e409000614060000080fb002d
:102db400610060004300dd006216800071ff2f0097
:102dc40081006100008070006016880036003700c2
:102dd4002e409000614060000080fb0061006000b4
:102de4004700dd0002168000f1f72f00810061002a
:102df40000807000001688002b0037002e409000e1
:102e0400614060000080fb0061006000f2168000f9
:102e1400e1ff2f008100610000807000f01688003f
:102e2400210037002e409000614060000080fb00cc
:102e3400610060000000400002168000d1ff2f00f6
:102e440081006100008070000016880016003700c1
:102e54002e409000614060000080fb006100600033
:102e64004400dd0002168000f1fe2f0081006100a5
:102e740000807000001688000b0037002e40900080
:102e8400614060000080fb00610060004200dd00e2
:102e9400f2168000b1ff2f008100610000807000f5
:102ea400f0168800000000000080fa000000060010
:102eb4000400fa00000f7800214798001e007800f3
:102ec400cf80de008202200003002000820f500029
:102ed400838f5800e8013e0000600100280037009d
:102ee400320037003c003700460037004f003700ff
:102ef40058003700620037006c0037007600370056
:102f0400800037008a003700940037009e003700a5
:102f1400a8003700b2003700bc003700c6003700f5
:102f2400cf003700d9003700e3003700ec0037004a
:102f3400f6003700000137000a013700140137009a
:102f44001e01370028013700320137003c013700e9
:102f540046013700500137005a0137006401370039
:102f64006e01370078013700820137008c01370089
:102f7400960137009f013700a9013700b3013700dc
:102f84002e409000614060000080fb006100600002
:102f94004800dd00b2168000f1ef2f0081006100cf
:102fa40000807000b0168800b30137002e409000f6
:102fb400614060000080fb00610060004a00dd00a9
:102fc400b2168000f1bf2f00810061000080700004
:102fd400b0168800a80137002e40900061406000c0
:102fe4000080fb00610060004d00dd00b21680002f
:102ff400f1ff2d008100610000807000b016880090
:103004009d0137002e409000614060000080fb006d
:103014004f00dd00b2168000f1ff2700810061003f
:1030240000807000b0168800930137002e40900095
:10303400614060000080fb0061006000b216800007
:10304400e1ff2f008100610000807000b01688004d
:10305400890137002e409000614060000080fb0031
:103064006100600000004000b2168000d1ff2f0014
:103074008100610000807000b01688007e01370076
:103084002e409000614060000080fb006100600001
:103094004300dd00b216800071ff2f008100610043
:1030a40000807000b0168800730137002e40900035
:1030b400614060000080fb00610060004500dd00ad
:1030c400b2168000f1fd2f008100610000807000c5
:1030d400b0168800680137002e40900061406000ff
:1030e4000080fb00610060004700dd00b216800034
:1030f400f1f72f008100610000807000b016880095
:103104005d0137002e409000614060000080fb00ac
:10311400610060004d00dd0012178000f1ff2d00fa
:103124008100610000807000101788005201370090
:103134002e409000614060000080fb006100600050
:103144004500dd0012178000f1fd2f0081006100b1
:103154000080700010178800470137002e4090004f
:10316400614060000080fb00610060004300dd00fe
:103174002216800071ff2f00810061000080700022
:10318400201688003c0137002e409000614060000a
:103194000080fb00610060004c00dd00221680000e
:1031a400f1ff2e008100610000807000201688006d
:1031b400310137002e409000614060000080fb0028
:1031c400610060004200dd0052168000b1ff2f0054
:1031d40081006100008070005016880026013700cd
:1031e4002e409000614060000080fb0061006000a0
:1031f4004800dd0012178000f1ef2f00810061000c
:1032040000807000101788001b0137002e409000ca
:10321400614060000080fb00610060004600dd004a
:1032240012178000f1fb2f00810061000080700004
:1032340010178800100137002e4090006140600094
:103244000080fb004f00dd0052168000f1ff2700d4
:10325400810061000080700050168800060137006c
:103264002e409000614060000080fb00610060001f
:103274004200dd0082168000b1ff2f008100610052
:103284000080700080168800fb0037002e409000fc
:10329400614060000080fb00610060004500dd00cb
:1032a40022168000f1fd2f00810061000080700073
:1032b40020168800f00037002e4090006140600026
:1032c4000080fb0061006000e2168000e1ff2f0037
:1032d4008100610000807000e0168800e60037007d
:1032e4002e409000614060000080fb00610060009f
:1032f4000000400012178000d1ff2f008100610000
:103304000080700010178800db0037002e4090000a
:10331400614060000080fb00610060004300dd004c
:103324001217800071ff2f0081006100008070007f
:1033340010178800d00037002e40900061406000d4
:103344000080fb00610060004900dd00b2168000cf
:10335400f1df2f008100610000807000b01688004a
:10336400c50037002e409000614060000080fb00e3
:10337400610060004b00dd00b2168000f17f2f0079
:103384008100610000807000b0168800ba00370028
:103394002e409000614060000080fb0061006000ee
:1033a4004c00dd00b2168000f1ff2e0081006100a8
:1033b40000807000b0168800af0037002e409000e7
:1033c400614060000080fb00610060004e00dd0091
:1033d400b2168000f1ff2b008100610000807000b4
:1033e400b0168800a40037002e40900061406000b1
:1033f4000080fb00610060004200dd00b216800026
:10340400b1ff2f008100610000807000b0168800b9
:10341400990037002e409000614060000080fb005e
:10342400610060004400dd00b2168000f1fe2f0050
:103434008100610000807000b01688008e003700a3
:103444002e409000614060000080fb00610060003d
:103454004600dd00b2168000f1fb2f008100610000
:1034640000807000b0168800830037002e40900062
:10347400614060000080fb00610060004400dd00ea
:1034840012178000f1fe2f0081006100008070009f
:1034940010178800780037002e40900061406000cb
:1034a4000080fb00610060004200dd002216800005
:1034b400b1ff2f0081006100008070002016880099
:1034c4006d0037002e409000614060000080fb00da
:1034d400610060004c00dd0012178000f1ff2e0037
:1034e40081006100008070001017880062003700be
:1034f4002e409000614060000080fb00610060008d
:103504004d00dd0022168000f1ff2d0081006100d6
:103514000080700020168800570037002e4090006d
:10352400614060000080fb00610060004700dd0036
:1035340012178000f1f72f008100610000807000f5
:10354400101788004c0037002e4090006140600046
:103554000080fb00610060000000400082168000d3
:10356400d1ff2f0081006100008070008016880068
:10357400410037002e409000614060000080fb0055
:10358400610060004300dd008216800071ff2f009f
:1035940081006100008070008016880036003700ca
:1035a4002e409000614060000080fb0061006000dc
:1035b4004700dd0022168000f1f72f008100610032
:1035c40000807000201688002b0037002e409000e9
:1035d400614060000080fb00610060001217800001
:1035e400e1ff2f0081006100008070001017880047
:1035f400210037002e409000614060000080fb00f5
:10360400610060000000400022168000d1ff2f00fe
:1036140081006100008070002016880016003700c9
:103624002e409000614060000080fb00610060005b
:103634004400dd0022168000f1fe2f0081006100ad
:1036440000807000201688000b0037002e40900088
:10365400614060000080fb00610060004200dd000a
:1036640012178000b1ff2f008100610000807000fc
:1036740010178800000000000080fa000000060017
:103684000200fa00000f78001e007800cf80de00f0
:103694008202200003002000820f5000838f580014
:1036a400ce003e0000600100280037002b003700e8
:1036b4002e00370031003700340037003700370060
:1036c4003a0037003d003700400037004300370020
:1036d40046003700490037004c0037004f003700e0
:1036e4005200370055003700580037005b003700a0
:1036f4005e00370061003700640037006700370060
:103704006a0037006d00370070003700730037001f
:1037140076003700790037007c0037007f003700df
:103724008200370085003700880037008b0037009f
:103734008e0037009100370094003700970037005f
:103744009a0037009d003700a0003700a0168000c3
:103754004800de0061406000a1003700a016800030
:103764004a00de00614060009d003700a016800022
:103774004d00de006140600099003700a016800013
:103784004f00de000040780095003700a01680004e
:10379400004078006140600091003700a01680006e
:1037a4000000d100614060008d003700a016800049
:1037b4004300de006140600089003700a0168000ed
:1037c4004500de006140600085003700a0168000df
:1037d4004700de0061406000810037000017800070
:1037e4004d00de00614060007d003700001780005e
:1037f4004500de006140600079003700101680004b
:103804004300de0061406000750037001016800040
:103814004c00de00614060007100370040168000fb
:103824004200de00614060006d0037000017800038
:103834004800de0061406000690037000017800026
:103844004600de00614060006500370040168000dd
:103854004f00de00004078006100370070168000e1
:103864004200de00614060005d00370010168000f9
:103874004500de006140600059003700d01680002a
:103884000040780061406000550037000017800058
:103894000000d10061406000510037000017800033
:1038a4004300de00614060004d003700a016800038
:1038b4004900de006140600049003700a016800026
:1038c4004b00de006140600045003700a016800018
:1038d4004c00de006140600041003700a01680000b
:1038e4004e00de00614060003d003700a0168000fd
:1038f4004200de006140600039003700a0168000fd
:103904004400de006140600035003700a0168000ee
:103914004600de006140600031003700001780007f
:103924004400de00614060002d0037001016800066
:103934004200de006140600029003700001780006b
:103944004c00de0061406000250037001016800046
:103954004d00de0061406000210037000017800048
:103964004700de00614060001d00370070168000d3
:103974000000d1006140600019003700701680001b
:103984004300de006140600015003700101680001f
:103994004700de006140600011003700001780001e
:1039a40000407800614060000d0037001016800070
:1039b4000000d1006140600009003700101680004b
:1039c4004400de00614060000500370000178000fd
:1039d4004200de0061406000010037000040eb005f
:1039e4000080fa00000006000400fa00008fbe0008
:1039f40005003700000000000080eb008080eb0031
:103a04001e0f40005e9748001e00be00e00f5000ed
:103a1400e08f5800f7ff3c000080fa000000060029
:103a24000600fa001007980041479800a0a620005d
:103a340010407800e04f50003f003a00a1a620005b
:103a440010c0b30080487800d882a900c016800056
:103a54004400de00614060000080fb006100600003
:103a640000004000c2168000d1ff2f0081006100d9
:103a740000807000c0168800dc82a900e016800077
:103a84004400de00614060000080fb0061006000d3
:103a940000004000e2168000d1ff2f008100610089
:103aa40000807000e01688000000eb00000f780032
:103ab4001d0037001e007800e100600010c0b30054
:103ac400e08f5000010032000040eb000080fb005a
:103ad400610060004400dd00e2168000f1fe2f006a
:103ae4008100610000807000e0168800e01680000c
:103af4004400de00614060000080fb006100600063
:103b040000004000e2168000d1ff2f008100610018
:103b140000807000e016880000d4200031002000ee
:103b2400b1ff07001e0fe8001e007800ff0f5000d1
:103b3400e0ff340001003700000000000080fa00bc
:103b4400000006000400fa007007a8007407a8002b
:103b54000000eb00000f78000400370011c0b30030
:103b64001e007800defa07001e0fe8008002200025
:103b74009e007800808f5000f8ff3400803e2000c3
:103b84000100200098ff07000000eb00000f780000
:103b9400080037001e007800b9fe0700e04f50000f
:103ba40003003a0011c0b3001e0078009cff070018
:103bb4001e0fe800800220009e007800808f5000d5
:103bc400f4ff34000000eb001007980033003700c6
:103bd4008040eb001e009000c1fa07008040eb001b
:103be4001e009000b2fc0700803e2000010020006f
:103bf4007dff07000000eb00000f78000e00370087
:103c04001e0090009e007800808f50000800320053
:103c14001e0078009afe0700e14f500005003a00ac
:103c240021c0b3001e0078007dff070001003700ab
:103c3400000000001e0fe8001e007800f50f500081
:103c4400efff34000000eb00000f78000a0037009b
:103c54009e0078007680400089fe0700e04f500007
:103c640004003a009e0078007680400031c0b30022
:103c74006bff07001e0fe8001e007800f20f5000d3
:103c8400f3ff340011c0b3001e00900094fa070043
:103c94001e0090000000e800100798001e0090002d
:103ca400f50f5000caff34000000eb001007980025
:103cb400360037001e009000760040008040eb0084
:103cc40087fa07001e009000760040008040eb0059
:103cd40077fc0700803e20000100200042ff07001f
:103ce4000000eb00000f7800080037001e00780089
:103cf40063fe0700e04f500003003a0041c0b300e8
:103d04001e00780046ff07001e0fe8001e00780022
:103d1400f50f5000f5ff34000000eb00000f7800b1
:103d2400100037001e0090009e007800808f500025
:103d34000a0032009e0078007680400050fe0700a2
:103d4400e14f500006003a009e0078007680400063
:103d540051c0b30032ff070001003700000000002b
:103d64001e0fe8001e007800f20f5000edff340033
:103d74001e0090007600400011c0b30058fa0700fe
:103d84001e0090000000e800100798001e0090003c
:103d9400f20f5000c7ff34007007a9007407a90090
:103da4000080fa00000006000000fa00b110800054
:103db4000000280000806000e00f500001003a007d
:103dc40020000700b01080007f006000e00f50006a
:103dd40007003a00c1108000104c240000806000ed
:103de400e00f500002003a0010c0b3000300370097
:103df400c0108000404f88000040eb000080fa00b3
:103e0400000006000000fa0000242200e04f8800b1
:103e1400c0108000404f880017e2a9008a40a90022
:103e24009a40a900c262a900c242a9000000000091
:103e3400c262a800c242a800020007000080fa0083
:103e4400000006000000fa0030082000a0108800de
:103e540017e2a800e1058000f08f2f008080600049
:103e64000050200000807000e00588008a40a9000e
:103e74009a40a800c0f72100942f0200000000001f
:103e8400f0fe8b00c1fd27000040eb008048780065
:103e9400a19e20000040eb00804878000000eb0069
:103ea400604f88000000eb00704f88000000eb00ba
:103eb400804f88000000eb00904f88000000eb006a
:103ec400a04f88000000eb00b04f880000242200bf
:103ed400e04f88000080fa00000006000000fa00ad
:103ee400f0fe8300ee2f0200000000000080fa00c4
:103ef400000006000000fa00b11080000000280055
:103f040000806000e00f500003003a00002422000b
:103f1400e04f8800cbff07000080fa000000060095
:103f24003600f800809fbe00829fbe00849fbe00c2
:103f3400869fbe000000fa0021e1a8004400f800ba
:103f440020538000200288008a40a900e04f8000ae
:103f5400000001004400f9000080fa004f03be0095
:103f64004f02be004f01be004f00be003600f900f4
:103f7400004006000000fa00b11080000000280094
:103f840000806000e00f500002003a000040eb00a7
:103f940015003700b01080007f006000e00f500073
:103fa40005003a00c1108000104c2400008060001d
:103fb400e00f5000020032000040eb000a0037001e
:103fc400c0fd270010407800e14f500002003a0085
:103fd4000040eb0004003700c1fd270010c0b3000f
:103fe4008048780010c0b3000080fa00000006008a
:103ff4000c00fa00004f780011079800424798001f
:10400400330798004407980055079800d9ff070024
:10401400e04f500002003a000040eb00150037006a
:10402400a09e20001e4878001e009000604f88006b
:104034004e4090000080fb00704f88003e009000ce
:10404400804f88004e009000904f88000000eb00e5
:10405400a04f88005e009000b04f88002000200030
:10406400c04f8800400c2200e04f88008a40a8001e
:1040740010c0b3000080fa00000006000e00fa0031
:10408400004f7800110798004247980033079800c2
:10409400440798005507980066079800b5ff070085
:1040a400e04f500002003a000040eb0015003700da
:1040b400a09e20001e4878001e009000604f8800db
:1040c4004e4090000080fb00704f88003e0090003e
:1040d400804f88000000eb00904f88004e00900055
:1040e400a04f88005e009000b04f88006e009000e2
:1040f400c04f8800400c2200e04f88008a40a8008e
:1041040010c0b3000080fa00000006000400fa00aa
:10411400000f78001107980096ff0700e04f500049
:1041240002003a000040eb00140037001e00780043
:1041340000407800a19e2000804878001e00900076
:10414400b04f88000000eb00704f88000000eb00c7
:10415400804f88000000eb00904f88000000eb00c7
:10416400a04f880020002000c04f8800400c22008f
:10417400e04f88008a40a80010c0b3000080fa0015
:10418400000006000000fa000000eb00d04f880099
:10419400c04f8000e00f500003003a00001b2200d3
:1041a400e04f880002003700000e2200e04f880034
:1041b4001602a8000080fa00000006000000fa00c1
:1041c400a09e2000104078008080fb00e00f2000bb
:1041d4000080600090108800600f2200e04f88008b
:1041e4000080fa00000006000000fa00c110800000
:1041f4000000280000806000e00f50000200320040
:10420400ad0007001b003700704f8000e00f500026
:1042140002003a003700070016003700604f8000a4
:10422400d14f800001004000104078000080fb0066
:10423400901088000100e800d04f8800d14f800022
:10424400704f8000808f50000a0039000000eb009e
:10425400d04f8800a04f8000e00f500003003200d0
:10426400001a2200e04f88000200370000142200e8
:10427400e04f88000080fa00000006000000fa0009
:10428400c11080000000280000806000e00f500092
:10429400020032008800070014003700804f8000bd
:1042a400d14f800001004000104078000080fb00e6
:1042b400901088000100e800d04f8800d14f8000a2
:1042c400904f8000808f500008003900a04f80007c
:1042d400e00f500003003a00c0172200e04f8800ae
:1042e40002003700001a2200e04f88000080fa0024
:1042f400000006000000fa0080182200e04f880049
:104304001642a8000080fa00000006000000fa002f
:10431400c1fd27000040eb0080487800b04f8000ca
:10432400e00f500003003200b14f800010c0b30012
:10433400010001000080fa00000006000000fa00fd
:104344000000eb00d04f8800001b2200e04f8800e3
:104354001602a8000080fa00000006000000fa001f
:10436400a09e2000104078000004a0000080fb0004
:1043740090108800c04f8000e00f50000b003a00fe
:104384000000eb00d04f8800704f8000e00f500019
:1043940003003a00001e2200e04f880005003700a9
:1043a400600f2200e04f880002003700001e220048
:1043b400e04f88000080fa00000006000000fa00c8
:1043c400c11080000000280000806000e00f500051
:1043d400020032003800070003003700602022008a
:1043e400e04f88001662a8000080fa000000060072
:1043f4000000fa0060202200e04f88001662a80046
:104404000080fa00000006000000fa00804f8000df
:10441400d14f8000010140008010800000407800ee
:10442400004978000100e800d04f8800d14f800097
:10443400a04f8000808f50000400390040232200e8
:10444400e04f880016a2a80003003700a01f220036
:10445400e04f880016a2a9001682a8000080fa0086
:10446400000006000000fa001642a80060242200a2
:10447400e04f88000080fa00000006000000fa0007
:104484000080fa00000006000000fa00c1fd2700c9
:104494000040eb0080487800b04f8000e00f5000ef
:1044a40003003200b14f800010c0b30001000100ce
:1044b4000080fa00000006000000fa000024220038
:1044c400e04f88001642a800c1fd27000040eb0021
:1044d40080487800b04f8000e00f500003003200a5
:1044e400b14f80000040eb00010001000080fa00a1
:1044f400000006000000fa00823a020000000000fa
:10450400a41d0200000000005e3d02000000000047
:10451400922d020000000000943d02000000000003
:10452400fdff37000000fa00e15180004001200047
:1045340000017800110009008280d8008000fd008d
:10454400e00f500038003a0080a5200010407800a9
:104554000000fb00cf80de0092002000030020005a
:10456400820f5000838f580029003e000060010034
:104574002f003700220037001e0037001a003700d2
:1045840016003700120037000e0037000a0037000b
:104594000600370000003700003222007c39020098
:1045a40000000000dc22a90019003700dc22a8006a
:1045b400dc42a90016003700dc42a800dc62a90036
:1045c40013003700dc62a800dc82a9001000370069
:1045d400dc82a800dc22a9000d003700dc22a80040
:1045e400dc42a9000a003700dc42a800dc62a90012
:1045f40007003700dc82a900dc62a8000400370051
:10460400dc82a8009c3d02000000000000000000c5
:1046140080a52000104078000040e90081a520001a
:1046240080487800030037000000000001003700d4
:10463400000000000080fa00000006000400fa00f8
:10464400e036290003000900305f78004e00b10015
:1046540042c0b3008e0078000000eb00ba2e0200c6
:10466400000000000040eb00304798003e409000fe
:10467400204798002e409000104798001e4090005c
:10468400004f7800420020008e0078000000eb000c
:10469400322f0200000000001e407800e14f50005d
:1046a4000c003a001e409000e24f500009003a000e
:1046b4002e409000e34f500006003a003e40900028
:1046c400e44f500003003a00a1a5200010c0b3003d
:1046d400804878000080fa00000006000000fa001c
:1046e400804880008080d100904880000080d10004
:1046f40080805000804d8000008040005050880031
:10470400e04880008080d100d04880000080d10043
:1047140080805000804d80000080500060508800f0
:10472400304980008080d100204980000080d10081
:1047340080805000804d80000080500070508800c0
:10474400a04780008080d100904780000080d10085
:104754000080500080508800e04780008080d100b5
:10476400f04780000080d100008050009050880005
:10477400304880008080d100404880000080d10013
:1047840000805000a05088000080fa00000006005d
:104794000400fa0080a5200010407800e04f50008b
:1047a4000d00320080bb200070ff8b0080bb200016
:1047b40080ff8b0080bb200090ff8b0080bb20001b
:1047c400a0ff8b0080bb2000b0ff8b0080bb2000cb
:1047d400c0ff8b00c8003700a0a52000104078005f
:1047e400e04f50004a003a0090a5200010407800a5
:1047f400e04f500046003200e1518000600020008c
:1048040000017800110009008280d8008000fd00ba
:10481400e00f5000b8003a00e0168000e2006000ab
:1048240010c0b300e08f5000010032000040eb00e4
:104834000080fb006100600000004000e216800080
:10484400d1ff2f008100610000807000e016880015
:10485400e0168000e400600010c0b300e08f500058
:10486400010032000040eb000080fb0061006000aa
:104874004200dd00e2168000b1ff2f0081006100dc
:1048840000807000e0168800e0168000f0006000f0
:1048940010c0b300e08f5000010032000040eb0074
:1048a4000080fb00610060004400dd00e21680002f
:1048b400f1fe2f008100610000807000e016880086
:1048c400e0168000e800600010c0b300e08f5000e4
:1048d400010032000040eb000080fb00610060003a
:1048e4004300dd00e216800071ff2f0081006100ab
:1048f40000807000e016880090a520001040780029
:104904000040e90091a52000804878007a00370033
:104914006050800001fa20000180b900008fbe00c1
:104924009e00900080bb200000804000cf80de000d
:10493400be3102000000000070ff8b005050800068
:1049440001fa20000180b900008fbe009e00900093
:1049540080bb200000804000cf80de00be3102001a
:104964000000000080ff8b007050800001fa2000de
:104974000180b900008fbe009e00900080bb200023
:1049840000804000cf80de00be3102000000000045
:1049940090ff8b008050800001fa20000180b90054
:1049a400008fbe009e00900080bb2000008040006d
:1049b400cf80de00be31020000000000a0ff8b00ab
:1049c4009050800001fa20000180b900008fbe00e1
:1049d4009e00900080bb200000804000cf80de005d
:1049e400be31020000000000b0ff8b00a050800028
:1049f40001fa20000180b900008fbe009e009000e3
:104a040080bb200000804000cf80de00be31020069
:104a140000000000c0ff8b0071ff830080442f0062
:104a240000804000e00f500001003d000000ea005b
:104a340080007800800c2000808f500014003c001f
:104a440081ff830080442f0000804000e00f50006d
:104a540001003d000000ea0080007800800c200086
:104a6400808f50000a003c0091ff830080442f0097
:104a740000804000e00f500001003d000000ea000b
:104a840080007800800c2000808f500002003400e9
:104a9400dc22a90001003700dc22a800a1ff83006a
:104aa40080442f0000804000e00f500001003d00d2
:104ab4000000ea008000780080072000808f50000a
:104ac4000a003c00b1ff830080442f0000804000b6
:104ad400e00f500001003d000000ea008000780073
:104ae40080072000808f500002003400dc42a900bf
:104af40001003700dc42a8000080fa000000060034
:104b04000000fa000080fa00000006000000fa002d
:104b1400c00320002010880007e2a800610580007f
:104b2400f0f82f00808060000005200000807000f5
:104b3400600588008620a9009620a800e05b22007a
:104b4400942f0200000000001052880001a42000ed
:104b54000040eb00804878000080fa000000060066
:104b64000000fa0010528000ee2f02000000000046
:104b74000080fa00000006000000fa0031108000f6
:104b84000000280000806000e00f500003003a009d
:104b9400c084220020528800dcff07000080fa0055
:104ba400000006003600f800809fbe00829fbe0011
:104bb400849fbe00869fbe000000fa0021e1a80089
:104bc4004400f80020538000200288008620a900b9
:104bd40020528000000001004400f9000080fa0027
:104be4004f03be004f02be004f01be004f00be0087
:104bf4003600f900004006000000fa003110800081
:104c04000000280000806000e00f500002003a001d
:104c14000040eb0015003700301080007f0060007a
:104c2400e00f500005003a0041108000104c2400b1
:104c340000806000e00f5000020032000040eb00f2
:104c44000a00370000a4200010407800e14f500013
:104c540002003a000040eb000400370001a42000e9
:104c640010c0b3008048780010c0b3000080fa0080
:104c7400000006000c00fa00004f780011079800ad
:104c84004247980033079800440798005507980056
:104c9400d9ff0700e04f500002003a000040eb004b
:104ca400130037005e009000d0fe8b004e40900051
:104cb4000080fb00a0fe8b001e009000c0fe8b0055
:104cc400e0fc27001e4878003e009000b0fe8b00f8
:104cd4004e00900080fe8b000000eb0090fe8b00e5
:104ce400606f2200205288008620a80010c0b30004
:104cf4000080fa00000006000e00fa00004f780061
:104d04001107980042479800330798004407980019
:104d14005507980066079800b7ff0700e04f50005a
:104d240002003a000040eb00130037005e009000e0
:104d3400d0fe8b004e4090000080fb00a0fe8b0054
:104d44001e009000c0fe8b00e0fc27001e48780087
:104d54003e009000b0fe8b000000eb0080fe8b0054
:104d64004e00900090fe8b00606f2200205288005d
:104d74008620a80010c0b3000080fa0000000600de
:104d84000400fa00004f7800110798009aff07000a
:104d9400e04f500002003a000040eb0010003700e2
:104da4001e009000d0fe8b000000eb00a0fe8b00e4
:104db400e0fc27001e4878000000eb00b0fe8b00ea
:104dc4000000eb0080fe8b000000eb0090fe8b00e7
:104dd400606f2200205288008620a80010c0b30013
:104de4000080fa00000006000000fa000000eb005a
:104df40060fe8b0060702200205288000602a8002a
:104e04000080fa00000006000000fa00c0712200d1
:104e140020528800e0fc2700104078008080fb00ce
:104e2400e00f200000806000101088000080fa006d
:104e3400000006000000fa00411080000000280075
:104e440000806000e00f500002003200a000070064
:104e54001b003700a0fe8300e00f500002003a0060
:104e64003800070016003700c0fe830061fe83008f
:104e740001004000104078000080fb001010880002
:104e84000100e80060fe8b0061fe8300a0fe830049
:104e9400808f50000a0039000000eb0060fe8b0098
:104ea40090fe8300e00f500003003200807c22005b
:104eb40020528800020037006076220020528800c9
:104ec4000080fa00000006000200fa004110800091
:104ed4000000280000806000e00f50000200320053
:104ee4007b00070015003700b1fe830060fe8300dd
:104ef40080804000114f78000000e80060fe8b00c5
:104f040061fe830080fe8300808f5000080039001a
:104f140090fe8300e00f500003003a00407a220024
:104f24002052880002003700807c22002052880032
:104f34009e4078000180fb00101088000080fa0079
:104f4400000006000000fa00007b220020528800c6
:104f54000642a8000080fa00000006000000fa00e3
:104f640001a420000040eb0080487800d0fe8300bc
:104f7400e00f500003003200d1fe830010c0b300e4
:104f8400010001000080fa00000006000000fa00a1
:104f94000000eb0060fe8b00807d22002052880020
:104fa4000602a8000080fa00000006000000fa00d3
:104fb400c07e220020528800e0fc270010407800c8
:104fc4000004a0000080fb00101088000080fa009c
:104fd400000006000000fa004110800000002800d4
:104fe40000806000e00f500002003200380007002b
:104ff4000300370020812200205288000662a800a6
:105004000080fa00000006000000fa00208122005f
:10501400205288000662a8000080fa000000060002
:105024000000fa00b0fe830061fe8300010140002d
:105034000010800000407800004978000100e8007a
:1050440060fe8b0061fe830090fe8300808f500021
:1050540004003900008422002052880006a2a8001f
:1050640003003700608022002052880006a2a900b5
:105074000682a8000080fa00000006000000fa0082
:105084000642a80020852200205288000080fa00f1
:10509400000006000000fa000080fa00000006008c
:1050a4000000fa0001a420000040eb0080487800d2
:1050b400d0fe8300e00f500003003200d1fe8300d5
:1050c40010c0b300010001000080fa0000000600d7
:1050d4000000fa00c0842200205288000642a80082
:1050e40001a420000040eb0080487800d0fe83003b
:1050f400e00f500003003200d1fe83000040eb00bb
:10510400010001000080fa00000006000400fa001b
:10511400000f7800110798001e00780000518800e5
:105124001e0090001051880021e2a90021a2a900cc
:105134002182a9002162a90001118000f0cf2f0073
:10514400008060000011880020e2a90020c2a900ac
:1051540020a2a9002082a9002062a80001118000d9
:1051640090ff2f0000806000001188002002a90039
:1051740023e2a90023c2a90023a2a8002362a90054
:1051840011118000f0f32f000080600010118800de
:1051940022a2a9002222a9005105800080ff2f002d
:1051a400008060000020a0005005880041058000b8
:1051b400f0ff280080806000000024000080700060
:1051c400400588008580a9009580a8008560a90015
:1051d4009560a80021e2a8002342a8000080fa00fc
:1051e400000006000400fa00008fbe001e01be008d
:1051f4004218dd00ce10de00810070004210dd0098
:105204000002be004f88de000003780080037800af
:1052140000802400811e20006011b800d009020023
:1052240000000000000078000000e9004011880040
:105234000080fa00000006000400fa00008fbe009f
:105244001e01be004218dd00ce10de008100700099
:105254004210dd000002be004f88de00000378002b
:105264008003780000802400811e20006011b800b3
:10527400d009020000000000000078000001e900ed
:105284004111800010c0b300810f510001003200b1
:105294000040eb000080fa00000006000000fa0065
:1052a4008580a8000080fa00000006003600f8009f
:1052b400809fbe00829fbe00849fbe00869fbe006a
:1052c4000200fa008580a90021e1a8004400f8004a
:1052d40020538000200288000080eb00000f78003b
:1052e40000518000e00f50000300320000518000a4
:1052f40000000100000f78001e007800e10f40005c
:10530400040032001e007800004078000080fb009a
:10531400201188004400f9000080fa004f03be0009
:105324004f02be004f01be004f00be003600f90020
:10533400004006003600f800809fbe00829fbe0039
:10534400849fbe00869fbe000200fa008560a9000b
:1053540021e1a8004400f8002053800020028800c6
:105364000800370030118000004f78001051800091
:10537400e00f500003003200115180001e407800fd
:10538400010001001011800061006000e00f500076
:10539400f4ff3a002222a9004400f9000080fa0038
:1053a4004f03be004f02be004f01be004f00be00bf
:1053b4003600f900004006000400fa00000f7800ef
:1053c400110798001e007800305188001e009000dc
:1053d4004051880031e2a90031a2a9003182a9001c
:1053e4003162a90081118000f0cf2f00008060009d
:1053f4008011880030e2a90030c2a90030a2a900bf
:105404003082a9003062a8008111800090ff2f0033
:1054140000806000801188003002a90033e2a900f6
:1054240033c2a90033a2a8003362a90091118000fd
:10543400f0f32f00008060009011880032a2a900d0
:105444003222a90091058000f0ff280080806000ce
:105454000000240000807000900588009105800001
:10546400f08f2f00808060000040200000807000da
:105474009005880087e0a90097e0a80087c0a900ec
:1054840097c0a80031e2a8003342a8000080fa00c7
:10549400000006000400fa00008fbe001e01be00da
:1054a4004218dd00ce10de00810070004210dd00e5
:1054b4000002be004f88de000003780080037800fd
:1054c40000802400811e20006011b800d009020071
:1054d40000000000000078000000e900c01188000e
:1054e4000080fa00000006000400fa00008fbe00ed
:1054f4001e01be004218dd00ce10de0081007000e7
:105504004210dd000002be004f88de000003780078
:105514008003780000802400811e20006011b80000
:10552400d009020000000000000078000001e9003a
:10553400c111800010c0b300810f5100010032007e
:105544000040eb000080fa00000006000000fa00b2
:1055540041a220000040eb008048780087e0a800ca
:105564000080fa00000006000000fa0041a22000ba
:1055740010c0b300804878000080fa0000000600e4
:105584003600f800809fbe00829fbe00849fbe004c
:10559400869fbe000200fa0087e0a90091118000f6
:1055a4000020200000806000e00f500018003a0046
:1055b40021e1a8004400f800205380002002880064
:1055c4000080eb00000f780030518000e00f5000a5
:1055d4000700320040a2200010407800e04f500045
:1055e40003003a003051800000000100000f7800f1
:1055f4001e007800e10f4000040032001e00780015
:10560400004078000080fb00a01188004400f900ed
:105614000080fa004f03be004f02be004f01be00df
:105624004f00be003600f900004006003600f800c6
:10563400809fbe00829fbe00849fbe00869fbe00e6
:105644000200fa0087c0a90021e1a8004400f80084
:10565400205380002002880008003700b011800029
:10566400004f780040518000e00f500003003200ea
:10567400415180001e40780001000100901180001b
:1056840061006000e00f5000f4ff3a003222a900ec
:105694004400f9000080fa004f03be004f02be0030
:1056a4004f01be004f00be003600f9000040060066
:1056b4000000fa000000eb00904b88000119800004
:1056c400003020000080700000198800011980005b
:1056d400000e200000807000001988002043a800fc
:1056e4002143a8002343a80011198000f0cf2f0004
:1056f400008060001019880025e3a90010c3b300de
:1057040024e3b70021198000f00f2e008080600090
:1057140000b020000080700020198800111980005a
:10572400f0ff210000806000101988002183a80088
:105734001119800030fc2f00008060004001b3008c
:10574400101988009119800080ff2f0000806000ec
:10575400901988000000eb00801988000000eb001d
:10576400701988000080eb00601988000080eb004d
:10577400501988000080eb00601b88003003a800eb
:105784003023a8002c03a9002c23a90031e3a8008e
:105794002e03a8002e23a8002e43a8002de3a90061
:1057a4002a03a9002a23a9002a43a90085a0a90045
:1057b40051058000f0f82f00808060000005200073
:1057c400008070005005880095a0a90021e3a8007e
:1057d400011c8000f0fc2f0080806000000220008b
:1057e40000807000001c8800011c8000c0ff2f0096
:1057f400008060000010a000001c88000030200021
:10580400401c880050002000501c8800d00020005c
:10581400101c8800007e2000201c8800007c2000d2
:10582400301c88003105800080ff2f00008060005c
:105834005000b300300588008480a9009480a8003b
:1058440081e3a8000080fa00000006003600f8009a
:10585400809fbe00829fbe000200fa0021e1a800e2
:105864004400f8002053800020028800c0a52000d6
:1058740010407800e04f500002003a0000fe27007c
:105884000100370000fc2700000f78001e0078009c
:1058940010007800f04a88001e80e80010007800ac
:1058a400404b88009e00780064804000100078001f
:1058b400b04988009e00780066804000100078009f
:1058c400004a88009e00780068804000100078003c
:1058d400504a88009e0078006a80400010007800da
:1058e400a04a8800c0a52000104078000004a2004f
:1058f400c1a52000804878008480a900115380004d
:105904000000210000806000e00f50001800320009
:1059140011538000f0ff2e000080600010538800b7
:105924006000b800204b8800314b88006000b8004c
:10593400704b8800814b88006000b800e049880003
:10594400f14988006000b800304a8800414a880064
:105954006000b800804a8800914a88006000b8005e
:10596400d04a8800e14a88000000eb00904b880090
:10597400224b8000334b8000f04a8000cf80de0051
:105984000200400083804800204b8800314b88008f
:10599400724b8000834b8000404b8000cf80de0040
:1059a4000200400083804800704b8800814b8800cf
:1059b400e2498000f3498000b0498000cf80de00d6
:1059c4000200400083804800e0498800f1498800d3
:1059d400324a8000434a8000004a8000cf80de00c3
:1059e4000200400083804800304a8800414a880011
:1059f400824a8000934a8000504a8000cf80de00b3
:105a04000200400083804800804a8800914a880050
:105a1400d24a8000e34a8000a04a8000cf80de00a2
:105a24000200400083804800d04a8800e14a880090
:105a3400904b80000000e800904b8800904b800061
:105a4400f30f500030003400924b8000204b800054
:105a5400314b8000811f7800110009004208d800f2
:105a6400cf007800004b8800924b8000704b800080
:105a7400814b8000811f7800110009004208d80082
:105a8400cf007800504b8800924b8000e0498000a2
:105a9400f1498000811f7800110009004208d800f4
:105aa400cf007800c0498800924b8000304a8000c3
:105ab400414a8000811f7800110009004208d80083
