:020000040000fa
:080000000002040000000000f2
:020000040000fa
:100008005c030000725f00009e5f0000c45f000098
:10001800ea5f0000106000005c0300005c03000061
:100028005c0300005c0300005c030000b2590000a0
:10003800b84c00005c0300005c0300005c03000097
:100048005c0300005c0300005c030000aa4200009f
:10005800664200005c0300005c0300005c030000d3
:100068005c030000f43b00005c0300005c0300003c
:100078005c0300005c0300005c0300005c030000fc
:100088005c0300005c0300005c0300001e5b0000d2
:10009800dc5900005c03000026440000d043000047
:1000a8005c0300008c5600005c03000088530000cd
:1000b8005c0300005c0300005c0300005c030000bc
:1000c8005c0300005c0300005c0300005c030000ac
:1000d8005c0300005c0300005c030000fa590000a8
:1000e800385a00005c030000cc3100005c030000bb
:1000f8005c030000a85800005c0300005c030000db
:100108001c5300005c0300005c0300005c0300005b
:100118005c0300005c0300005c0300005c0300005b
:100128005c0300005c0300005c0300005c0300004b
:100138005c0300005c0300005c0300005c0300003b
:100148005c0300005c0300005c0300005c0300002b
:100158005c0300005c0300005c0300005c0300001b
:100168005c0300005c0300005c0300005c0300000b
:100178005c0300005c0300005c0300005c030000fb
:100188005c0300005c0300005c0300005c030000eb
:100198005c0300005c0300005c0300005c030000db
:1001a8005c0300005c0300005c0300005c030000cb
:1001b8005c0300005c0300005c0300005c030000bb
:1001c8005c0300005c0300005c0300005c030000ab
:1001d8005c0300005c0300005c0300005c0300009b
:1001e8005c0300005c0300005c0300005c0300008b
:0801f8005c0300005c03000041
:020000040000fa
:100208005c030000725f00009e5f0000c45f000096
:10021800ea5f0000106000005c0300005c0300005f
:100228005c0300005c0300005c030000b25900009e
:10023800b84c00005c0300005c0300005c03000095
:100248005c0300005c0300005c030000aa4200009d
:10025800664200005c0300005c0300005c030000d1
:100268005c030000f43b00005c0300005c0300003a
:100278005c0300005c0300005c0300005c030000fa
:100288005c0300005c0300005c0300001e5b0000d0
:10029800dc5900005c03000026440000d043000045
:1002a8005c0300008c5600005c03000088530000cb
:1002b8005c0300005c0300005c0300005c030000ba
:1002c8005c0300005c0300005c0300005c030000aa
:1002d8005c0300005c0300005c030000fa590000a6
:1002e800385a00005c030000cc3100005c030000b9
:1002f8005c030000a85800005c0300005c030000d9
:100308001c5300005c0300005c0300005c03000059
:100318005c0300005c0300005c0300005c03000059
:100328005c0300005c0300005c0300005c03000049
:100338005c0300005c0300005c0300005c03000039
:100348005c0300005c0300005c0300005c03000029
:100358005c0300005c0300005c0300005c03000019
:100368005c0300005c0300005c0300005c03000009
:100378005c0300005c0300005c0300005c030000f9
:100388005c0300005c0300005c0300005c030000e9
:100398005c0300005c0300005c0300005c030000d9
:1003a8005c0300005c0300005c0300005c030000c9
:1003b8005c0300005c0300005c0300005c030000b9
:1003c8005c0300005c0300005c0300005c030000a9
:1003d8005c0300005c0300005c0300005c03000099
:1003e8005c0300005c0300005c0300005c03000089
:0803f8005c0300005c0300003f
:020000040000fa
:10040000afd520000efb27000e0188000000000081
:100410000c000700c070240001002000110007003c
:10042000000020000000e000020032000000020096
:1004300000000000ea5b0200000000000040da005b
:100440000000fe004440a900001c20000000e00065
:100450000300320000002000a00188004440a800f2
:100460000000060091018800800078000000eb0089
:1004700015003700e280400032a0b4009101ba00bc
:10048000e280400032a0b4009102ba00e280400055
:1004900032a0b4000002eb00472bde00f507b200eb
:1004a000602ce10004003a000059eb008301e900f0
:1004b000fdff3e00040037006128e100010032002a
:1004c0000082eb00040007001101ba000200e00006
:1004d000e8ff3a00000006003159ba008301e90044
:1004e0000c0032002159ba008301e90008003200f3
:1004f0000400e00003003a00e280400032a0b400b3
:10050000f5ff370011d9ba008301e900faff3a007c
:100510008100e800e180400032a0b4000000060045
:10052000c2380400000000009638040000000000fb
:1005300002390400000000008e500400000000009a
:10054000ac500400000000007a50040000000000dd
:10055000bc50040000000000d25004000000000065
:1005600012510400000000005a5104000000000075
:100570008251040000000000105f04000000000031
:10058000de3b0400000000006c3e040000000000a0
:10059000163d040000000000263d0400000000009d
:1005a0003c3d040000000000e83d040000000000a5
:1005b000863d040000000000c43d0400000000006f
:1005c000d03d040000000000f83d040000000000e1
:1005d0000c3e040000000000323e04000000000059
:1005e000603e040000000000263e04000000000001
:1005f000723e0400000000007a3404000000000095
:10060000b631040000000000fe32040000000000cb
:10061000ea330400000000001a3304000000000068
:100620003033040000000000da3304000000000052
:100630007a33040000000000b6330400000000001c
:10064000c2330400000000001a340400000000005f
:1006500040340400000000006e340400000000007c
:100660003434040000000000803404000000000066
:10067000ac5e0400000000005e58040000000000b2
:100680004e560400000000004a5d04000000000017
:100690002a5d040000000000c40404000000000003
:1006a000f004040000000000b81d04000000000079
:1006b00000000400000000000040da000000fe001e
:1006c0001200fa006007980071079800020f980066
:1006d0000022200010079800202220002007980008
:1006e00060222000300798008022200040079800f8
:1006f0006e00900060004000e20f500042003e009b
:10070000a0628000e20f500008003a0000232000a1
:100710001007980020232000200798006023200065
:100720003007980080232000400798001e009000aa
:10073000900078000000280000806000e00f50006a
:1007400008003a004e0090008000eb00010878009d
:100750001e00900010017800010028008100710047
:10076000010878000e089000000f78001c00370088
:10077000000a200050079800030037005e00900038
:100780000000e900500798002e009000100078004b
:1007900061006000e00f500003003a005e0090002e
:1007a000e00f5000f5ff3a002e0090001000780096
:1007b00061006000e00f50000d003200fe0090006c
:1007c0003e009000100078000040780080487800db
:1007d0007e0090000000e800700798001e0fe900fe
:1007e0001e007800e00f5000e1ff3a0001003700e2
:1007f000000000001e0078008e089000008050006d
:10080000000f980001003700000000000e08900063
:100810000080fa00000006001000fa00500798005f
:1008200061079800720798000022200010079800c6
:100830002022200020079800402220003007980046
:1008400080222000400798005e009000cf80de00ec
:100850004200200003002000820f5000838f5800c8
:1008600012003e0000600100040037000300370062
:10087000020037000f0037000e003700a062800032
:10088000e20f50000d003a000023200010079800ee
:1008900020232000200798004023200030079800e4
:1008a0008023200040079800050037000000eb007f
:1008b0003300370000000000010037000000000096
:1008c0001e0090009000780000002800008060006a
:1008d000e00f500008003a004e0090008000eb004e
:1008e000010878001e009000100178000100280027
:1008f00081007100010878002e00900090007800bf
:100900000040200000806000e00f500005003a0029
:100910002e0090001001780001402000810071003d
:10092000010878007e009000000f7800100037006a
:10093000000000002e0090009000780000102000c1
:1009400000806000e00f5000faff32006e0090005f
:10095000104078008000fb003e0090000108780005
:100960006e0090000000e800600798001e0fe9008c
:100970001e007800e00f5000edff3a007e0090006e
:100980000080fa0000000600889fbe000004780086
:10099000010078008204780088017800090178005d
:1009a0001100200069090700890f50000100320082
:1009b0000004eb00080078004f04be0000000600b1
:1009c0000000fa00e88157004fb99700218320000a
:1009d000404c2000180007000080fa0000000600cc
:1009e000881f78000204780008017800b409070025
:1009f000080040004f047800000006000000fa00e4
:100a0000881f780000047800ea8157003fb99700fa
:100a100088007800004f200007000700e00f50001a
:100a2000020035000041eb00027478004f047800aa
:100a30000080fa00000006004f06b000889fbe004c
:100a40008a9fbe008c9fbe008e1f780080057800b4
:100a500001057800820478008300780000f92f00f7
:100a60000f004000ef0b070028f92f000f0444008f
:100a70004b0498005a0498000000eb00600c9800aa
:100a80000eb720004db62000fcff2700194078006b
:100a90008085fb000b05fb008b05ea00cf5dde00c7
:100aa00050022000800f55000d003200e18f5500ec
:100ab0000b003a00c80190000b0178008900780013
:100ac000580090000300010050049800e00f50000f
:100ad0008b003200680890000000e800600c98006d
:100ae0008b84440050022000800f55000400320027
:100af000e00f5500e5ff3a007f9097008100370036
:100b00000000eb00400c9800300c9800200c98007e
:100b1000100c9800000c98007004980000149800c5
:100b2000070037000e005000000040006d00780004
:100b30008810900001007000001498008904e800fb
:100b4000194578008a00fb0000b720006309070000
:100b5000e00f5000f3ff3a00a1c2b300814f5500ef
:100b60000e003a008f8897000180e900808f9f0077
:100b700010007800700c9800e00f500005003d0058
:100b80000000ea00700c9800081090000020a000ff
:100b9000001498008904e8000f003700700c9800da
:100ba00008003700780890008c0f500004003200d5
:100bb0006a00b9000003b10002004000700c980008
:100bc0008904e8001901fb0000fd2f00020040002d
:100bd000e90f5000f3ff3600e0c2b300994f100058
:100be000030032000080eb00500c98001a00370020
:100bf000a0c2b300d94f100007003a008f889700b9
:100c00000180e900808f9f0010007800500c980050
:100c10008904e800100037000000eb00500c980039
:100c200008003700580890008c0f50000400320074
:100c30006a00b9000003b10002004000500c9800a7
:100c40008904e8001901fb0000fd2f0002004000ac
:100c5000e90f5000f3ff3600194578008a00fb00c9
:100c6000c0b520001d090700e00f5000020032004f
:100c70008904e80001003700004578002a649800e4
:100c800080c6b300804f550004003a00994f15000c
:100c90000a003a006640500006003700c0c6b300a4
:100ca000804f550005003a00994f150003003a00a7
:100cb00065404000206498008904e8001901fb00a9
:100cc00063fb2f008f81410001f92f008f804000ce
:100cd0000800780011000700e00f500008003a00fb
:100ce00061fb2f008f80400008007800910a070008
:100cf000e00f5000020035008904e80063ff370070
:100d00000080eb004f0778004f06be004f05be0085
:100d10004f04be004f06b10000000600881f780097
:100d20000102780082407800e2c6b30082cf500012
:100d3000c200320010003c006b41510082cf5000d5
:100d40001800320005003c0052c2b30082cf5000b0
:100d5000ff00320082c5b3000f00370042c6b30067
:100d600082cf5000170032006541410082cf500011
:100d7000fa003a001300370002c7b30082cf5000d8
:100d8000e50032005c0035006541410082cf500033
:100d9000590032006341410082cf5000ef003a0019
:100da000550037001481e900020a7800f000900035
:100db0001241780082f178008100e800710098000b
:100dc000ee00370020619000c5c6b300854f51008a
:100dd00009003a009402780064815200020a780007
:100de0001202be00120190004f91de000203780053
:100df000820378001200370015c7b300854f5100f9
:100e000003003200a5c6b300854f510006003a002a
:100e10009402780068815200020a78003202be0013
:100e20002203be00060037001481e900020a7800a0
:100e300012027800cfa2de00050378008603780056
:100e40000498be000690be002061900088c6b300e2
:100e5000884f51000e00320028c6b300884f510061
:100e600005003a000402fb00cfa2de000503780073
:100e7000860378000900370048c7b300884f510047
:100e80000300320066444400884f510005003a00d8
:100e9000cfa2de0005037800860378000498be0028
:100ea0000690be003002be002003be00700190001c
:100eb000e00f5200e08f5a00e00f5b00e08f5b0014
:100ec00002003d00d4c2b3000800370000129000b9
:100ed000e202620002003200b4c2b3000300370035
:100ee000610262005100320004c2b30084717900d3
:100ef0000201e8004c00370020619000c5c6b30035
:100f0000854f510007003a00940278006481520036
:100f1000020a78001202be000003eb00860378008c
:100f20001200370015c7b300854f5100030032008f
:100f3000a5c6b300854f510006003a009402780020
:100f400068815200020a78003202be002203be000d
:100f5000060037001481e900020a780012027800c6
:100f60000500200006002000070020000498be00b5
:100f70000690be002061900088c6b300884f5100e3
:100f80000e00320028c6b300884f510005003a0019
:100f90000482fb000500200006002000070020005e
:100fa0000900370048c7b300884f510003003200e2
:100fb00066444400884f510005003a0005002000b7
:100fc00006002000070020000498be000690be0026
:100fd0000011900068016100140032003002be0070
:100fe0002003be00e00f5200e08f5a00e00f5b00cc
:100ff000e08f5b000d00320082c7b30082cf50004b
:101000000300320082c5b30082cf500007003a00cf
:101010007002900002c3b30082717a000401e800fc
:10102000817179000481e8007200980070019000dd
:10103000828141006300980043003700a060900067
:10104000c3c6b3001481e90083cf500026003200ec
:101050000a003c00e4c1510083cf50001f00320061
:1010600083c1e80083cf500013003200e8c1510073
:1010700083cf500022003a000a00370043c7b30074
:1010800083cf500015003200e6c1410083cf5000ed
:1010900012003200e9c1510083cf500018003a001d
:1010a00005003700020a780092007800405890004e
:1010b0008048780031003700020a78001202780078
:1010c00060089000cf80de00010178008201780086
:1010d000009abe000292be0028003700020a780083
:1010e0009200780009003700020a780012017800a7
:1010f00060089000cf80de000089be001f0037002e
:101100009480e900010a780091007800600890005e
:1011100080087800190037009480e900010a7800ff
:1011200011027800cfa2de00050378008603780064
:101130000498be000690be00f0009000818141003e
:101140006300980081c7b300340807000b00370024
:1011500070019000817179000600370070019000e5
:1011600082814100e0cf500001003a0051c2b3003b
:10117000814978000201e800720098000000eb004d
:101180004f047800000006000000df0000000600a9
:101190000080cf00000006002200f8002400f800c4
:1011a0002600f8000100b8000000e9004400f80043
:1011b000010f200021028800820078003800f8002a
:1011c0003a00f8003c00f8003e00f8004000f8004b
:1011d0000080080004000000b30278000500ca0087
:1011e000b40278000500c9003200cc004000f900cc
:1011f0003e00f9003c00f9003a00f9003800f9001f
:10120000010078004400f9002600f9002400f900ec
:101210002200f900000006002200f8002400f80077
:101220002600f800889fbe008a9fbe008c9fbe00eb
:101230004400f8000d0f20002d028800830678007e
:101240000106e9008205e9008180400002014100b9
:101250000000e90024003500050578003800f8009a
:101260003a00f8003c00f8003e00f8004000f800aa
:101270000b80080014000000040478008a04780041
:101280001201c3003800f8003a00f8003c00f800f2
:101290003e00f8004000f8000c8008000300000049
:1012a00038037800990378001201c6008284440054
:1012b0004000f9003e00f9003c00f9003a00f90056
:1012c0003800f9003300cd000a85e8004000f9003d
:1012d0003e00f9003c00f9003a00f9003800f9003e
:1012e00001024200daff37000d0078004400f900e7
:1012f0004f06be004f05be004f04be002600f90099
:101300002400f9002200f900000006002200f80085
:101310002400f8002600f8004400f800050f200023
:10132000250288000100b8000000e9008200780072
:101330003800f8003a00f8003c00f8003e00f800e1
:101340004000f8000080080002000000b3027800ae
:101350001301c0003200cd004000f9003e00f9004a
:101360003c00f9003a00f9003800f900010078006b
:101370004400f9002600f9002400f9002200f900d9
:10138000000006002200f8002400f8002600f80003
:101390002800f8002a00f8002c00f8000100b8002e
:1013a0000000e9004400f800010f2000210288003d
:1013b000820078003800f8003a00f8003c00f8009d
:1013c0003e00f8004000f800008008000500000022
:1013d000b30278000500ca00b40278000580ca0094
:1013e0000030cb003200cc004000f9003e00f90094
:1013f0003c00f9003a00f9003800f90001007800db
:101400004400f9002c00f9002a00f9002800f90036
:101410002600f9002400f9002200f900000006006f
:10142000820278000000e9000102e90081804000aa
:101430003800f8003a00f8003c00f8003e00f800e0
:101440004000f8000480080011000000030278004a
:101450003800f8003a00f8003c00f8003e00f800c0
:101460004000f80000800800010000001419780016
:10147000010242004000f9003e00f9003c00f90082
:101480003a00f9003800f900000000008381e8000c
:10149000000000004000f9003e00f9003c00f900a7
:1014a0003a00f9003800f900050078000000060055
:1014b0002200f8002400f8002600f8004400f8009c
:1014c000040f200024028800010278000000e900d7
:1014d0003800f8003a00f8003c00f8003e00f80040
:1014e0004000f8000080080004000000b20278000c
:1014f0000500ca00b30278000500c9003100cc0025
:101500004000f9003e00f9003c00f9003a00f90003
:101510003800f900040078004400f9002600f900c2
:101520002400f9002200f900000006002200f80063
:101530002400f8002600f800889fbe008a1f78006b
:101540004400f800070f200027028800821f78005f
:101550008103e9000005eb003800f8003a00f800cc
:101560003c00f8003e00f8004000f800078008004a
:101570001400000003047800840478001201c30002
:101580003800f8003a00f8003c00f8003e00f8008f
:101590004000f8000a80080002000000b80278004d
:1015a000290378001201c4004000f9003e00f90050
:1015b0003c00f9003a00f9003800f9003200cd0093
:1015c0000482e8000a05e8004000f9003e00f90046
:1015d0003c00f9003a00f9003800f9000482e90003
:1015e0008381e80001055000210034000a05e9006c
:1015f0003800f8003a00f8003c00f8003e00f8001f
:101600004000f8000a80080013000000030478007e
:10161000840478001201c3003800f8003a00f80092
:101620003c00f8003e00f8004000f8000780080089
:1016300002000000b8027800290378001201c400fb
:101640004000f9003e00f9003c00f9003a00f900c2
:101650003800f9003200cd008381e8004000f90035
:101660003e00f9003c00f9003a00f9003800f900aa
:101670008703e900210035003800f8003a00f8003f
:101680003c00f8003e00f8004000f8000780080029
:101690001400000003047800840478001201c300e1
:1016a0003800f8003a00f8003c00f8003e00f8006e
:1016b0004000f8000780080002000000b80278002f
:1016c000290378001201c4004000f9003e00f9002f
:1016d0003c00f9003a00f9003800f9003200cd0072
:1016e0008381e8008703e9004000f9003e00f9002b
:1016f0003c00f9003a00f9003800f9004f0078008a
:101700004400f9004f0578004f04be002600f900a0
:101710002400f9002200f900000006003600f8005d
:10172000810178000000e90000800900b21878000b
:10173000030078003600f9000000060084037800fa
:101740008102e9008502d000050342008102d10038
:101750008502e9003800f8003a00f8003c00f80083
:101760003e00f8004000f80005800800020000007c
:101770009602780017137800851b78004000f90066
:101780003e00f9003c00f9003a00f9003800f90089
:10179000960a020000000000000006002200f80087
:1017a0002400f8002600f8004400f800040f200090
:1017b000240288000000e9001201c3003800f8008c
:1017c0003a00f8003c00f8003e00f8004000f80045
:1017d000008008000200000031027800b2027800a8
:1017e0001201c0004000f9003e00f9003c00f90081
:1017f0003a00f9003800f9000000cd004400f9007b
:101800002600f9002400f9002200f900000006007b
:10181000b10278000009eb000002e9000700340083
:10182000b10178000328e10002003c008302780047
:10183000040950000402e900f9ff3c0005007800ab
:1018400000000600b10278000009eb000002e90088
:1018500007003400b10178000328e10002003500e0
:1018600083027800040950000402e900f9ff3c00fb
:1018700005007800000006002200f8002400f800af
:101880002600f8004400f800040f2000240288001d
:10189000811f78000000e9003800f8003a00f800e5
:1018a0003c00f8003e00f8004000f800008008000e
:1018b0000300000032027800b30278001301c00078
:1018c0003100cd004000f9003e00f9003c00f90075
:1018d0003a00f9003800f9004f0078004400f900a0
:1018e0002600f9002400f9002200f900000006009b
:1018f0002200f8002400f8002600f8004400f80058
:10190000030f200023028800810178000000e90015
:10191000040028001201c3003800f8003a00f80063
:101920003c00f8003e00f8004000f800008008008d
:1019300003000000b20278001201c0003100cc00a8
:101940001201c3004000f9003e00f9003c00f9001c
:101950003a00f9003800f900030078004400f9006b
:101960002600f9002400f9002200f900000006001a
:101970002200f8002400f8002600f8004400f800d7
:10198000020f2000220288000000e9001201c300bb
:101990003800f8003a00f8003c00f8003e00f8007b
:1019a0004000f800008008000100000031027800cb
:1019b0001001f0004000f9003e00f9003c00f90081
:1019c0003a00f9003800f9000000cd004400f900a9
:1019d0002600f9002400f9002200f90000000600aa
:1019e0002200f8002400f8002600f8004400f80067
:1019f000040f200024028800811f78000000e90005
:101a0000030278003800f8003a00f8003c00f800c3
:101a10003e00f8004000f8000080080002000000ce
:101a2000b20278001301c0003100cd004000f9007f
:101a30003e00f9003c00f9003a00f9003800f900d6
:101a40004f0078004400f9002600f9002400f90056
:101a50002200f900000006002200f8002400f8002f
:101a60002600f8002800f8002a00f8002c00f800f2
:101a70004400f800040f20002402880001027800ce
:101a80000000e9003800f8003a00f8003c00f800d7
:101a90003e00f8004000f80000800800050000004b
:101aa000b20278000500ca00b30278000580ca00bf
:101ab0000030cb003100cc004000f9003e00f900be
:101ac0003c00f9003a00f9003800f9000400780001
:101ad0004400f9002c00f9002a00f9002800f90060
:101ae0002600f9002400f9002200f9000000060099
:101af0003600f800020378000002d0008102e900fd
:101b000082007800030178008e0b020000000000c4
:101b10000400400001002000058009000118780041
:101b2000060078003600f900000006009820a900a1
:101b300061e2a9008820a900000006008820a90011
:101b4000670160004411dd00a3058000f1f82f005b
:101b50008180610082807000a105880068006000bb
:101b60004300de006100600080004000c00480008f
:101b70000010a10001007000c004880000000600f1
:101b8000101388002113880002138800000006004b
:101b900003f0a200889fbe008a9fbe008c1f7800c1
:101ba000fe000700050133006450e1004f003200e1
:101bb0006420e1005200320003826c0007003b0009
:101bc0000905d0000306d000820f54000c065d000a
:101bd0000200390002003200890178000306780013
:101be0008582550004003d000003fd008103fd00d7
:101bf0008502ea008b854200840f720002003b00e0
:101c000060001000e08018006011b8000005eb00d3
:101c10007a28e1000a00390006007800c75ddd007f
:101c2000f707b200878075002d00370082817100b0
:101c30000a017800610560008180d1000080d30036
:101c40008502e900f9ff3b00060440008784480054
:101c500002003b0060041400e0841c000988a3001b
:101c6000070032008a817100828171006101640085
:101c70008904d1000884d3008b05e80017003700e1
:101c80000978a30013003a000b00e00013003400b1
:101c90008b05e9000804440089844c000a44740060
:101ca0000978a3000d003a000b00e00007003400a3
:101cb0008b05e9000804440089844c0001003a00c7
:101cc0000b0020000978a300f7ff32000001eb00b1
:101cd00002003700828171000a0178008900070044
:101ce0000cf0a70001f0a000bd0037006420e10067
:101cf00002003a00838f6c00bd0033000801be0073
:101d00000200be00b6003700889fbe008a9fbe005a
:101d10008c1f7800a1000700a800330003866c0028
:101d20006450e1002e0032006420e10033003200f4
:101d30006150e1002f0032006120e10031003200eb
:101d400085855500eb07b00009002000080420003d
:101d5000050037000804440089844c000a00310063
:101d60000603430087834b000001530081815b0021
:101d7000f8ff33000203be000800a000080444007e
:101d800089844c00f6ff3900c639dd0083017300f9
:101d900001003200130020008904d1000884d30020
:101da0000998a300050032000800a7000300a00066
:101db0008904d1000884d3008b05e8008904d10090
:101dc0000884d3000001eb000281d2004d0007001f
:101dd00001f0a1000cf0a70001f0a0008000370086
:101de0006420e100820032000801be000200be0053
:101df000f7ff37006120e1007d0032006000b8008d
:101e0000f3ff37000000200001f82700f0ff370043
:101e1000839f68000100e00002003d0060001000a8
:101e2000e08018000300e00002003d0060011100a6
:101e3000e0811900cc0107004f00e00002003b00e8
:101e400060001000e080180000000600881f780085
:101e5000010478000100e00005003d006000100072
:101e6000e080180002003b0001f02c000300370066
:101e70000400070008f0a70001f0a0004f0478005c
:101e800000000600889fbe008a9fbe000105780002
:101e90000000e000180032000004be006011b8002d
:101ea0006b0920000982cf00020039000882cf00b0
:101eb0000441b000694252000e00320008003b00ad
:101ec00082817100610164008904d1000884d3001b
:101ed0008b05e8000442e800f9ff3a0005003700ee
:101ee0000804440089844c008b05e9000442e900a1
:101ef000fbff3a00030007004f05be004f04be0081
:101f00000000060081002000618055000b003d00ac
:101f10000b00200061fe2f000100e1001d003400d5
:101f200082817100610164008904d1000884d300ba
:101f30000000e800faff3a00710020006100640030
:101f400003007000020060000900320061044400d8
:101f5000e0844c000988a500050032008b05e800ec
:101f60006808e10002003a008904d1000884d30027
:101f7000f20f20000258e10005003d00c75ddd00c2
:101f8000f907b2008980750008007800000006009b
:101f90000bf827008b007800000005000004be004d
:101fa000390307000003be000405be000200be00a6
:101fb00035030700844f7500000006000200be00d4
:101fc0006450e100050036006420e10002003600a4
:101fd0000968a30001003a000800be000160a000eb
:101fe0004f0678004f05be004f04be0000000600fb
:101ff000f0ff2f00f1ff2700f9ff3700811f780065
:102000000100e00002003d0060001000e0801800c8
:102010000300e00002003d0060011100e0811900b2
:10202000610107004f00e00002003b00600010006b
:10203000e080180000000600889fbe008a9fbe0056
:102040008c1f7800d5ff0700dcff330003866c008f
:102050006450e100240032006420e10027003200d7
:102060006150e100220032006120e10021003200d5
:102070008b854200eb07b1000134b800003ab8008c
:102080000804420089844a00013ab8000030b800d0
:102090008880400009014a0004003300000040002d
:1020a00081804800020149008b05e900c909dd0073
:1020b000830170000100320013002000c814de000c
:1020c0004814dd004709de001200b200c808de0037
:1020d000088470008bff070001f0a1000cf0a7003e
:1020e00001f0a000beff37006120e100c0ff320018
:1020f0000801be000200be00f7ff37006150e1009a
:10210000fcff3a00baff37000c00fa00889fbe00bf
:102110008a9fbe008c9fbe00a0ff07000206be0083
:10212000840578000200be00020020008a02070039
:1021300005003a008b02b30012002000860207005f
:1021400001003a00f8856d000c01be00c6000700d2
:102150000800be009b0032000b08a3009e003a005e
:102160000df0a7000be0a00009f0a7000bf0a00005
:1021700009f0a1000801be00bb0007000bf0a6009b
:102180009500320001003c000bd0a0008acf750002
:10219000b20033006000b8006250e10099003900dd
:1021a000a1003e000b28a300a2003a000bf8a300f8
:1021b000060032000b58a300a70032000801be0041
:1021c000a90007000800be00940032000800be000d
:1021d000f20107000004be00050578000bf0a7001f
:1021e0000b30a6000bf0a1005b079800324f2000d7
:1021f00053f323007f02070005003d000800be00e6
:1022000012002000b50207000004be000a05e90024
:102210004a0798006150b9000cff0700008fbe000c
:102220000c01be0084ff070076020700300798000b
:102230000100e00002003d0060001000e080180096
:10224000f2ff2700820f5000e08f580064003e002c
:102250000c00be006b02070020079800f207200068
:10226000820f5000e08f580005003c0012f82f004c
:10227000f3ff2f00820f5000838f580009003d00ac
:102280000a00e0000300320001003c000201ea0005
:10229000020578006000b800200798003a0798000f
:1022a000190037003e0090006100b900e7fe07000a
:1022b000809fbe000c00be004109dd004811de0019
:1022c0007208b100240207000005be001e01be0016
:1022d00059ff07004f01be002dfe0700809fbe0082
:1022e0000c00be000a01be0029fe07001e01be0050
:1022f00051ff07004f01be0026fe07008221270084
:1023000013f323004cff07000005be002e009000d1
:102310006100b900cdfe070001f0a2000c01be0073
:102320001cfe07000006be000800be008d0207006c
:102330000c01be0040ff07000a01be0015fe0700a9
:10234000809fbe004a0007002e0590000af0a700fb
:102350000a05ea00050037000800be000801be00bb
:1023600035ff07000004be000c00be000801be00df
:102370000a00a70030ff07000006be000a05d100d2
:10238000f5ff3a005e01900002e0a600030037006e
:102390000001be00360007005bfe07000004be001f
:1023a0004f00be008a0107000801be0022ff07009f
:1023b0003e01900049020700de0590000bf0a700e7
:1023c00001f0a2004f06be004f05be004f04be0044
:1023d0000080fa000000060025000700f9ff370022
:1023e000270007006000b8000bd0a7000bc0a000ba
:1023f0000be0a7000bc0a2000bc0a70001f827004c
:10240000f0ff37000df8a300020032001e000700a5
:10241000190007000bf8a300eaff32000b30a700f9
:1024200001f0a200e7ff37000df8a300f9ff3a0022
:10243000f7ff37000801be000b000700e6ff32007f
:1024400001003c000df0a2006000b8000df0a700f4
:1024500009000700dbff37000b000700f1ff270032
:10246000f0ff2f00d7ff370001000700e101370020
:1024700001f823000000050001f827000000050016
:102480002002200001003700100220004040880098
:1024900000000600889fbe008a9fbe008c1f780047
:1024a0000004be00f80107000478a30026003a00eb
:1024b0006120e1002500320009f8a30025003a0060
:1024c0006420e10021003200f507b1000508a300f7
:1024d0000200320000004000818048006044b800e3
:1024e000031020000200200000004000818048000e
:1024f0000805440089854c000a0541008b85490088
:102500000a0550008b855800030033000a00be0006
:1025100002047400838474008301d1000281d3001b
:10252000830f7100f0ff3a008904d1000884d300c2
:102530006001490082017800c1adde00fb07b000f8
:1025400070fe0700a6fe37000960a0000800be006c
:10255000a3fe37001202200042408800f0ff2f0047
:10256000f1ff27009efe37006022b800060220001f
:102570000000d0008180d2000482d2008582d20087
:102580000000a0000202520083825a0003003100c2
:102590000202420083824a000000a1000603e90013
:1025a000f3ff3a0000000600efff07000400be0042
:1025b00000000600889fbe008a9fbe003004be0057
:1025c0002005be000404440085844c0006054d002f
:1025d00087854d000898be000a90be000440e100c7
:1025e00005c8e10006d0e10007d8e1000200310093
:1025f000680040001008e8004f05be004f04be0010
:1026000000000600889fbe008a9fbe008c1f7800d5
:10261000000678003c04be002c05be0004005400f7
:1026200085805c0006015d0087815d00009ebe0024
:10263000029ebe00100020000440e10005c8e10039
:1026400006d0e10007d8e100010039000000eb00ee
:102650001c0e10004f0678004f05be004f04be0050
:10266000000006001200fa00889fbe008a9fbe008c
:102670008c9fbe000205be000004be00e4b79f00b0
:10268000f5b79f0086bf9f0097bf9f000000eb003b
:10269000d0b79f00c0b79f00b0b79f00a0b79f0002
:1026a00090b79f0000067800fd032000dfb197007f
:1026b0004fb0970003814100bfb09700e08f5100f9
:1026c00004003d00290007007e805700b9ff070085
:1026d00003003700250007007e805700c9ff070070
:1026e000dfb09700e08f5000070035001400200095
:1026f000050020006033b80008047200898472006d
:102700000a0573008b8573000c06e8008d0f5600d8
:10271000e6ff3400e08f500006003d006fb29700e6
:10272000ffb297000fbb97009fbb97007e805700ba
:10273000a0ff07005fa89700e00f500004003a00d8
:102740001fb49700afb497003fb59700cfb597007f
:102750000800be000a01be004f06be004f05be00c5
:102760004f04be000080fa0000000600cf01de002a
:1027700002817100b2b79f004f09de0000004000e7
:1027800000007100a0b79f000fb097004f01de005e
:10279000818040008100710091b79f007faa97005f
:1027a000cf20de00000040000080700080b79f0056
:1027b0000800be000a01be004f18de0004024200fd
:1027c00000027200f4af9f000804440089844c00aa
:1027d0000a054d008b854d004fb29700dfb2970080
:1027e0006fb39700ffb3970000000600881f7800c2
:1027f00018002000881f78009aff07008f87e900e3
:102800004f04780000000600801feb0095ff0700d2
:102810008f87e90000000600889fbe008a9fbe00e7
:102820008c1f7800e00f5000e08f5800e00f590037
:10283000e08f59000f003d006044b8006055b800bb
:102840000000540081805c0002015d0083815d0016
:102850001c0020000820e10009a8e1000ab0e10006
:102860000bb8e1000d003d00190007000006eb0069
:102870000a0037000006eb00e00f5200e08f5a001c
:10288000e00f5b00e08f5b0004003d006044b80097
:102890006055b8000e0007001c002000d3ff0700a1
:1028a000e00f5600060032006022b8006033b80026
:1028b0000000520081805a0002015b0083815b00ae
:1028c0004f0678004f05be004f04be000000060012
:1028d0000402540085825c0006035d0087835d006e
:1028e00000000600889fbe008a9fbe008c1f7800f3
:1028f000e00f5000e08f5800e00f5900e08f5900c2
:102900000d003d006044b8006055b8000000540060
:1029100081805c0002015d0083815d001c0020005d
:102920000820e10009a8e1000ab0e1000bb8e100cd
:102930000d003d00080037000006eb00e00f5200dc
:10294000e08f5a00e00f5b00e08f5b0006003d0067
:102950006044b8006055b8000402540085825c00f1
:1029600006035d0087835d00a7ff0700e00f5600a8
:10297000060032006022b8006033b8000000520048
:1029800081805a0002015b0083815b004f06780062
:102990004f05be004f04be00000006000003be004d
:1029a000b90007006220e100020032000600be000c
:1029b00005000500e507b100f107b20004f02300af
:1029c0008480700007f0a70001f0a000240005003b
:1029d000889fbe008a9fbe008c9fbe000004be0080
:1029e000a90007000800be006420e10048003e0086
:1029f0005500320072212700132b24007f000700ae
:102a000047003c000800be00c2ec2800e32c2c006c
:102a100078000700470035000800be0001f0a10063
:102a20000200200003382300720007004300350035
:102a30000800be00b2a32a0083fb23007efd07002e
:102a40000200200003f0230001f0a70003f0a00023
:102a500050fc07006b0007000005be00fbfc0700f0
:102a600001f0a2000006be000200280013f32300bc
:102a700071fd07000801be0046fc0700809fbe00f4
:102a80000c00be0032082800e3952b006afd070009
:102a90004f01be003ffc07000006be000001be0063
:102aa00065fd0700809fbe004241250083b82300da
:102ab00061fd07000200200003e8230035fc070049
:102ac0000c01be005cfd07000006be004f00be000a
:102ad000f2f92b00c3d4230057fd070002002000a9
:102ae00003f023002bfc07000c01be0028fc0700ac
:102af0000001be000c00be0083fc070002002000a5
:102b000003f0230023fc0700610145007300070068
:102b10004f06be004f05be004f04be000000060079
:102b200001f8270000002000220220004240880017
:102b3000f7ff37006000b800fbff370001f8230003
:102b400000002000f2ff370009f8a300f0ff320078
:102b50006000b800eeff3700889fbe008a9fbe006d
:102b60000003be00480007008505780082815200fe
:102b7000020020006220e10004003a00f307b100e7
:102b8000040035007718e100040035000600be009f
:102b9000140037006000b8000f003700f50f200068
:102ba000faff2f008502d1000a85d3008301e900d6
:102bb000fcff3b008184620000046500890f740003
:102bc000f2ff32008582ea000a85ea008184620011
:102bd00000046500cbfc070007f0a70001f0a0008f
:102be0000081eb000200e0004f05be004f04be0074
:102bf0000000060014002000b1003700f4ff2f0091
:102c0000af0037000001be001f0007000470a700de
:102c100003f0a1006509b100160032000d00350077
:102c20006828e10006003500f0ff2f00f1ff2700c3
:102c30000300e00013003b00010028000000050035
:102c400000004000818048008502e900fcff3a0056
:102c500008003700f88f420002003c008000eb00c3
:102c6000000005008100d1000080d3008502e8004b
:102c7000fcff3a000300e00002003b00600010008f
:102c8000e080180000000600c70ade00f107b2006d
:102c9000f50fb20008003200e1cf4200020032001e
:102ca0000170a00024000500810f700001003200b7
:102cb0000408050044000500810f700002003a007e
:102cc000140005008502e9000000400081c04800b2
:102cd000fcff3b000170a000240005000003be00c3
:102ce000e9ff07006220e100020032000600be009a
:102cf0000000060085024100e30f20000328e100e8
:102d000005003c00a3fe2f000328e10007003d0062
:102d10000500200001003700f50f200020022000f0
:102d2000404088006000b800080037001300200011
:102d30008381520005003d008100d1000080d30056
:102d40008301e800fcff3a0005002000c72add00ef
:102d5000f107b2008580700007f0a70001f0a00025
:102d600000000600889fbe008a9fbe008c9fbe00a8
:102d70000aff0700850478000005be006420e1001a
:102d800049003e006220e1000300320009003500e6
:102d90000bf8a300440032000bf8a3000800320037
:102da0001002200040408800f0ff2f00f1ff2700b4
:102db0003d00370001f82f00000020003a003700e6
:102dc0003d00070072fb07000006be000a00be00bf
:102dd000324f200053f3230088ff07000600340021
:102de0000c00be003400070069fb07000006be00af
:102df0000a00be00020037008904e9000c00be0092
:102e00002d0007008cfc07002b00070061fb07006a
:102e10000001be000c00be00bbfb07000005be00a9
:102e20000001be0084fc07000006be00a2f32300e0
:102e3000430d2c0057fb0700809fbe000c00be0016
:102e4000d2e32700d3f02b007bfc07004f01be002c
:102e5000adfb07000006be000a01be0076fc0700bd
:102e60000a01be004bfb07000006be006148b90026
:102e7000f6fb07000005be0032082800e3952b0092
:102e80006dfc07000c01be0042fb07000006be00ff
:102e90000a00be000200280013f3230066fc0700ae
:102ea0000c01be003bfb07004f06be004f05be00f5
:102eb0004f04be000000060003f0230002000500de
:102ec000889fbe008a9fbe00841f780033fc0700e5
:102ed0004f00780011003300f0ff2f00838f6c004b
:102ee00006003b00040565000a00a7000800370043
:102ef00009f0a6001000200008003700820f5400df
:102f0000838f5c00030039001000200001003e00a8
:102f10000000200009f0a7000000ea004f05be00f5
:102f20004f04be000000e0000000060080007800b2
:102f3000010037008100e8000041eb00914f1100d3
:102f4000fcff3a000080500000000600889fbe0091
:102f50008a9fbe008c9fbe008e1f7800810678007d
:102f6000030478000d95b9000a077800e00f5500ba
:102f700043003200e08f5600420032000006780025
:102f8000c800900068009000808f50000400390055
:102f9000080078005a000700e00f500026003500b6
:102fa00000402000980560000a0032000a01780005
:102fb000a10020000c007800380007008005780090
:102fc000e08f550003003200e104160089844500bb
:102fd000010037008a04780048009000e800900063
:102fe00080805000898f50000200310081047800f9
:102ff0008005eb00090178008c00780030000700a4
:103000000905550048009000090040004004980060
:10301000e08f55000400320008007800e00207004d
:10302000e00f500004003a00e00f550002003200ab
:1030300009064600d2ff370000802000180060001b
:103040000200320008007800d502070000c020000e
:1030500018006000020032004800900060049800f0
:103060000a05570000017800811f7800110009004f
:103070000d85d8000001fd00cf0078000100370069
:103080000a017800020078004f0778004f06be0062
:103090004f05be004f04be000000060004003700cc
:1030a00090cf1000050032000000e8000201e900a6
:1030b000e00f5100faff3a0002007800000006001d
:1030c0008001780002003700b15978000201e90060
:1030d000e00f5100fcff3a0000000600030037003b
:1030e000e04f5100050032000000e8001041780078
:1030f000814f5100faff3a00000006000000050071
:10310000889fbe008a1f780000047800c8009000e5
:10311000680190000000eb00828f50003c003900f5
:10312000180078002200290002016000e20f51001f
:103130000700320001202400e00f500001003d0094
:1031400001202000008c70000080eb003000370070
:103150000200260002006000820f500009003a00c1
:1031600038009000808f5000060039000800780079
:103170008b020700800078000080eb00e08f500099
:1031800023003a001805780000c020000000650008
:1031900018003a00a80490006002200008004000d7
:1031a000808f540013003a00002020002d030700f8
:1031b00020049800e00f500005003a002904980010
:1031c000490498008904e800390498000800370091
:1031d0000a60a0000a0c780040049800012020003a
:1031e0008080400031049800400c9800500c9800fa
:1031f0001102070028009000500498003800900049
:103200006004980000002600180c70000000eb001d
:103210004f0578004f04be00000006004f02b000ca
:10322000889fbe008a9fbe008c9fbe008e1f7800c4
:103230000006780080c5b30080cf50000a0032003d
:103240007740400080cf50000a00320069404000c3
:1032500080cf50000b00320030b1200080bf9f00b3
:10326000ae0020000a00370022b0200082bf9f007d
:103270000600370033b1200083bf9f008e0020007e
:103280000300370034b1200084bf9f000e012000ee
:103290003c02be002c03be000605be000404be00b6
:1032a00040c6b30080cf50000300320065404000ac
:1032b00080cf50000b003a00e00f5200e08f5a0020
:1032c000e00f5b00e08f5b0006003d006044b8004b
:1032d0006055b8000404540085845c0006055d0058
:1032e00087855d00e80f570003003200f00f57009c
:1032f0003a003a0002003700300020000100370099
:1033000040002000e00f5400e08f5c00e00f5d0003
:10331000e08f5d0004003a00dc0890008d01200081
:10332000e08f5000060032008e00e90088806000c7
:103330008fba9700e5c07800f1e79f007d0120007b
:10334000800078008100e900050033008b05d10082
:103350000a85d3008984d3000884d300f9ff37009d
:10336000089ebe000a96be008e00e90011003700dc
:103370008d06e900048160008fb9970063447900ed
:1033800003fd2f008f81410088f17e00000178004d
:103390000201e900050033008783d1000683d300d2
:1033a0008582d3000482d300f9ff3700049ebe005b
:1033b0000696be003c02be002c03be00e00f520089
:1033c000e08f5a00e00f5b00e08f5b00a10034004b
:1033d000e08f5600e6ff3c009e003700ac60900096
:1033e00080c6b30080cf50000b00320006003c00c6
:1033f000e0cf5000080032006640500080cf5000ff
:1034000058003a0004003700c0c6b30080cf500017
:1034100054003a002a003700e00f540004003a003c
:103420005c0890008d012000e00f50000700320082
:10343000110009000e84d8008000fd008fb99700ac
:1034400063407800f0e79f007d01200000027800d3
:10345000811f7800110009000e84d8000002fd00d1
:10346000cf0078000c003700110009000e02d800d0
:10347000000178008d06e9000e90b90000005200ae
:103480000fba9700e442780004fd2f000f024200bb
:1034900005f27e0002027800e00f520002003200c6
:1034a000e08f5600f0ff3c00cfa2de00050378005d
:1034b00086037800049ebe000696be0065003700b5
:1034c000e00f5400e08f5c0004003a005c089000bc
:1034d0008d012000e00f5000070032006171b9003b
:1034e0000800be0030fc07000fb997006241780069
:1034f000f2e79f007d0120006175b9000a01be005e
:103500000800be0018fc07000b0037000a01be00cf
:103510000800be003efa07008d06e90000f1b90080
:10352000020154008fb997006342790003fd2f0018
:103530008f81410084f17e000004be00e00f500046
:10354000e08f580002003200e08f5600efff3c0091
:10355000088ebe004fc8de00200698003006980096
:103560003c003700e00f5400e08f5c00e00f5d008e
:10357000e08f5d0004003a005c0890008d0120009f
:10358000e00f50000b0032000e027800cfa2de00e8
:1035900005037800860378000800be000a01be001b
:1035a00099fc07008fba9700e5427800f5e79f0085
:1035b0007d0120000e007800cf80de000101780040
:1035c00082017800c0b79f00d1b79f00e2b79f008b
:1035d000f3b79f000203be000002be000800be0059
:1035e0000a01be0081fc07000f0037004fb29700b0
:1035f000dfb297006fb39700ffb397000800be00db
:103600000a01be0084fc07008d06e90000f2b90043
:10361000040454000fba9700e4427c0004fd2f001c
:103620000f02420005f27e00009ebe000296be0020
:103630003c04be002c05be00e00f5400e08f5c008f
:10364000e00f5d00e08f5d0002003400e08f560067
:10365000e6ff3c00e80f570010003a000c10900005
:10366000680060000d003200f78f560006003e0033
:1036700008fd2f000f044400e8c07e0000c3b30023
:1036800080cf5000050032008d06e90002c3b30070
:1036900001fd2f008f80400082f07e0078811600af
:1036a000120e98006c00900003fd2f008f814100e6
:1036b0008d80410082fe07001c089000dc0890000d
:1036c000810f500006003d0000805000000e980061
:1036d0000c1090000040a100001698000f00370069
:1036e000e08f50000d003d008c109000f4806000d1
:1036f000f08f500009003a007c099000fc00900017
:10370000810051000c099000828050000080500020
:103710004240a90001003400000e98004f077800d5
:103720004f06be004f05be004f04be004f02b10061
:10373000000006000400fa00889fbe008a9fbe00b9
:103740008c1f78000004780001067800f80d9000c6
:10375000780090008085550008089000808555000d
:103760001808900080855500a80c900089855500a8
:10377000b80c900089855500c80c900089855500cb
:103780000002220090bf9f0000032300a0bf9f0003
:10379000081090006400600015003a00e08f5500aa
:1037a000130034000b0578008a047800e20f5500fe
:1037b0000100360029002000c801900009017800ae
:1037c000ee8057005800900003000100500498005c
:1037d000e00f50008c0032006808900009004000a3
:1037e000600c9800090555004240a900eeff3c001e
:1037f00078019000e00f51000c003400c8019000e7
:103800008c007800580090000300010050049800dc
:103810008080eb00e00f50007c003200e808900050
:103820007800900000804000600c9800880c9000a8
:10383000e08f54001100340009057800e28f540035
:10384000010036002a002000c80190000a0178001b
:10385000ec805700580090000300010050049800cd
:10386000e00f500068003200680890000a00400035
:10387000600c98008a845400edff3700180990000e
:10388000e00f51000c003400c8019000e8009000e7
:103890005800900003000100500498008080eb0065
:1038a000e00f500059003200e8089000180890001e
:1038b00000804000600c9800a80c9000e08f54003d
:1038c0001100340009057800e28f54000100360031
:1038d0002a002000c80190000a017800ec805700ff
:1038e000580090000300010050049800e00f5000c1
:1038f00045003200680890000a004000600c980003
:103900008a845400edff370038099000e00f510021
:103910000e003400e80090001808900080804000fd
:10392000c801900058009000030001005004980066
:103930008080eb00e00f500034003200e808900077
:103940003808900000804000600c9800c80c90007f
:10395000e08f54001100340009057800e28f540014
:10396000010036002a002000c80190000a017800fa
:10397000ec805700580090000300010050049800ac
:10398000e00f500020003200680890000a0040005c
:10399000600c98008a845400edff37008810900076
:1039a000e4806000190032008000eb00818f550038
:1039b000160034008b04780009057800e28f54006b
:1039c000010036002a002000c80190000a0178009a
:1039d000ee8057005800900003000100500498004a
:1039e000e00f500008003200680890000a00400014
:1039f000600c98008a8454004240a900eeff3c000d
:103a00008000eb00010037008080eb0001007800af
:103a10004f0678004f05be004f04be000080fa003c
:103a200000000600010878000000060080db21008d
:103a30009a00070000000600881f780068c5200073
:103a40000040eb00984f100003003a00f7ff07001a
:103a500020c0b300004c78004f047800000006003e
:103a6000889fbe0000047800080078004c00070022
:103a7000800478000004200018006000020032007a
:103a800028009000930007000000eb00200498003d
:103a900038409000e04f5000050035000000fb006a
:103aa00026010700e00f5000010032008084eb0087
:103ab00018109000e00f5000080032002a010700a3
:103ac000e00f5000010032008084eb0018109000dd
:103ad000800007000000eb00101498000008200090
:103ae00018006000110032006011b8002488200026
:103af000020041008380490000004200900f140042
:103b000002003a000008eb000500370061014100a7
:103b1000e0814900e70f5100e08f5900f4ff3600c3
:103b2000080078006b0007000e003700000c7800da
:103b300000c0eb0030449800610220008880400003
:103b4000210498004104980051049800410c980009
:103b500061049800510c98007104980076004400ac
:103b6000000c9800090078004f04be000000060019
:103b7000889fbe0078002000298820000800d0001f
:103b800069007800e00f500001003200b4ff070028
:103b90000804e900f9ff3b004f04be0000000600e6
:103ba000889fbe008a1f780000047800e00f540050
:103bb0000e003a00880478002a8820000900d0000e
:103bc0006a007800e00f500004003200f4ff0700a4
:103bd000e00f500001003d000084eb008904e80084
:103be000e78f5400f5ff3400280037000000220062
:103bf0001800600024003200a80490000f00370075
:103c000009015100384090000000fb008900780055
:103c100001f30700e00f500007003c00280090006f
:103c20004004980060049800500c98001890a00080
:103c30000084eb00150037008084440048019000a8
:103c4000828f5400eeff3900280090004004980055
:103c50009800780002c020000281600001003a0054
:103c600038009000020024008280600003003200cf
:103c7000600498000004eb0004003700500c98002a
:103c80000104780001003700000478000800780083
:103c90004f0578004f04be00000006000100200020
:103ca000e08f50000a00320002008000e00f510057
:103cb000070032000201e900020088000300200032
:103cc00002014100838149000100800080307900b9
:103cd00000000600e00f50002f003200c001780005
:103ce000e38f51002c003600e18061002a003a0089
:103cf00091618000e08f500002003200810f50007f
:103d0000040031001100980090618800160037000f
:103d10008200780011019000e00f51000200320093
:103d2000800f5100faff39001102780084824000b0
:103d3000850f500018003900808f520003003a00b0
:103d4000830842000100780007003700e00f5100af
:103d50000300320083014000830f51000e00390040
:103d6000120098009000980090009000e08f5000a2
:103d70000900320010014000828f500006003a0016
:103d800002c320000009eb00100178001108410077
:103d9000910090001100980000000600889fbe006e
:103da0000004780081618000e08f50000200320042
:103db000010078000d0037009161800020c32000d1
:103dc00004003700910f5400240036000180e80001
:103dd00091009000e08f5000faff3a001000370089
:103de000920f54001d0036000280e8001001780098
:103df000e00f5100faff3a00110178009161800054
:103e000020c3200004003700910f54001300360037
:103e10000180e80091009000828f5000faff3a0084
:103e2000a9618000888f5400010031008804780067
:103e30000900780035000700e00f500004003a0048
:103e4000888f5400050032008904d100f5ff370047
:103e5000091878009fff0700d2ff37004f04be000b
:103e600000000600881f780080007800638440000e
:103e70000800a1000000eb00810f54002100360073
:103e8000e30f540001003e004800200008007800c5
:103e9000c2ff0700e00f50001a00320090007800c7
:103ea0009101780064815100880f510003003100b6
:103eb00011019000020878000700370008814000d7
:103ec0000208780091019000130198001001780019
:103ed000110914008808780010007800e00f5000e5
:103ee0000600320010019000e00f51000200320085
:103ef0000080e8000100370002007800806188003f
:103f00000180e8004f04780000000600800078007f
:103f10000000eb00808f50000500340001007800a5
:103f20001a000700e10f400001003a000000eb001a
:103f30000000060000c0da00000006000a00fa00d7
:103f400011002000b1bf9f00c0bf9f006a805700d2
:103f5000f8ff07004fb897000080fa000000060045
:103f600000c0da00000006000a00fa00510020003c
:103f7000b1bf9f00c0bf9f006a805700f8ff0700d5
:103f80005fb897000080fa0000000600889fbe001e
:103f900080047800c0628000e00f500004003a0006
:103fa0000e0007000084eb00e00f50000800350011
:103fb000c8628000e08f5400050032000900440010
:103fc00006000700e00f500001003d000084eb00f8
:103fd000080078004f04be0000000600e00f50000b
:103fe00004003a00a1c52000c1628800800078006a
:103ff000060037008080eb00a2d52000820f500021
:1040000002003e00c06288008000eb0001007800e2
:0440100000000600a6
:020000040000fa
:1040140024500000535200004631000030300000ac
:104024002c3000002c310000393200003030000008
:104034002c3800002c3100002c3000002a33000002
:10404400390d00000a00000086000000004b00004b
:10405400000800000100000000000000090000004a
:10406400d17f0000d07f0000d37f0000d27f00000a
:10407400d97f0000d87f0000ed0a0000ec0a0000a0
:10408400eb0a0000ea0a0000ce7f0000ce7f0000a9
:10409400ce7f0000ce7f0000ce7f0000ce7f0000e8
:1040a400ce7f0000ce7f0000ce7f0000ce7f0000d8
:1040b400ce7f0000ce7f0000e10a0000e00a00008d
:1040c400df0a0000de0a0000e50a0000e40a00003e
:1040d400e30a0000e20a0000ce7f0000ce7f000069
:1040e400ce7f0000ce7f0000e90a0000e80a00004d
:1040f400e70a0000e60a0000ce7f0000d57f00003a
:10410400d47f0000db7f0000da7f0000ce7f000058
:10411400ce7f0000d77f0000d67f0000ce7f000056
:10412400ce7f0000ce7f0000ce7f0000ce7f000057
:10413400ce7f0000ce7f0000ce7f0000ce7f000047
:10414400ce7f0000ce7f0000ce7f0000ce7f000037
:10415400ce7f0000ce7f0000ce7f0000ce7f000027
:10416400ce7f0000ce7f0000ce7f0000ce7f000017
:10417400ce7f0000ce7f0000ce7f0000ce7f000007
:10418400ce7f0000ce7f0000ce7f0000ce7f0000f7
:10419400ce7f0000ce7f0000ce7f0000ce7f0000e7
:1041a400ce7f0000ce7f0000ce7f0000ce7f0000d7
:1041b400ce7f0000ce7f0000ce7f0000cf7f0000c6
:1041c400ee0a0000ce7f0000dd7f0000dc7f0000ef
:1041d400000000009201000024030000b504000068
:1041e40046060000d607000064090000f10a00003a
:1041f4007c0c0000060e00008d0f00001211000060
:104204009412000013140000901500000917000018
:104214007e180000ef1900005d1b0000c61c0000a2
:104224002b1e00008c1f0000e72000003d22000030
:104234008e230000da2400002026000060270000fe
:104244009a280000ce290000fb2a0000212c00003f
:10425400412d00005a2e00006c2f00007630000023
:1042640079310000743200006833000053340000d8
:104274003735000012360000e5360000b037000084
:10428400713800002b390000db390000823a00004d
:10429400213b0000b63b0000423c0000c53c00004e
:1042a4003f3d0000af3d0000153e0000723e00009f
:1042b400c53e00000f3f00004f3f0000853f000057
:1042c400b13f0000d43f0000ec3f0000fb3f000082
:1042d4000040000025300000367500002061000019
:1042e400787900007a20000025300000366900004b
:1042f4002025000030360000692000002530000031
:104304003669000020670000787900007a200000f8
:1043140025300000366900002025000030360000fa
:104324006920000025300000366900002074000078
:1043340020250000750d00000a000000256900001a
:104344002c200000256900002c20000025690000b5
:104354002c200000256900002c20000025690000a5
:104364002c200000256900002c2000002569000095
:104374000d0a0000000000001f1c00001f1e0000aa
:104384001f1e00001f1f00001e1f00001e1f000034
:020000040000fa
:104394000400fa00204798002e4090000000fb0023
:1043a400000f78001e007800e00f50001100350067
:1043b400000420009e007800808f50000700340025
:1043c400000820001e00500080004000a00e2a00bb
:1043d4000080400010007800190037001e007800ab
:1043e40080004000a00e2a000080400010007800e9
:1043f400130037001e0fea00000420009e0078001e
:10440400808f500008003400000820001e00500077
:1044140080004000a00e2a000080400010007800b8
:104424000000ea00060037001e007800800040000b
:10443400a00e2a0000804000100078000000ea006e
:104444000080fa00000006000600fa00881f7800c9
:104454002007980000c2b3003047980000c4b3009e
:10446400004f780000c2b300104798002e0090005f
:10447400e00f50000300340010c0b3002047980040
:104484000500370000c0eb00204798002e00900084
:104494000000ea0020079800ae009000000024000d
:1044a400808f50002a003a002e40900061002000c6
:1044b4000100dd00310037001e00fb000080d10048
:1044c400304798003e409000b1ff0700ae009000d6
:1044d400810f500006003a00ae4090003e4090002c
:1044e4000088b900000078000040780023003700fd
:1044f4003e409000a6ff0700000478003e40900074
:104504000040e900a2ff0700000044008080d100c1
:104514002e009000808f500005003d009e407800e2
:104524001e40900000c04000004f78000400370097
:104534009e4078001e40900000c05000004f78005c
:104544001e4090000000fb000080d100104798003e
:104554001e409000e04f5000d7ff3c001e00fb00bf
:104564000080d10000407800804078002e40900008
:104574000088b90000007800004078004f047800fb
:104584000080fa00000006000200fa00004f7800e4
:104594001e4078000044b0007dff07000080fa0050
:1045a400000006000c00fa0040079800510798002c
:1045b4004e009000900078005e009000100078009b
:1045c4000181b9004e0090000080e800900078005e
:1045d4005e0090000080e800100078000180b900bf
:1045e40000015100818159004218dd00ce10de0027
:1045f400810070004210dd00200798003107980008
:104604003e009000000f78004e009000900078006b
:104614005e0090000080e800100078000181b9007d
:104624004e0090000080e800900078005e0090004a
:10463400100078000180b900020140008381480025
:104644004218dd00ce10de00810070004210dd0053
:104654002007980031079800be00900011079800c9
:104664004e0090001e0878004e0090000080e80084
:104674009e009000010878000080fa000000060007
:104684000c00fa00889fbe0040079800510798006c
:104694005e009000100178004e0090001000be00f3
:1046a400600207000004be005e0090000080e80085
:1046b400100178004e009000640040001000be001d
:1046c40058020700001f540001975c005e00900030
:1046d4000080e800100178004e0090001000be0039
:1046e400500207000004be005e0090001001780034
:1046f4004e009000640040001000be004902070014
:10470400080040008980480020079800310798007d
:104714004e0090001e01be000288be004e009000b4
:10472400640040002e019000be0190000288be008b
:104734004f04be000080fa00000006000800fa00e2
:1047440020079800614798006e40900010ff070012
:10475400100798006e4090008bff0700000f780050
:104764008e0078002e0090008eff07000080fa0073
:10477400000006001000fa0060079800614f9800de
:104784006e48900002ff0700000f78006e4890000a
:104794007dff0700100798006e00900090007800dd
:1047a4001e0090000181b9006e00900090009000fe
:1047b4001e0078000180b90000005100818059007a
:1047c4004209dd00ce01de00830171004201dd00fb
:1047d40000002800010020000200400083804800ff
:1047e40040079800510798005e0090002007980049
:1047f4006e009000900078001e0078000181b900de
:104804006e009000900090001e0090000180b9009e
:1048140002004000838048004209dd00ce01de0032
:10482400830171004201dd00000028000100200026
:104834000200400083804800400798005107980018
:10484400de009000310798006e009000ae009000ea
:10485400010878006e009000be00900011009800de
:104864000080fa00000006000800fa0030079800f3
:104874000040eb00004f780000c4b30010479800dc
:1048840070c0b300304798003e009000900078005c
:10489400e00f2000808f50001c003c003e00900080
:1048a4009000780020f02f00808f50001700350012
:1048b4003e00900090009000e00f2000808f500098
:1048c40012003c003e0090009000900020f02f0069
:1048d400808f50000d0035006000200020079800f4
:1048e4003e00900010007800c600dd003e009000fd
:1048f400010878003e00900010009000c600dd0022
:104904003e009000110098001a0037000000eb00f0
:1049140020079800170037001e4090002047980099
:104924003e00900010009000e00f5000030034009f
:104934002e4090000040ea0020479800ae409000ce
:104944003e0090008bff07009e4078002e409000b0
:1049540000c04000004f78001e4090000000fb00a3
:104964000080d100104798003e4090000040e900cc
:10497400304798003e409000e04f5000e6ff3c0076
:104984003e00900010009000e00f50000100340041
:104994001e4fe9003e009000900078002e00900029
:1049a4008088de003e009000010878003e00900000
:1049b400900090002e0090008088de003e00900061
:1049c400110098001e40ea000080fa000000060072
:1049d4000a00fa00400798000040eb0040479800a6
:1049e40000c4b3005047980070c0b30070479800eb
:1049f4004e00900090007800e00f2000808f50005f
:104a04001c003c004e0090009000780020f02f0025
:104a1400808f5000170035004e00900090009000e9
:104a2400e00f2000808f500012003c004e009000e8
:104a34009000900020f02f00808f50000d00350072
:104a440060002000000f78004e00900010007800f5
:104a5400c600dd004e009000010878004e00900072
:104a640010009000c600dd004e0090001100980078
:104a74001a0037000000eb00000f78001700370021
:104a84005e409000604798004e0090001000900037
:104a9400e00f5000030034006e4090000040ea0034
:104aa40060479800ee4090004e00900031ff0700f0
:104ab400ce4090006e40900000c0400040479800f7
:104ac4005e4090000000fb000080d1005047980039
:104ad4007e4090000040e900704798007e409000be
:104ae400e04f5000e6ff3c004e4090000040ea00da
:104af400404798004e4090000000fb004800dd0055
:104b0400100798004e00900010007800e00f50004d
:104b14000d0034004e009000100178004e0090000b
:104b240090009000e08b22000180b900811f780082
:104b3400110009004208d800cf0078009e009000c0
:104b440000804000100798004e009000900078000c
:104b54001e0078008088de004e0090000108780076
:104b64004e009000900090001e0078008088de00c7
:104b74004e009000110098001e0090000080fa0082
:104b8400000006000800fa00300798000000eb005f
:104b9400000f7800f00f200010079800500020004c
:104ba400200798003e009000e00f500007003a00f4
:104bb4000000eb00260037003e0090004200dd00bc
:104bc400300798001e0fe8000100370000000000c5
:104bd400be00900000002c0000806000e00f500038
:104be400f5ff32003e0090000000d100300798002d
:104bf4000f0037002e0090000000e9002007980005
:104c04001e0090008000d1003e0190001e00900024
:104c140080017800811f7800110009000381d80009
:104c240001017800cf007800008040001007980050
:104c34002e009000e00f5000eeff3a001e007800b6
:104c44009e0090000008de00100798001e009000ef
:104c54000080fa00000006000a00fa0030079800fd
:104c6400410798000000eb00000f78000080eb0083
:104c74001007980050002000200798003e01900083
:104c8400ce019000f0ff2f0001002000800f5100a2
:104c9400818f59000d003e003e009000b9ff0700cf
:104ca4003c0037003e019000ce0190004218dd0028
:104cb400ce10de00810070004210dd003007980045
:104cc400410798001e0fe8000100370000000000b3
:104cd4003e019000ce0190000000200001002c0055
:104ce4000202780003017800800178000100780056
:104cf400030262000000610001002000c000dd002a
:104d0400000020000001be006120b8000001710015
:104d140081817100e00f5100e08f5900e1ff320002
:104d24003e009000ce0090008100d1000080d300ae
:104d340030079800410798000e0037002e009000bd
:104d44000000e900200798001e0090000001d10037
:104d54003e009000ce0090009e019000811f7800dc
:104d6400110009004388d800cf00780000004100fa
:104d7400100798002e009000e00f5000efff3a005b
:104d84001e0078009e0090000008de0010079800c6
:104d94001e0090000080fa00000006000800fa00df
:104da40020079800310798002e009000ae00900074
:104db4000181b9003e009000be0090000180b9005e
:104dc4000200400083804800008fbe001e00be0029
:104dd400a1ff07000080fa00000006000a00fa00a4
:104de4002007980031079800420798002e00900091
:104df400ae0090000181b9003e009000be0090001a
:104e04000180b90002014000838148004e009000f7
:104e1400ce0090000180b900020040008380480069
:104e2400008fbe001e00be008bff07000080fa004a
:104e3400000006000800fa002007980031079800d7
:104e44003e0090000080e800900078003e00900052
:104e540010007800d1ff0700000f78001e007800d2
:104e64000000d100100798001e009000e00f5000d1
:104e74001a0032001e0190003e009000900078005d
:104e8400000022000180b900801f78001100090091
:104e94004208d800800078004f0078002e0090006f
:104ea400010878002e0090000081e8009e01900027
:104eb4003e0090000080e80090007800000022008e
:104ec4000180b900811f7800110009004308d8004f
:104ed400cf00780000097800070037002e0090000a
:104ee4000080e8008000eb00010878009000780062
:104ef4002e009000010878001e0078000080fa005f
:104f0400000006000800fa00200798003107980006
:104f14003e00900064004000100178003e009000c4
:104f24000080e800900078003e00900010007800b7
:104f3400aaff0700000f78001e0078000000d100cf
:104f4400100798001e009000e00f50002700320068
:104f54001e0190003e0090009000780000002200a6
:104f64000180b900801f7800110009004208d800b0
:104f7400800078004f0078002e009000010878002f
:104f84002e0090000081e8009e0190003e009000f9
:104f94000080e80090007800000022000180b90041
:104fa400811f7800110009004308d800cf00780061
:104fb400000978002e009000640140009e019000da
:104fc4003e00900064004000900078000000220041
:104fd4000180b900811f7800110009004308d8003e
:104fe400cf007800000978000b0037002e009000f5
:104ff4000080e800ae009000e48040000001eb0077
:105004008208780091007800010878009000780008
:105014002e009000010878001e0078000080fa003d
:10502400000006001400fa0070079800010f9800b1
:10503400120f980010c0b300004f78007e0090005b
:105044008e08900050079800610798006e00900049
:10505400e00f500007003d001e4fea005e00900084
:10506400ee00900060001000e080180050079800e7
:10507400610798001e089000e00f500004003d00f6
:105084001e4fea001e0890000000ea00100f98006e
:105094006e009000800078001e0890000100b800a7
:1050a40010079800210798001e019000ae0190009f
:1050b4004218dd00ce10de00810070004210dd00d9
:1050c40010079800210798005e0090008000780087
:1050d4001e0890000100b8003007980041079800ae
:1050e4003e019000ce0190004218dd00ce10de009b
:1050f400810070004210dd003007980041079800dd
:105104004e009000300798000000eb004007980024
:105114003e009000ce0090001e019000ae01900071
:10512400020040008380480010079800210798007f
:105134001e407800e04f5000030034001e00900031
:10514400ae009000040037001e009000ae009000f6
:1051540060001000e08018000080fa0000000600e3
:105164000400fa00100798001e009000e00f5000a1
:1051740002003a00000120000c0037001e009000dd
:10518400e00f500003003d001e009000000fea00f5
:10519400020037001e009000000f78001e00780007
:1051a400c8080200000000000000e9000080fa00c6
:1051b400000006000c00fa00400798005107980010
:1051c4004e009000de009000e00f5000e08f580089
:1051d40002003a00000220001f0037004e00900039
:1051e400de009000e00f5000e08f580007003d0003
:1051f4004e009000de00900060001000e080180077
:105204002007980031079800040037004e009000f2
:10521400de00900020079800310798003e009000bf
:10522400c808020000000000000f78002e00900063
:10523400c808020000000000100798001e00780053
:10524400e00f500003003a001e0090006f00400081
:10525400010037001e00e9000080fa00000006008b
:105264000a00fa00200798003107980042079800c6
:105274004e00900064004000900078003e009000d2
:105284000080e800100078000180b900008fbe00a3
:105294001e01be004e0090000080e80090007800df
:1052a4003e00900064004000100078000180b900c6
:1052b4000000510081805900008fbe001e01be0015
:1052c4004218dd00ce10de00810070004210dd00c7
:1052d400008fbe009e0090002e0090000108780010
:1052e4004e009000900078003e0090006400400062
:1052f400100078000180b900008fbe001e01be00be
:105304004e00900064004000900078003e00900041
:10531400100078000180b90000005100818059001c
:10532400008fbe001e01be004218dd00ce10de005c
:10533400810070004210dd00008fbe002e0090003e
:105344000080e8009e009000010878004e00900064
:105354000080e800900078003e0090001000780083
:105364000180b900008fbe001e01be004e009000f7
:10537400900078003e0090000080e8001000780063
:105384000180b9000000510081805900008fbe00e7
:105394001e01be004218dd00ce10de008100700048
:1053a4004210dd00008fbe002e009000640040001b
:1053b4009e009000010878000080fa0000000600ba
:1053c4000000fa000000eb004055880040558000c2
:1053d4003055880030558000205588000080fa0040
:1053e400000006000000fa000080fa000000060039
:1053f4000200fa00104f80008080d100204f80000e
:105404000080d10080805000f0598000008040006e
:10541400904c8800704f80008080d100604f8000e5
:105424000080d10080805000f0598000008050003e
:10543400a04c8800c04f80008080d100b04f800015
:105444000080d10080805000f0598000008050001e
:10545400b04c8800b24c8000a14c8000904c80007d
:10546400f026020000000000f0538800f053800092
:105474000000d100000f78001e007800e00f5000fb
:10548400240032001e027800904c80006101b900b3
:105494004d18dd00c310de00810070004d10dd00ea
:1054a400811f7800110009004408d800cf0078005b
:1054b400d04b88001e027800a04c80006101b90026
:1054c4004d18dd00c310de00810070004d10dd00ba
:1054d400811f7800110009004408d800cf0078002b
:1054e400e04b88001e027800b04c80006101b900d6
:1054f4004d18dd00c310de00810070004d10dd008a
:10550400811f7800110009004408d800cf007800fa
:10551400f04b88000080fa00000006000000fa004a
:10552400304e80008080d100204e80000080d10069
:1055340000805000204d8800704e80008080d10093
:10554400804e80000080d10000805000304d8800e3
:10555400c04e80008080d100d04e80000080d100f9
:1055640000805000404d8800204d80000000ea007b
:10557400804d8800304d80000000ea00904d880086
:10558400404d80000000ea00a04d8800429a2000af
:105594000198200030002000ce0b02000000000023
:1055a40000004000c04c8800429a2000619820000e
:1055b40030002000ce0b020000000000000040007c
:1055c4000000ea00d04c8800429a2000c1982000d4
:1055d40030002000ce0b020000000000000040005c
:1055e4008000780030fc2e0000804000e04c8800f1
:1055f4000080fa00000006000000fa007cff0700ab
:10560400c6ff07000080fa00000006000800fa0048
:1056140020079800310798003e0090004380de0088
:10562400300798002e009000be0090000180b90061
:10563400008fbe001e009000ed0f500002003400e9
:1056440000002400160037001e009000ed0f4000fb
:1056540002003d0000002c00110037001e00be00b7
:105664004b09dd004500de0000007100c588de0046
:10567400008fbe001e007800514920000100b900cf
:10568400008fbe001e01be004518dd00cb10de00f9
:10569400810070004510dd00008fbe001e009000e8
:1056a4000080fa00000006001600fa00881f780047
:1056b400200f9800904c8000000f9800b04c8000a0
:1056c400100f9800f0004700700047001c270200ec
:1056d400000000009e089000204d80000181b90068
:1056e4008e089000404d80000180b90000015100f7
:1056f400818159004218dd00ce10de008100700067
:105704004210dd0060079800710798007e00900049
:10571400100798009e089000604c80000181b90039
:105724008e089000804c80000180b9000001510077
:10573400818159004218dd00ce10de008100700026
:105744004210dd0060079800710798007e00900009
:1057540020079800704c8000d10321000101b9009a
:105764004218dd00ce10de00810070004210dd0022
:1057740060079800710798007e0090003007980039
:105784001e0090009e0090000180b9000001be0040
:10579400d0032100d10321000100b8000201400020
:1057a40083814800214d8000204d80000180b90094
:1057b4000001510081815900414d8000404d80001d
:1057c4000180b90000015100818159003e00900020
:1057d400be0090000180b900000051008180590092
:1057e40060079800710798006e009000fe0090001a
:1057f400e00f5000e08f580003003d006000b80047
:1058040060079800710798006e009000fe009000f9
:105814002e26020000000000400798001e009000a1
:10582400e00f500005003d009e0090004e009000e7
:1058340000804000000f78000c0037002e0090001c
:10584400e00f500005003d009e0090004e009000c7
:1058540000804000000f7800040037009e00900094
:105864004e00900000805000000f78001e00780069
:10587400e00f500002003d000000eb00000f780034
:105884009e0890001e0078000181b9004218dd00d6
:10589400ce10de00810070004210dd006007980029
:1058a40071079800214d80007e0090000080500018
:1058b400504d8800304d8000604d88008e08900067
:1058c4001e0078000181b9004218dd00ce10de0010
:1058d400810070004210dd00600798007107980095
:1058e400414d80007e00900000804000704d880093
:1058f400515c80002e0890000101b9004218dd00bf
:10590400ce10de00810070004210dd0060079800b8
:10591400710798007e00900050079800584d800051
:10592400004d8000de00900038ff070000004400b6
:10593400504d8800684d8000f04c8000de009000df
:1059440032ff07000000540080007800305c8000c3
:105954004200dd0000804000604d88004f04780064
:105964000080fa00000006003000fa00c3a82000fe
:1059740022992000e199200030002000580a0200fa
:105984000000000063a82000e299200001a8200084
:1059940030002000580a0200000000007800470090
:1059a4004397200002a820008000780030002000e7
:1059b4003c0c0200000000006600470001002400c7
:1059c40001089800660047008008900066004700c0
:1059d4004100980066004700c00090006600470040
:1059e40001087800780047009000780078004700ac
:1059f400100078000181b900780047009000900001
:105a040078004700100090000180b90002014000b6
:105a14008381480078004700a00090007800470088
:105a2400200090000180b9000200400083804800fb
:105a3400008fbe001e00be004209dd004e00de00e5
:105a440000007100ce08de008000780030002000e5
:105a540000017800110009008280d80080007800dd
:105a640000002400008040002007980078004700d0
:105a740010007800ae0090000100b9004209dd007a
:105a84004e00de0000007100ce88de008000780049
:105a94007800470001087800780047001000900063
:105aa400ae0090000100b9004209dd004e00de00a6
:105ab40000007100ce88de00800078007800470086
