:020000040000fa
:080000000002040000000000f2
:020000040000fa
:10000800b403000018340100443401006a340100cc
:1000180090340100b6340100b4030000b4030000ba
:10002800b4030000b4030000b40300007a2b0100fd
:10003800ba1a0100b4030000b4030000b4030000be
:10004800b4030000b4030000b40300005c0901001d
:1000580018090100b4030000b4030000b403000051
:10006800b4030000a6020100b4030000b4030000ba
:10007800b4030000b4030000b4030000b40300009c
:10008800b4030000b4030000b403000064280100b6
:10009800a42b0100b4030000d80a0100820a010061
:1000a800b4030000c4260100b4030000be2301000d
:1000b800b4030000b4030000b4030000b40300005c
:1000c800b4030000b4030000b4030000b40300004c
:1000d800b4030000b4030000b4030000c22b010005
:1000e800002c0100b40300004ef80000b403000027
:1000f800b4030000702a0100b4030000b403000038
:1001080052230100b4030000b4030000b40300004c
:10011800b4030000b4030000b4030000b4030000fb
:10012800b4030000b4030000b4030000b4030000eb
:10013800b4030000b4030000b4030000b4030000db
:10014800b4030000b4030000b4030000b4030000cb
:10015800b4030000b4030000b4030000b4030000bb
:10016800b4030000b4030000b4030000b4030000ab
:10017800b4030000b4030000b4030000b40300009b
:10018800b4030000b4030000b4030000b40300008b
:10019800b4030000b4030000b4030000b40300007b
:1001a800b4030000b4030000b4030000b40300006b
:1001b800b4030000b4030000b4030000b40300005b
:1001c800b4030000b4030000b4030000b40300004b
:1001d800b4030000b4030000b4030000b40300003b
:1001e800b4030000b4030000b4030000b40300002b
:0801f800b4030000b403000091
:020000040000fa
:10020800b403000018340100443401006a340100ca
:1002180090340100b6340100b4030000b4030000b8
:10022800b4030000b4030000b40300007a2b0100fb
:10023800ba1a0100b4030000b4030000b4030000bc
:10024800b4030000b4030000b40300005c0901001b
:1002580018090100b4030000b4030000b40300004f
:10026800b4030000a6020100b4030000b4030000b8
:10027800b4030000b4030000b4030000b40300009a
:10028800b4030000b4030000b403000064280100b4
:10029800a42b0100b4030000d80a0100820a01005f
:1002a800b4030000c4260100b4030000be2301000b
:1002b800b4030000b4030000b4030000b40300005a
:1002c800b4030000b4030000b4030000b40300004a
:1002d800b4030000b4030000b4030000c22b010003
:1002e800002c0100b40300004ef80000b403000025
:1002f800b4030000702a0100b4030000b403000036
:1003080052230100b4030000b4030000b40300004a
:10031800b4030000b4030000b4030000b4030000f9
:10032800b4030000b4030000b4030000b4030000e9
:10033800b4030000b4030000b4030000b4030000d9
:10034800b4030000b4030000b4030000b4030000c9
:10035800b4030000b4030000b4030000b4030000b9
:10036800b4030000b4030000b4030000b4030000a9
:10037800b4030000b4030000b4030000b403000099
:10038800b4030000b4030000b4030000b403000089
:10039800b4030000b4030000b4030000b403000079
:1003a800b4030000b4030000b4030000b403000069
:1003b800b4030000b4030000b4030000b403000059
:1003c800b4030000b4030000b4030000b403000049
:1003d800b4030000b4030000b4030000b403000039
:1003e800b4030000b4030000b4030000b403000029
:0803f800b4030000b40300008f
:020000040000fa
:100400004fd621000efb27000e01880000000000df
:100410000c000700804a2e00010020001100070098
:10042000000020000000e000020032000000020096
:10043000000000000e3a0200010000000040da0057
:100440000000fe004440a900e02221000000e0007e
:100450000300320000002000a00188004440a800f2
:100460000000060091018800800078000000eb0089
:1004700015003700e280400032a0b4009101ba00bc
:10048000e280400032a0b4009102ba00e280400055
:1004900032a0b4000002eb00472bde00f507b200eb
:1004a000602ce10004003a000059eb008301e900f0
:1004b000fdff3e00040037006128e100010032002a
:1004c0000082eb00040007001101ba000200e00006
:1004d000e8ff3a00000006003159ba008301e90044
:1004e0000c0032002159ba008301e90008003200f3
:1004f0000400e00003003a00e280400032a0b400b3
:10050000f5ff370011d9ba008301e900faff3a007c
:100510008100e800e180400032a0b4000000060045
:10052000c0fb04000000000094fb04000000000079
:1005300000fc040000000000e6da040000000000f7
:1005400026db040000000000b6da04000000000012
:1005500044db0400000000007adb0400000000001f
:10056000a4db040000000000ccdb0400000000005d
:10057000d0dc04000000000016dd040000000000d4
:100580005cdd040000000000a2dd040000000000ab
:100590003cde040000000000e8dd04000000000074
:1005a00082de04000000000012de040000000000f3
:1005b00072de040000000000220b040001000000b5
:1005c000b6330400010000009002040001000000a6
:1005d0001e05040001000000c80304000100000023
:1005e000d803040001000000ee0304000100000035
:1005f0009a04040001000000380404000100000017
:1006000076040400010000008204040001000000e0
:10061000aa04040001000000be0404000100000060
:10062000e4040400010000001205040001000000c1
:10063000d8040400010000002405040001000000ab
:10064000fcfa04000000000038f80400000000007c
:1006500080f90400000000006cfa040000000000b3
:100660009cf9040000000000b2f904000000000042
:100670005cfa040000000000fcf904000000000027
:1006800038fa04000000000044fa040000000000f2
:100690009cfa040000000000c2fa04000000000000
:1006a000f0fa040000000000b6fa040000000000a8
:1006b00002fb0400000000005233040001000000af
:1006c000262a040001000000862604000100000024
:1006d000eaf5040000000000f2f50400000000004c
:1006e00022f60400000000008af60400000000006a
:1006f000cef60400000000000ef704000000000029
:1007000054f704000000000008c4040000000000ca
:100710009cc50400000000004cc404000000000060
:10072000b0c404000000000060c404000000000029
:1007300016c404000000000012c504000000000000
:100740000e1e040000000000a4330400000000009e
:10075000c02a0400000000001c0504000000000086
:1007600048050400000000000040da000000fe0020
:100770001200fa006007980071079800020f9800b5
:100780000022200010079800202220002007980057
:100790006022200030079800802220004007980047
:1007a0006e00900060004000e20f500042003e00ea
:1007b000d0e28000e20f500008003a000023200041
:1007c00010079800202320002007980060232000b5
:1007d0003007980080232000400798001e009000fa
:1007e000900078000000280000806000e00f5000ba
:1007f00008003a004e0090008000eb0001087800ed
:100800001e00900010017800010028008100710096
:10081000010878000e089000000f78001c003700d7
:10082000000a200050079800030037005e00900087
:100830000000e900500798002e009000100078009a
:1008400061006000e00f500003003a005e0090007d
:10085000e00f5000f5ff3a002e00900010007800e5
:1008600061006000e00f50000d003200fe009000bb
:100870003e0090001000780000407800804878002a
:100880007e0090000000e800700798001e0fe9004d
:100890001e007800e00f5000e1ff3a000100370031
:1008a000000000001e0078008e08900000805000bc
:1008b000000f980001003700000000000e089000b3
:1008c0000080fa00000006001000fa0050079800af
:1008d0006107980072079800002220001007980016
:1008e0002022200020079800402220003007980096
:1008f00080222000400798005e009000cf80de003c
:100900004200200003002000820f5000838f580017
:1009100012003e00006001000400370003003700b1
:10092000020037000f0037000e003700d0e28000d1
:10093000e20f50000d003a0000232000100798003d
:100940002023200020079800402320003007980033
:100950008023200040079800050037000000eb00ce
:1009600033003700000000000100370000000000e5
:100970001e009000900078000000280000806000b9
:10098000e00f500008003a004e0090008000eb009d
:10099000010878001e009000100178000100280076
:1009a00081007100010878002e009000900078000e
:1009b0000040200000806000e00f500005003a0079
:1009c0002e0090001001780001402000810071008d
:1009d000010878007e009000000f780010003700ba
:1009e000000000002e009000900078000010200011
:1009f00000806000e00f5000faff32006e009000af
:100a0000104078008000fb003e0090000108780054
:100a10006e0090000000e800600798001e0fe900db
:100a20001e007800e00f5000edff3a007e009000bd
:100a30000080fa0000000600881f78000204780099
:100a400008017800b80d0700080040004f04780046
:100a5000000006000000fa00881f780000047800fb
:100a6000ea8157003fb9970088007800c051200004
:100a70001d000700e00f5000020035000041eb00b0
:100a8000027478004f0478000080fa00000006002d
:100a9000889fbe000004780001007800820478007e
:100aa000880178000901780011002000e50c07009a
:100ab000890f5000010032000004eb0008007800ac
:100ac0004f04be00000006000000fa00e881570055
:100ad0004fb99700414921008054200002000700cf
:100ae0000080fa00000006004f06b000889fbe009c
:100af0008a9fbe008c9fbe008e1f78008005780004
:100b000001057800820478008300780000f92f0046
:100b10000f004000ff16070028f92f000f044400c3
:100b20004b0498005a0498000000eb00600c9800f9
:100b3000eea321002da32100fcff2700194078001f
:100b40008085fb000b05fb008b05ea00cf5dde0016
:100b500050022000800f55000d003200e18f55003b
:100b60000b003a00c80190000b0178008900780062
:100b7000580090000300010050049800e00f50005e
:100b80008b003200680890000000e800600c9800bc
:100b90008b84440050022000800f55000400320076
:100ba000e00f5500e5ff3a007f9097008100370085
:100bb0000000eb00400c9800300c9800200c9800ce
:100bc000100c9800000c9800700498000014980015
:100bd000070037000e005000000040006d00780054
:100be0008810900001007000001498008904e8004b
:100bf000194578008a00fb00e0a32100850d07005d
:100c0000e00f5000f3ff3a00a1c2b300814f55003e
:100c10000e003a008f8897000180e900808f9f00c6
:100c200010007800700c9800e00f500005003d00a7
:100c30000000ea00700c9800081090000020a0004e
:100c4000001498008904e8000f003700700c980029
:100c500008003700780890008c0f50000400320024
:100c60006a00b9000003b10002004000700c980057
:100c70008904e8001901fb0000fd2f00020040007c
:100c8000e90f5000f3ff3600e0c2b300994f1000a7
:100c9000030032000080eb00500c98001a0037006f
:100ca000a0c2b300d94f100007003a008f88970008
:100cb0000180e900808f9f0010007800500c9800a0
:100cc0008904e800100037000000eb00500c980089
:100cd00008003700580890008c0f500004003200c4
:100ce0006a00b9000003b10002004000500c9800f7
:100cf0008904e8001901fb0000fd2f0002004000fc
:100d0000e90f5000f3ff3600194578008a00fb0018
:100d1000a0a221003f0d0700e00f500002003200aa
:100d20008904e80001003700004578002a64980033
:100d300080c6b300804f550004003a00994f15005b
:100d40000a003a006640500006003700c0c6b300f3
:100d5000804f550005003a00994f150003003a00f6
:100d600065404000206498008904e8001901fb00f8
:100d700063fb2f008f81410001f92f008f8040001d
:100d80000800780011000700e00f500008003a004a
:100d900061fb2f008f804000080078005d1a07007b
:100da000e00f5000020035008904e80063ff3700bf
:100db0000080eb004f0778004f06be004f05be00d5
:100dc0004f04be004f06b10000000600889fbe0021
:100dd0008a1f7800000478008244780003057800b8
:100de00070c6b30080cf540021003c0000c0e90071
:100df00080cf5400d7003d007240500080cf540097
:100e0000430132000d003c006c40500080cf540084
:100e100056013c0000c0e90080cf5400cd003d00e9
:100e200050c2b30080cf54004d0132007c404000de
:100e300080cf54004d013a00c600370010c6b30001
:100e400080cf5400c300320004003c0069405000d1
:100e500080cf540045013a006c00370030c6b30023
:100e600080cf5400180032000040e800090037002d
:100e700000c7b30080cf54001601320008003c00c8
:100e800000c0e90080cf5400db0032005f003c006e
:100e90006540500080cf540034013a000f00370005
:100ea00050c7b30080cf5400580032006340400068
:100eb00080cf5400550032006540500080cf540070
:100ec0002a013a00120137001181e90082087800f6
:100ed00078009000127578002a0137002860900091
:100ee000c2c6b300824f500009003a0011007800da
:100ef00064025000840878001400be0014029000c0
:100f00004fa2de000401780084017800120037004f
:100f100012c7b300824f500003003200a2c6b300d4
:100f2000824f500006003a0011017800680051001d
:100f3000800878005001be004000be000600370067
:100f40001180e9008008780010007800cf80de0072
:100f50000101780082017800009cbe000294be006e
:100f60002862900085c6b300854f52000e00320003
:100f700025c6b300854f520005003a000000fb0073
:100f8000cf80de000101780082017800090037007f
:100f900045c7b300854f520003003200e6c242004d
:100fa000854f520005003a00cf80de000101780035
:100fb00082017800009cbe000294be003802be0090
:100fc0002803be0078009000d1c2b300e00f5200a9
:100fd000e08f5a00e00f5b00e08f5b0008003500f7
:100fe000881090006281600002003200b1c2b3003c
:100ff00003003700e18060005100320001c2b300fd
:10100000017578000000e8004c003700286090006f
:10101000c2c6b300824f500007003a0011007800aa
:1010200064025000840878001400be000001eb0048
:10103000820178001200370012c7b300824f5000bf
:1010400003003200a2c6b300824f500006003a00ef
:101050001101780068005100800878005001be003e
:101060004000be00060037001180e90080087800cb
:101070001000780001002000020020000300200082
:10108000009cbe000294be002862900085c6b3009a
:10109000854f52000e00320025c6b300854f520026
:1010a00005003a000080fb00010020000200200043
:1010b000030020000900370045c7b300854f5200e8
:1010c00003003200e6c24200854f520005003a009c
:1010d000010020000200200003002000009cbe0050
:1010e0000294be00081090006800600014003200f6
:1010f0003800be002801be00e00f5000e08f58000d
:10110000e00f5900e08f59000d00320080c7b30096
:1011100080cf54000300320080c5b30080cf54005c
:1011200007003a00f800900000c3b30000f5780013
:101130000100e800097578000180e800700498005b
:1011400078009000000545006a0498008940780006
:101150006c00370028619000c0c4b300804f51007c
:1011600006003a00110178006800510080087800fc
:101170005001be004000be0005003700110178009c
:1011800064005100800878001000be00161d0700a2
:10119000009cbe000294be00b80090007800900051
:1011a000e08f500002003d00d1c2b30008003700bc
:1011b000881090006281600002003200b1c2b3006a
:1011c00003003700e18060000400320001c2b30078
:1011d000017578000000e800700498007800900025
:1011e000000545006a0498008900fb0008007800ab
:1011f0006a0007006500370028609000c3c6b3008e
:101200001181e900834f5000260032000a003c00a3
:10121000e4c15100834f50001f00320083c1e80039
:10122000834f500013003200e8c15100834f50003b
:1012300022003a000a00370043c7b300834f500032
:1012400015003200e6c14100834f50001200320009
:10125000e9c15100834f500018003a0005003700e3
:101260008208780012007800485c900008487800f6
:101270004600370082087800120278006808900063
:10128000cf80de000101780082017800009abe0064
:101290000292be003d0037008208780012007800fc
:1012a0000900370082087800120178006808900071
:1012b000cf80de000089be00340037001180e900d5
:1012c0008008780010007800680c9000080878000a
:1012d0002e0037001180e9008008780010007800a7
:1012e000cf80de000101780082017800009cbe0002
:1012f0000294be0078009000000545006a04980042
:1013000081c7b30008007800bc1707001f00370032
:101310001180e90080087800100578006a049800c0
:10132000d80c9000e08f540004003d000a007800c3
:10133000cf0b070080047800070037000901780010
:101340008000eb000a0078006e0b0700e00f5000f1
:10135000010032008a045000190c98000b0037007d
:10136000780090000975780006003700780090003a
:1013700000054500e0cf540001003a0059c2b30017
:10138000094d78000000e800700498000000eb00b0
:101390004f0578004f04be0000000600ef03b000c8
:1013a000889fbe008a9fbe008c9fbe008e1f780063
:1013b00000057800014778003a00be002a01be000f
:1013c000d0b79f00e1b79f00f2b79f0083bf9f0097
:1013d0005a089000e00f500002003d00600020001d
:1013e000500d98008a00780060fb2f000f0040002d
:1013f0005817070080017800e28f510009003a0079
:1014000030002000100d9800b0c9b300004747001d
:10141000005c2100e14f57000c003e00c05b210042
:101420000a003700e08f51000e0034003000200029
:10143000100d9800b0c9b30000474700805c210040
:10144000e14f570001003e00405c2100ea0090009f
:10145000b0487800b068780010407800904098005c
:1014600002013700e08f510004003a0062fb2f00b8
:101470000f01410003197800f80037006022b8001e
:101480006033b8005fb09700efb097007fb197006e
:101490008fb99700ab1b0700e00f500009003d001b
:1014a0005fb29700efb297007fb397008fbb9700b2
:1014b00007f0a200d4b79f00e5b79f00f6b79f00e2
:1014c00087bf9f003f9a9700cfa2de007259270086
:1014d000030020000400be00081d0700026a280067
:1014e000130020000d05070064015000b29f9f000b
:1014f00018003b0063011100c0ff2f0000046100d1
:101500008802ea00b59f9f000006eb00cd5c210039
:101510005fb09700efb097007fb197008fb9970049
:101520000900370061026400050032004362dd00fb
:10153000048246005403be004402be00781c07002b
:101540000884d1000c06e800e00f5400f5ff3c00d1
:101550001f003700e00f510023003200c8ff2f00aa
:1015600008046100b89f9f006022b80006002000b8
:1015700007ff23000006eb00cd5c21000400be0045
:101580000601be0009003700610264000500320058
:101590004362dd00048246005403be004402be00e4
:1015a0005f1c07000884d1000c06e800e00f54001f
:1015b000f5ff3c000002be000203be005fb09700d2
:1015c000efb097007fb197008fb99700671b0700b6
:1015d0000002be000203be00d4b79f00e5b79f0023
:1015e000f6b79f0087bf9f005a09900060c6b300fe
:1015f000804f5700040032006100200060c4b30037
:10160000804f570002003a00bf9a9700ea804200dc
:1016100082814000f38f510001003400330120002b
:1016200002c3b300827f9f009dfb2f008f86460080
:10163000824578000e43780086ef9f00030778000c
:10164000350037005fb09700efb097007fb197008b
:101650008fb99700031c07000004be0068075700fd
:101660004240a900120034002a1c07000002be00fc
:101670000203be005fb09700efb097007fb1970004
:101680008fb997009b1c07006022b80046782d0098
:1016900077192400221c07000002be000203be00ce
:1016a000d4b79f00e5b79f00f6b79f0087bf9f00a4
:1016b000e88646008c0020000801be000c003700c0
:1016c000a40020000500200000fe2f000f004000b5
:1016d000301407000fb097009fb097002fb197000c
:1016e000bfb1970005c3b300856641000001be008d
:1016f000e00f5100e08f5900040034000c06e900af
:10170000efff3b00010037008b6678000c06e90014
:10171000fdff3b00e8864600e00f57000a0034005a
:101720006022b8006033b8005fb09700efb0970058
:101730007fb197008fb99700071b070080007800e2
:10174000e08f5000bfff3c000fef970092fb2f008f
:101750000f014100828256003f9b970067034300c0
:10176000b69f9f0000c3b300050037008502e90063
:10177000bf9b97008703e900b79f9f000201e80025
:10178000924f1000f9ff3200da08900060c6b300f3
:10179000804f57000300320060c4b300804f5700f1
:1017a00003003a003f9897008001e80009003700e5
:1017b0001300200050c6b300804f570005003200d0
:1017c0000e40780050c4b2008081fb008301e90024
:1017d000cf19de0081814100858f51000100340066
:1017e00085017800e08f51001c00350004c3b30070
:1017f000858f510006003d00e2c079006942420039
:1018000040c3b30080cf500001003c006942520049
:1018100083027800010037008301e9008502e900b6
:101820008500410011437800844f5300faff3200d5
:1018300090c3b300804f520001003a008648e80090
:10184000e08f520005003d000201e9008301e8003d
:10185000bf9897008100e800b19f9f008e00fb00b9
:101860003f9a97000a007800060007004f077800ab
:101870004f06be004f05be004f04be00ef03b1008f
:10188000000006000e00fa00889fbe008a9fbe007e
:101890008c9fbe0000047800814478000206780026
:1018a0000305780084057800e00f550002003c0035
:1018b0001a0020002cc6210060c6b30080cf54005f
:1018c0000e00320060c4b30080cf54000b00320021
:1018d00070c6b30080cf54000300320070c4b30060
:1018e00080cf540081003a00e48f45007f0035002e
:1018f00058089000808f55007c003d008b05e80063
:1019000060c6b30080cf54001000320060c4b30042
:1019100080cf54000d003200081090006800600075
:1019200004003a0058089000800f550001003d0067
:101930005a0c9800580890000b005000500c98006a
:1019400002003b000000eb00500c980018089000cb
:10195000e8009000e08f550026003c0002c3b30071
:10196000827078000000e800100c9800d808900001
:10197000e08f500003003c0088109000e880600079
:101980000500320068019000e1c2b30001717800e7
:101990000000e800100c9800580890008b00ea0046
:1019a000810f500001003d008005ea008b00ea0035
:1019b000210c9800808545005b0c98008a8f5500ab
:1019c000010034008a0578003b0c9800e800900084
:1019d00018089000008040000b0178008c0078000f
:1019e000d1090700580890008b0550004b0c980057
:1019f000910037008b0f550018003d00008040001b
:101a00000a0178008c007800c70907009808900048
:101a100081004500110c98000a8555002a0c980099
:101a200058089000e00f500003003c0008109000a0
:101a3000680060000600320068019000e0c2b30058
:101a400000f17800380890000000e800300c9800a1
:101a500058089000400c9800770037000080400044
:101a60000b0178008c007800af090700180890007f
:101a700000804500100c98000b055500d808900018
:101a8000e08f500003003c0088109000e880600068
:101a90000500320068019000e1c2b30001717800d6
:101aa0000000e800100c980058089000800f5500c6
:101ab0000100340000057800e8009000180890004c
:101ac000008040008b0046000a017800960907005c
:101ad000180890000a004000100c98005808900068
:101ae0000a0550002a0c980053003700180890008f
:101af000e80090009c7078000000e800100c98004e
:101b0000d8089000e08f500003003c00881090003f
:101b1000e88060000500320068019000e1c2b30077
:101b2000017178000000e800100c9800580890003f
:101b3000e00f5000100034000a05e900800f550046
:101b40000100340000057800e800900018089000bb
:101b5000008040008c00e8000a017800720907004c
:101b6000180890000a004000100c980058089000d7
:101b70000a0550002a0c9800e80090001808900010
:101b800000804000095878008006e800e08f55008a
:101b900004003500b1c2b300014878000d0678009a
:101ba00004003700d1c2b300014878000d06780068
:101bb0008b05ea008004eb000b003700a200200038
:101bc0008b00780070805700d41207000fbd97007b
:101bd0009fbd97008b4078007a80570001f07c0011
:101be0008904e8008a057800e08f5500f3ff3c0087
:101bf000e08f540009003a000d06780000c3b300de
:101c0000005e7800050037008904e9007a815700fa
:101c10000900410001c3b30010de4000e08f540012
:101c2000f9ff3a00e800900018089000008040009a
:101c3000000656003c0c98000810900074006000ec
:101c4000f00f50000e003a009808900078009000c5
:101c500000804000a808900001004000b8089000f3
:101c600001004000c808900001004000f808900002
:101c7000810f500002003d0000805000000c9800d1
:101c80004f06be004f05be004f04be000080fa00a4
:101c9000000006000000df00000006000080cf000a
:101ca000000006002200f8002400f8002600f800da
:101cb0000100b8000000e9004400f800010f200016
:101cc00021028800820078003800f8003a00f8000d
:101cd0003c00f8003e00f8004000f80000800800da
:101ce00004000000b30278000500ca00b4027800c6
:101cf0000500c9003200cc004000f9003e00f900a8
:101d00003c00f9003a00f9003800f90001007800c1
:101d10004400f9002600f9002400f9002200f9002f
:101d2000000006002200f8002400f8002600f80059
:101d3000889fbe008a9fbe008c9fbe004400f800b2
:101d40000d0f20002d028800830678000106e900af
:101d50008205e90081804000020141000000e900a5
:101d600024003500050578003800f8003a00f80036
:101d70003c00f8003e00f8004000f8000b8008002e
:101d800014000000040478008a0478001201c300e3
:101d90003800f8003a00f8003c00f8003e00f80077
:101da0004000f8000c8008000300000038037800b1
:101db000990378001201c600828444004000f900b3
:101dc0003e00f9003c00f9003a00f9003800f90043
:101dd0003300cd000a85e8004000f9003e00f9001c
:101de0003c00f9003a00f9003800f9000102420015
:101df000daff37000d0078004400f9004f06be00fe
:101e00004f05be004f04be002600f9002400f90073
:101e10002200f900000006002200f8002400f8006b
:101e20002600f8004400f800050f20002502880075
:101e30000100b8000000e900820078003800f800d6
:101e40003a00f8003c00f8003e00f8004000f800be
:101e50000080080002000000b30278001301c000f7
:101e60003200cd004000f9003e00f9003c00f900ce
:101e70003a00f9003800f900010078004400f90048
:101e80002600f9002400f9002200f90000000600f5
:101e90002200f8002400f8002600f8002800f800ce
:101ea0002a00f8002c00f8000100b8000000e9004a
:101eb0004400f800010f2000210288008200780011
:101ec0003800f8003a00f8003c00f8003e00f80046
:101ed0004000f8000080080005000000b302780010
:101ee0000500ca00b40278000580ca000030cb00ab
:101ef0003200cc004000f9003e00f9003c00f9003f
:101f00003a00f9003800f900010078004400f900b7
:101f10002c00f9002a00f9002800f9002600f90039
:101f20002400f9002200f900000006008202780077
:101f30000000e9000102e900818040003800f8005b
:101f40003a00f8003c00f8003e00f8004000f800bd
:101f50000480080011000000030278003800f80037
:101f60003a00f8003c00f8003e00f8004000f8009d
:101f700000800800010000001419780001024200ee
:101f80004000f9003e00f9003c00f9003a00f90079
:101f90003800f900000000008381e8000000000024
:101fa0004000f9003e00f9003c00f9003a00f90059
:101fb0003800f90005007800000006002200f80053
:101fc0002400f8002600f8004400f800040f200068
:101fd00024028800010278000000e9003800f800bf
:101fe0003a00f8003c00f8003e00f8004000f8001d
:101ff0000080080004000000b20278000500ca005a
:10200000b30278000500c9003100cc004000f9009f
:102010003e00f9003c00f9003a00f9003800f900f0
:10202000040078004400f9002600f9002400f900bb
:102030002200f900000006002200f8002400f80049
:102040002600f800889fbe008a1f78004400f80030
:10205000070f200027028800821f78008103e90013
:102060000005eb003800f8003a00f8003c00f800ea
:102070003e00f8004000f80007800800140000004f
:1020800003047800840478001201c3003800f800cb
:102090003a00f8003c00f8003e00f8004000f8006c
:1020a0000a80080002000000b802780029037800c6
:1020b0001201c4004000f9003e00f9003c00f900a4
:1020c0003a00f9003800f9003200cd000482e8003f
:1020d0000a05e8004000f9003e00f9003c00f90064
:1020e0003a00f9003800f9000482e9008381e80031
:1020f00001055000210034000a05e9003800f8000d
:102100003a00f8003c00f8003e00f8004000f800fb
:102110000a8008001300000003047800840478009b
:102120001201c3003800f8003a00f8003c00f80043
:102130003e00f8004000f8000780080002000000a0
:10214000b8027800290378001201c4004000f900a9
:102150003e00f9003c00f9003a00f9003800f900af
:102160003200cd008381e8004000f9003e00f90014
:102170003c00f9003a00f9003800f9008703e90053
:10218000210035003800f8003a00f8003c00f80063
:102190003e00f8004000f80007800800140000002e
:1021a00003047800840478001201c3003800f800aa
:1021b0003a00f8003c00f8003e00f8004000f8004b
:1021c0000780080002000000b802780029037800a8
:1021d0001201c4004000f9003e00f9003c00f90083
:1021e0003a00f9003800f9003200cd008381e800a0
:1021f0008703e9004000f9003e00f9003c00f900c7
:102200003a00f9003800f9004f0078004400f90066
:102210004f0578004f04be002600f9002400f900a5
:102220002200f900000006003600f8008101780065
:102230000000e90000800900b2187800030078006f
:102240003600f90000000600840378008102e900ee
:102250008502d000050342008102d1008502e90019
:102260003800f8003a00f8003c00f8003e00f800a2
:102270004000f80005800800020000009602780087
:1022800017137800851b78004000f9003e00f90024
:102290003c00f9003a00f9003800f9001c10020077
:1022a00000000000000006002200f8002400f800f2
:1022b0002600f8004400f800040f200024028800e3
:1022c0000000e9001201c3003800f8003a00f800ed
:1022d0003c00f8003e00f8004000f80000800800d4
:1022e0000200000031027800b20278001201c00042
:1022f0004000f9003e00f9003c00f9003a00f90006
:102300003800f9000000cd004400f9002600f90073
:102310002400f9002200f90000000600b102780054
:102320000009eb000002e90007003400b101780069
:102330000328e10002003c008302780004095000f9
:102340000402e900f9ff3c000500780000000600e7
:10235000b10278000009eb000002e9000700340038
:10236000b10178000328e100020035008302780003
:10237000040950000402e900f9ff3c000500780060
:10238000000006002200f8002400f8002600f800f3
:102390004400f800040f200024028800811f780008
:1023a0000000e9003800f8003a00f8003c00f800ae
:1023b0003e00f8004000f800008008000300000024
:1023c00032027800b30278001301c0003100cd0062
:1023d0004000f9003e00f9003c00f9003a00f90025
:1023e0003800f9004f0078004400f9002600f90099
:1023f0002400f9002200f900000006002200f80085
:102400002400f8002600f8004400f800030f200024
:1024100023028800810178000000e9000400280000
:102420001201c3003800f8003a00f8003c00f80040
:102430003e00f8004000f8000080080003000000a3
:10244000b20278001201c0003100cc001201c300ba
:102450004000f9003e00f9003c00f9003a00f900a4
:102460003800f900030078004400f9002600f90064
:102470002400f9002200f900000006002200f80004
:102480002400f8002600f8004400f800020f2000a5
:10249000220288000000e9001201c3003800f800a1
:1024a0003a00f8003c00f8003e00f8004000f80058
:1024b0000080080001000000310278001001f000e7
:1024c0004000f9003e00f9003c00f9003a00f90034
:1024d0003800f9000000cd004400f9002600f900a2
:1024e0002400f9002200f900000006002200f80094
:1024f0002400f8002600f8004400f800040f200033
:1025000024028800811f78000000e900030278009f
:102510003800f8003a00f8003c00f8003e00f800ef
:102520004000f8000080080002000000b2027800bd
:102530001301c0003100cd004000f9003e00f90059
:102540003c00f9003a00f9003800f9004f0078002b
:102550004400f9002600f9002400f9002200f900e7
:10256000000006002200f8002400f8002600f80011
:102570002800f8002a00f8002c00f8004400f800b9
:10258000040f200024028800010278000000e90006
:102590003800f8003a00f8003c00f8003e00f8006f
:1025a0004000f8000080080005000000b20278003a
:1025b0000500ca00b30278000580ca000030cb00d5
:1025c0003100cc004000f9003e00f9003c00f90069
:1025d0003a00f9003800f900040078004400f900de
:1025e0002c00f9002a00f9002800f9002600f90063
:1025f0002400f9002200f900000006003600f8006f
:10260000020378000002d0008102e9008200780015
:1026100003017800141102000000000004004000d3
:1026200001002000058009000118780006007800ec
:102630003600f900000006009820a90061e2a90018
:102640008820a900000006008820a900670160001a
:102650004411dd00a3058000f1f82f0081806100a6
:1026600082807000a1058800680060004300de00e1
:102670006100600080004000c00480000010a100e4
:1026800001007000c00488000000060010138800dc
:1026900021138800021388000000060003f0a20046
:1026a000889fbe008a9fbe008c1f780051010700e2
:1026b000580133006450e1004f0032006420e10013
:1026c0005200320003826c0007003b000905d00075
:1026d0000306d000820f54000c065d000200390092
:1026e00002003200890178000306780085825500d7
:1026f00004003d000003fd008103fd008502ea00a7
:102700008b854200840f720002003b0060001000c5
:10271000e08018006011b8000005eb007a28e100a5
:102720000a00390006007800c75ddd00f707b20037
:10273000878075002d003700828171000a017800c2
:10274000610560008180d1000080d3008502e9002e
:10275000f9ff3b00060440008784480002003b006c
:1027600060041400e0841c000988a3000700320004
:102770008a81710082817100610164008904d10045
:102780000884d3008b05e800170037000978a30000
:1027900013003a000b00e000130034008b05e90041
:1027a0000804440089844c000a4474000978a3009a
:1027b0000d003a000b00e000070034008b05e90033
:1027c0000804440089844c0001003a000b002000fa
:1027d0000978a300f7ff32000001eb000200370088
:1027e000828171000a017800c70007000cf0a70081
:1027f00001f0a000100137006420e10002003a005f
:10280000838f6c00100133000801be000200be007f
:1028100009013700889fbe008a9fbe008c1f780088
:10282000f4000700fb00330003866c006450e100f5
:102830002e0032006420e100330032006150e100dc
:102840002f0032006120e100310032008585550003
:10285000eb07b00009002000080420000500370045
:102860000804440089844c000a0031000603430038
:1028700087834b000001530081815b00f8ff330028
:102880000203be000800a0000804440089844c0034
:10289000f6ff3900c639dd00830173000100320004
:1028a000130020008904d1000884d3000998a300f4
:1028b000050032000800a7000300a0008904d10031
:1028c0000884d3008b05e8008904d1000884d30074
:1028d0000001eb000281d2008b00070001f0a10093
:1028e0000cf0a70001f0a000d30037006420e10045
:1028f000d50032000801be000200be00f7ff37001d
:102900006120e100d00032006000b800f3ff370022
:102910000000200001f82700f0ff3700839f6800c7
:102920000100e00002003d0060001000e08018009f
:102930000300e00002003d0060011100e081190089
:102940001f0207004f00e00002003b006000100083
:10295000e080180000000600f4ff2f00bb033700e2
:102960000001be008e0007000470a70003f0a10064
:102970006509b100160032000d0035006828e1003d
:1029800006003500f0ff2f00f1ff27000300e000f4
:1029900013003b000100280000000500000040007b
:1029a000818048008502e900fcff3a0008003700fa
:1029b000f88f420002003c008000eb0000000500a0
:1029c0008100d1000080d3008502e800fcff3a00be
:1029d0000300e00002003b0060001000e0801800ef
:1029e000000006000001be006d0007000470a70093
:1029f00003f0a10003f8a30013003a006509b10039
:102a000010003200090035006928e100020035009d
:102a100001002800000005000000400081804800ff
:102a20008502e900fcff3a0000000600f88f420032
:102a3000050035008100d1000080d3008502e80048
:102a4000fcff3a00000006008000eb0000000500db
:102a5000881f7800010478000100e00005003d00b7
:102a600060001000e080180002003b0001f02c0024
:102a7000030037000400070008f0a70001f0a000e1
:102a80004f04780000000600889fbe008a9fbe00a9
:102a9000010578000000e000180032000004be00cc
:102aa0006011b8006b0920000982cf0002003900d4
:102ab0000882cf000441b000694252000e0032008b
:102ac00008003b0082817100610164008904d1002b
:102ad0000884d3008b05e8000442e800f9ff3a00bf
:102ae000050037000804440089844c008b05e90088
:102af0000442e900fbff3a00030007004f05be0057
:102b00004f04be00000006008100200061805500d7
:102b10000b003d000b00200061fe2f000100e100d2
:102b20001d00340082817100610164008904d100bc
:102b30000884d3000000e800faff3a00710020008a
:102b400061006400030070000200600009003200b0
:102b500061044400e0844c000988a50005003200af
:102b60008b05e8006808e10002003a008904d10002
:102b70000884d300f20f20000258e10005003d0058
:102b8000c75ddd00f907b200898075000800780094
:102b9000000006000bf827008b00780000000500fd
:102ba000c70ade00f107b200f50fb20008003200dc
:102bb000e1cf4200020032000170a00024000500b5
:102bc000810f700001003200040805004400050078
:102bd000810f700002003a00140005008502e90030
:102be0000000400081c04800fcff3b000170a000d5
:102bf000240005000004be00e9ff07000003be003a
:102c00000405be000200be00e5ff0700844f75000a
:102c1000000006000200be006450e100050036001e
:102c20006420e100020036000968a30001003a00b8
:102c30000800be000160a0004f0678004f05be00ee
:102c40004f04be0000000600f0ff2f00f1ff270038
:102c5000f9ff3700811f78000100e00002003d000d
:102c600060001000e08018000300e00002003d005a
:102c700060011100e0811900610107004f00e000d0
:102c800002003b0060001000e08018000000060019
:102c9000889fbe008a9fbe008c1f7800d5ff07006a
:102ca000dcff330003866c006450e1002400320036
:102cb0006420e100270032006150e1002200320070
:102cc0006120e100210032008b854200eb07b1005a
:102cd0000134b800003ab8000804420089844a0070
:102ce000013ab8000030b8008880400009014a006d
:102cf00004003300000040008180480002014900c8
:102d00008b05e900c909dd00830170000100320074
:102d100013002000c814de004814dd004709de005f
:102d20001200b200c808de000884700076ff0700b9
:102d300001f0a1000cf0a70001f0a000beff3700d9
:102d40006120e100c0ff32000801be000200be00a9
:102d5000f7ff37006150e100fcff3a00baff37008f
:102d60000c00fa00889fbe008a9fbe008c9fbe00a8
:102d7000a0ff07000206be00840578000200be0026
:102d8000020020008a02070005003a008b02b3000f
:102d9000120020008602070001003a00f8856d004d
:102da0000c01be00c60007000800be009b003200f8
:102db0000b08a3009e003a000df0a7000be0a00056
:102dc00009f0a7000bf0a00009f0a1000801be0067
:102dd000bb0007000bf0a6009500320001003c008c
:102de0000bd0a0008acf7500b20033006000b8009d
:102df0006250e10099003900a1003e000b28a300b9
:102e0000a2003a000bf8a300060032000b58a30002
:102e1000a70032000801be00a90007000800be009c
:102e2000940032000800be00f20107000004be005a
:102e3000050578000bf0a7000b30a6000bf0a100f1
:102e40005b079800324f200053f323009a020700db
:102e500005003d000800be00120020009802070097
:102e60000004be000a05e9004a0798006150b90055
:102e7000f7fe0700008fbe000c01be0084ff0700b4
:102e8000b7fe0700300798000100e00002003d0097
:102e900060001000e0801800f2ff2700820f500051
:102ea000e08f580064003e000c00be00acfe07003e
:102eb00020079800f2072000820f5000e08f580092
:102ec00005003c0012f82f00f3ff2f00820f500086
:102ed000838f580009003d000a00e0000300320023
:102ee00001003c000201ea00020578006000b80021
:102ef000200798003a079800190037003e0090001c
:102f00006100b900d2fe0700809fbe000c00be0029
:102f10004109dd004811de007208b10024020700fb
:102f20000005be001e01be0059ff07004f01be0094
:102f3000dafd0700809fbe000c00be000a01be0043
:102f4000d6fd07001e01be0051ff07004f01be0065
:102f5000d3fd07008221270013f323004cff070055
:102f60000005be002e0090006100b900b8fe070009
:102f700001f0a2000c01be00c9fd07000006be0062
:102f80000800be00700207000c01be0040ff0700f1
:102f90000a01be00c2fd0700809fbe004a00070074
:102fa0002e0590000af0a7000a05ea000500370088
:102fb0000800be000801be0035ff07000004be0087
:102fc0000c00be000801be000a00a70030ff070089
:102fd0000006be000a05d100f5ff3a005e01900030
:102fe00002e0a600030037000001be003600070023
:102ff00008fe07000004be004f00be008a01070063
:103000000801be0022ff07003e0190002c020700cd
:10301000de0590000bf0a70001f0a2004f06be00f5
:103020004f05be004f04be000080fa0000000600fd
:1030300025000700f9ff3700270007006000b800ef
:103040000bd0a7000bc0a0000be0a7000bc0a20094
:103050000bc0a70001f82700f0ff37000df8a30010
:10306000020032001e000700190007000bf8a30041
:10307000eaff32000b30a70001f0a200e7ff3700a3
:103080000df8a300f9ff3a00f7ff37000801be0072
:103090000b000700e6ff320001003c000df0a2002b
:1030a0006000b8000df0a70009000700dbff370043
:1030b0000b000700f1ff2700f0ff2f00d7ff3700bc
:1030c00001000700fc01370001f8230000000500a3
:1030d00001f8270000000500200220000100370051
:1030e000100220004040880000000600889fbe00bb
:1030f0008a9fbe008c1f78000004be00a8fe070057
:103100000478a30026003a006120e1002500320087
:1031100009f8a30025003a006420e10021003200f4
:10312000f507b1000508a3000200320000004000ce
:10313000818048006044b800031020000200200095
:1031400000004000818048000805440089854c004b
:103150000a0541008b8549000a0550008b855800ff
:10316000030033000a00be0002047400838474006c
:103170008301d1000281d300830f7100f0ff3a0078
:103180008904d1000884d3006001490082017800dd
:10319000c1adde00fb07b0005bfe0700a6fe3700f6
:1031a0000960a0000800be00a3fe37001202200044
:1031b00042408800f0ff2f00f1ff27009efe3700fd
:1031c0006022b800060220000000d0008180d200fa
:1031d0000482d2008582d2000000a00002025200c8
:1031e00083825a00030031000202420083824a00b7
:1031f0000000a1000603e900f3ff3a00000006000a
:10320000efff07000400be0000000600889fbe001c
:103210008a9fbe003004be002005be0004044400a6
:1032200085844c0006054d0087854d000898be003a
:103230000a90be000440e10005c8e10006d0e100ac
:1032400007d8e10002003100680040001008e800e3
:103250004f05be004f04be0000000600889fbe0060
:103260008a9fbe008c1f7800000678003c04be00d8
:103270002c05be000400540085805c0006015d0042
:1032800087815d00009ebe00029ebe0010002000ef
:103290000440e10005c8e10006d0e10007d8e100e4
:1032a000010039000000eb001c0e10004f067800f2
:1032b0004f05be004f04be00000006001200fa00d9
:1032c000889fbe008a9fbe008c9fbe000205be0084
:1032d0000004be00e4b79f00f5b79f0086bf9f00c3
:1032e00097bf9f000000eb00d0b79f00c0b79f00c2
:1032f000b0b79f00a0b79f0090b79f00000678006e
:10330000fd032000dfb197004fb09700038141001b
:10331000bfb09700e08f510004003d002900070076
:103320007e805700b9ff0700030037002500070023
:103330007e805700c9ff0700dfb09700e08f500084
:103340000700350014002000050020006033b8009d
:1033500008047200898472000a0573008b8573006b
:103360000c06e8008d0f5600e6ff3400e08f500099
:1033700006003d006fb29700ffb297000fbb9700a9
:103380009fbb97007e805700a0ff07005fa89700b3
:10339000e00f500004003a001fb49700afb497004c
:1033a0003fb59700cfb597000800be000a01be00e8
:1033b0004f06be004f05be004f04be000080fa005d
:1033c00000000600cf01de0002817100b2b79f004d
:1033d0004f09de000000400000007100a0b79f0010
:1033e0000fb097004f01de00818040008100710026
:1033f00091b79f007faa9700cf20de000000400019
:103400000080700080b79f000800be000a01be0067
:103410004f18de000402420000027200f4af9f0069
:103420000804440089844c000a054d008b854d003a
:103430004fb29700dfb297006fb39700ffb39700ca
:1034400000000600881f780018002000881f780000
:103450009aff07008f87e9004f04780000000600fc
:10346000801feb0095ff07008f87e9000000060032
:10347000889fbe008a9fbe008c1f7800e00f50001e
:10348000e08f5800e00f5900e08f59000f003d0019
:103490006044b8006055b8000000540081805c00b2
:1034a00002015d0083815d001c0020000820e10016
:1034b00009a8e1000ab0e1000bb8e1000d003d00f1
:1034c000190007000006eb000a0037000006eb00b9
:1034d000e00f5200e08f5a00e00f5b00e08f5b00ce
:1034e00004003d006044b8006055b8000e000700bd
:1034f0001c002000d3ff0700e00f5600060032003a
:103500006022b8006033b8000000520081805a0089
:1035100002015b0083815b004f0678004f05be000f
:103520004f04be00000006000402540085825c00c7
:1035300006035d0087835d0000000600889fbe00d3
:103540008a9fbe008c1f7800e00f5000e08f58006b
:10355000e00f5900e08f59000d003d006044b800b5
:103560006055b8000000540081805c0002015d00dd
:1035700083815d001c0020000820e10009a8e10013
:103580000ab0e1000bb8e1000d003d000800370073
:103590000006eb00e00f5200e08f5a00e00f5b00e6
:1035a000e08f5b0006003d006044b8006055b80045
:1035b0000402540085825c0006035d0087835d0081
:1035c000a7ff0700e00f5600060032006022b80097
:1035d0006033b8000000520081805a0002015b0095
:1035e00083815b004f0678004f05be004f04be008c
:1035f000000006000003be0069fd07006220e10034
:10360000020032000600be0005000500e507b1001b
:10361000f107b20004f023008480700007f0a700d7
:1036200001f0a00024000500889fbe008a9fbe0014
:103630008c9fbe000004be0059fd07000800be00bc
:103640006420e10048003e0055003200722127004e
:10365000132b2400c0fc070047003c000800be00fc
:10366000c2ec2800e32c2c00930007004700350033
:103670000800be0001f0a100020020000338230072
:103680008d000700430035000800be00b2a32a00e9
:1036900083fb23007efd07000200200003f02300cf
:1036a00001f0a70003f0a000fdfb0700acfc070041
:1036b0000005be00e6fc070001f0a2000006be0007
:1036c0000200280013f3230071fd07000801be006b
:1036d000f3fb0700809fbe000c00be0032082800ec
:1036e000e3952b006afd07004f01be00ecfb0700cd
:1036f0000006be000001be0065fd0700809fbe0001
:103700004241250083b8230061fd0700020020002c
:1037100003e82300e2fb07000c01be005cfd07008c
:103720000006be004f00be00f2f92b00c3d42300f8
:1037300057fd07000200200003f02300d8fb07001c
:103740000c01be00d5fb07000001be000c00be004e
:1037500030fc07000200200003f02300d0fb07002c
:1037600061014500560007004f06be004f05be0030
:103770004f04be000000060001f8270000002000f2
:103780002202200042408800f7ff37006000b800a6
:10379000fbff370001f8230000002000f2ff370094
:1037a00009f8a300f0ff32006000b800eeff370018
:1037b000889fbe008a9fbe000003be00f8fc070081
:1037c0008505780082815200020020006220e1001d
:1037d00004003a00f307b100040035007718e10057
:1037e000040035000600be00140037006000b80079
:1037f0000f003700f50f2000faff2f008502d100df
:103800000a85d3008301e900fcff3b00818462004c
:1038100000046500890f7400f2ff32008582ea001f
:103820000a85ea008184620000046500b6fc070096
:1038300007f0a70001f0a0000081eb000200e0000b
:103840004f05be004f04be0000000600889fbe006a
:103850008a9fbe00841f7800e6fc07004f007800b6
:1038600011003300f0ff2f00838f6c0006003b0037
:10387000040565000a00a7000800370009f0a6004b
:103880001000200008003700820f5400838f5c0076
:10389000030039001000200001003e00000020005d
:1038a00009f0a7000000ea004f05be004f04be006b
:1038b0000000e0000000060014002000e3ff3700d5
:1038c0000003be00b6fc07006220e10002003200e7
:1038d0000600be000000060085024100e30f200044
:1038e0000328e10005003c00a3fe2f000328e100af
:1038f00007003d000500200001003700f50f200003
:1039000020022000404088006000b8000800370016
:10391000130020008381520005003d008100d1008a
:103920000080d3008301e800fcff3a00050020007e
:10393000c72add00f107b2008580700007f0a700fc
:1039400001f0a00000000600889fbe008a9fbe0014
:103950008c9fbe0027ff0700850478000005be008d
:103960006420e10049003e006220e10003003200d3
:10397000090035000bf8a300440032000bf8a30047
:10398000080032001002200040408800f0ff2f00a5
:10399000f1ff27003d00370001f82f000000200054
:1039a0003a0037003d0007003cfb07000006be0060
:1039b0000a00be00324f200053f32300e6fb07004d
:1039c000060034000c00be003400070033fb070083
:1039d0000006be000a00be00020037008904e900ac
:1039e0000c00be002d000700a9fc07002b000700fb
:1039f0002bfb07000001be000c00be0085fb07008a
:103a00000005be000001be00a1fc07000006be00cc
:103a1000a2f32300430d2c0021fb0700809fbe0072
:103a20000c00be00d2e32700d3f02b0098fc070067
:103a30004f01be0077fb07000006be000a01be0072
:103a400093fc07000a01be0015fb07000006be003c
:103a50006148b900fefb07000005be0032082800df
:103a6000e3952b008afc07000c01be000cfb07004d
:103a70000006be000a00be000200280013f3230067
:103a800083fc07000c01be0005fb07004f06be00cb
:103a90004f05be004f04be000000060003f02300e7
:103aa00002000500800078001104b1000300350019
:103ab0009101b10001003c000050a0000000060090
:103ac000800078001106b100030035009101b100bb
:103ad00001003c000050a10000000600e0e02100d1
:103ae0005b02070000000600881f7800c8c521009f
:103af0000040eb00984f100003003a00f7ff07006a
:103b000020c0b300004c78004f047800000006008d
:103b1000889fbe0000047800080078004b00070072
:103b200080047800000420001800600002003200c9
:103b300028009000910007000000eb00200498008e
:103b400038409000e04f5000050035000000fb00b9
:103b5000c6110700e00f5000010032008084eb0026
:103b600018109000e00f500008003200ca11070042
:103b7000e00f5000010032008084eb00181090002c
:103b80007e0007000000eb001014980000082000e1
:103b900018006000100032008000eb00424e21004f
:103ba00001804000e2017800888f510004003a0053
:103bb000414e2100008040000008eb000300370068
:103bc0008100e800e78f5000f5ff3600080078001c
:103bd0006a0007000e003700000c780000c0eb0000
:103be0003044980061022000888040002104980041
:103bf0004104980051049800410c98006104980019
:103c0000510c98007104980076004400000c980054
:103c1000090078004f04be0000000600889fbe0027
:103c200078002000494e2100080044006900780017
:103c3000e00f500001003200b5ff07000804e90062
:103c4000f9ff3b004f04be0000000600889fbe0045
:103c50008a1f780000047800e00f54000e003a003c
:103c6000880478004a4e2100098044006a007800e8
:103c7000e00f500004003200f4ff0700e00f500096
:103c800001003d000084eb008904e800e78f540048
:103c9000f5ff340028003700000022001800600003
:103ca00024003200a80490000f00370009015100e1
:103cb000384090000000fb008900780002f3070004
:103cc000e00f500007003c002800900040049800de
:103cd00060049800500c98001890a0000084eb003d
:103ce000150037008084440048019000828f540002
:103cf000eeff3900280090004004980098007800fa
:103d000002c020000281600001003a0038009000eb
:103d100002002400828060000300320060049800ea
:103d20000004eb0004003700500c980001047800f8
:103d30000100370000047800080078004f05780083
:103d40004f04be00000006000200fa00881f780041
:103d500000047800e1bf9f00c9010700000178005e
:103d600080c1eb00efb8970008007800e101070080
:103d70004f0478000080fa0000000600e00f5000b9
:103d80002f003200c0017800e38f51002c00360074
:103d9000e18061002a003a00b1e08000e08f50002d
:103da00002003200810f5000040031001100980021
:103db000b0e0880016003700820078001101900002
:103dc000e00f510002003200800f5100faff39006d
:103dd0001102780084824000850f500018003900dd
:103de000808f520003003a008308420001007800ef
:103df00007003700e00f510003003200830140004c
:103e0000830f51000e0039001200980090009800b6
:103e100090009000e08f5000090032001001400037
:103e2000828f500006003a0042c121000009eb00d9
:103e300010017800110841009100900011009800d5
:103e400000000600889fbe008a9fbe008c9fbe00b7
:103e50008e1f780081067800030478000d95b90064
:103e60000a077800e00f550043003200e08f56004b
:103e70004200320000067800c80090006800900000
:103e8000808f50000400390008007800fb01070013
:103e9000e00f50002600350000402000980560002b
:103ea0000a0032000a017800a10020000c0078000e
:103eb0009400070080057800e08f55000300320071
:103ec000e104160089844500010037008a04780067
:103ed00048009000e800900080805000898f5000da
:103ee00002003100810478008005eb0009017800b0
:103ef0008c0078008c0007000905550048009000f0
:103f00000900400040049800e08f55000400320092
:103f1000080078004dff0700e00f500004003a0051
:103f2000e00f55000200320009064600d2ff3700bc
:103f300000802000180060000200320008007800b5
:103f400042ff070000c0200018006000020032009d
:103f500048009000600498000a05570000017800ae
:103f6000811f7800110009000d85d8000001fd00b7
:103f7000cf007800010037000a01780002007800c5
:103f80004f0778004f06be004f05be004f04be002d
:103f900000000600889fbe0000047800a1e08000b9
:103fa000e08f500002003200010078000d00370061
:103fb000b1e0800060c1210004003700910f54007f
:103fc000240036000180e80091009000e08f50004e
:103fd000faff3a0010003700920f54001d0036001f
:103fe0000280e80010017800e00f5100faff3a006b
:103ff00011017800b1e0800060c1210004003700a9
:10400000910f5400130036000180e80091009000e9
:10401000828f5000faff3a00c9e08000888f540078
:10402000010031008804780009007800da010700f7
:10403000e00f500004003a00888f54000500320061
:104040008904d100f5ff3700091878004bff0700fd
:10405000d2ff37004f04be0000000600881f780022
:1040600080007800638440000800a1000000eb009d
:10407000810f540021003600e30f540001003e0080
:104080004800200008007800c2ff0700e00f500041
:104090001a0032009000780091017800648151008c
:1040a000880f5100030031001101900002087800d0
:1040b0000700370008814000020878009101900055
:1040c0001301980010017800110914008808780085
:1040d00010007800e00f5000060032001001900040
:1040e000e00f5100020032000080e80001003700bc
:1040f00002007800a0e088000180e8004f0478000a
:10410000000006000400370090cf100005003200c8
:104110000000e8000201e900e00f5100faff3a0058
:1041200002007800000006008001780002003700dd
:10413000b15978000201e900e00f5100fcff3a009c
:1041400000000600800178000200370081597800e5
:104150000201e900e00f5100fcff3a0000000600f8
:10416000414921006a07070000000600414921007b
:1041700090070700800078000080eb00e08f50007f
:104180000400350041492100a0002000600707001d
:104190004f80de00000006000098be000298be00be
:1041a0000498be000698be000898be000a98be009b
:1041b0000c98be000e18780064985700efb897006e
:1041c00001187800ffb8970001187800000005007a
:1041d0000100e00001003a00110020000108780011
:1041e0007c0040003007be00b01f7800a01f7800a0
:1041f000640050004006be004005be004004be0002
:104200004003be004002be004001be004000be00b0
:104210000000060003003700e04f510005003200a7
:104220000000e80010417800814f5100faff3a0089
:10423000000006000000050004003700e04f5100b8
:10424000090032000000e8008100e8001041780019
:10425000914f5100f9ff320010002000030031009f
:104260000080eb00000006000000eb0000000600ec
:1042700080007800010037008100e8000041eb0079
:10428000914f1100fcff3a00008050000000060032
:104290008001780003003700845978008100e8002d
:1042a0000201e900e00f51000600320011427800df
:1042b000e04f5200f8ff3a00020037008059eb004f
:1042c0000201e900e00f5100fcff3a000000060087
:1042d000e6874700889fbe008a1f78008e1f7800ff
:1042e0000005780001077800e00f570001003a0050
:1042f0006c8757008a047800010037008904e800c1
:10430000194478000800fb00b2bf9f00f8060700c0
:104310003fb99700e00f5000f8ff3a00d0c2b30059
:10432000804f54000300320000c0e900804f540069
:1043300002003a008904e8000100370000447800d8
:104340008e00780009007800ed0207009e8f54006f
:1043500001003a000a0f78009e0f550003003a0052
:10436000e00f5000e08f58000f003a00b2c2b300d7
:10437000824f540004003a00e00f5000e08f5800d4
:1043800015003d0008003700d2c2b300824f540030
:1043900011003a000200200003002800820f5000a4
:1043a000838f58000a003600200220004040880019
:1043b000f0ff2f00f1ff2700d2c2b300824f54005c
:1043c00005003a000000200001002800020037002c
:1043d00060001000e08018004f0778004f0578005b
:1043e0004f04be006f00b10000000600889fbe00b1
:1043f0000004be00e08f540009003200c14b2100d0
:10440000008e2100eb060700c14b21000900780057
:10441000e8060700c14b2100d08e2100e506070009
:10442000c14b210008007800e2060700c14b2100c3
:10443000208f2100df0607000000eb0003fe0700cd
:10444000100020002807070010002000be08070009
:10445000413a2300e08f500008003200e1e0800084
:10446000e08f5000050032008100e900e1e08800a3
:1044700081804000d2e0800000b17800000006009a
:10448000889fbe000004eb00414e210088044400d8
:1044900061807c00e00f50000a003a00800220009a
:1044a000eefe0700e00f500010003200414e2100e8
:1044b00080b07c00010820000108780028409800a6
:1044c0000a0037000001eb00900f110003003a00d2
:1044d000f1f72f0001087800040037000804e80015
:1044e000e70f5400e9ff36000000eb004f04be0068
:1044f00000000600889fbe008a9fbe008c9fbe0001
:104500008005780081047800020478000345780073
:10451000e00f5400540032000d0820009886660019
:1045200028469000820220008000eb0008007800fe
:1045300004ff070000c0eb00304498002c449800b2
:1045400064022000080242002404980044049800f9
:1045500054049800440c980064049800540c98008b
:104560007404980076004400000c9800194278000a
:104570001100200020c7b300804f52000900320014
:10458000a101200065404000804f5200050032002c
:104590008000eb0076405000804f520001003a004e
:1045a000610120008d807000010c7800638660003e
:1045b00011003a000800780055fd07000c0478004f
:1045c0002900370018007800800178000302b2004b
:1045d00010003a000050a000000c780008003700de
:1045e00018007800e3016000e38f510009003200f9
:1045f000630c70000200370022c6b300b1c2b300e2
:1046000059407800824f5000eeff3200814f500039
:10461000f3ff3200e08f55000b00320009017800f3
:10462000980078000b0078002308070030449800b9
:10463000e04f50000b003d000800780034fd0700fb
:104640000004eb0008003700e04f550004003d0077
:10465000080078002efd07000b04780002003700e8
:104660003a44980020fd0700080078004f06be007d
:104670004f05be004f04be0000000600889fbe002c
:104680008a1f780000047800c8009000680190003c
:104690000000eb00828f50003c00390018007800c9
:1046a0002200290002016000e20f510007003200e1
:1046b00001202400e00f500001003d0001202000f7
:1046c000008c70000080eb003000370002002600f4
:1046d00002006000820f500009003a00380090008c
:1046e000808f5000060039000800780057fd070051
:1046f000800078000080eb00e08f500023003a003b
:104700001805780000c020000000650018003a007d
:10471000a80490006002200008004000808f540030
:1047200013003a00002020004cfe070020049800ef
:10473000e00f500005003a00290498004904980051
:104740008904e80039049800080037000a60a000d6
:104750000a0c78004004980001202000808040006e
:1047600031049800400c9800500c9800defc0700c3
:1047700028009000500498003800900060049800d1
:1047800000002600180c70000000eb004f057800b8
:104790004f04be0000000600800078000000eb001f
:1047a000808f50000500340001007800c30e070020
:1047b000e10f400001003a000000eb00000006009d
:1047c0000e00fa00889fbe008a9fbe008c1f7800f2
:1047d000a0bf9f00010578000204be00800578009c
:1047e0008a0078006c8057003601070000027800cc
:1047f000680662000430a100e10f520013003a0085
:10480000f48157000a017800afb897000b007800d8
:1048100040000700e00f500002003a006000b800be
:10482000030037000fb897009fb8970088f807007b
:10483000c0b79f00d1b79f006fb19700ffb197003d
:10484000080141008981490016003700e20f52003b
:1048500018003a0014002000f48157000a01780083
:10486000afb897000b0078004a020700e00f500035
:1048700002003a006000b800030037000fb897004c
:104880009fb8970072f80700c0b79f00d1b79f008c
:104890006fb19700ffb1970078805700fa060700c4
:1048a0000801be004fb09700dfb097007d060700fb
:1048b0000c0037000000200001f82700e30f520031
:1048c000050032006000b800e40f520005003a0015
:1048d000f0ff2f00f1ff2700c0b79f00d1b79f0066
:1048e00002003700c0b79f00d1b79f004fb09700bc
:1048f000dfb09700e00f56000100320001f0a20087
:104900004f0678004f05be004f04be000080fa003d
:1049100000000600ea874700889fbe008a9fbe000d
:104920008c9fbe008e1f7800d0b79f0001047800d6
:10493000e2b79f00830578006922b9000407780078
:104940000006eb0001c3b300020037000804e800d2
:104950001c00200098cf1000fcff3200800deb00ff
:10496000bb1578008b0478000005eb0044c3b3004e
:1049700095002000280037008e0f550019003d00db
:10498000110009000505d8008000fd00e00f50006f
:1049900003003a00e4844400800ceb00b914780072
:1049a000184678000c06fb00cfe6de000c03b100d1
:1049b0000d80b100a2002000030020001900be00fd
:1049c00084bf9f00f5b79f00cc0f0700801c4600f6
:1049d00081944e000a05e8000fba9700ffb29700d5
:1049e0000b00370010002000010020009b0d40004c
:1049f000db9548008e0f550005003a00984f1200d5
:104a000003003400990c4000d99448000a05e800de
:104a10000804e8001c002000984078000100fb001a
:104a20000003b100e90f5000d3ff36008e0f550090
:104a3000010034000e057800e3c2b30083cf5000bc
:104a400001003a000804e800e00f55002b003a008e
:104a5000070037000081eb008081eb009b0d4100d7
:104a6000db9549000804e8001c0020000100370025
:104a700001c3b30098cf1000f6ff32001f003700cb
:104a80008e0f55001a003d00110009000405d800e2
:104a90008000fd00e00f500003003a00e484440071
:104aa000800ceb00b9147800184678000c06fb0067
:104ab000cfe6de000c03b1000d80b100a2002000a3
:104ac000030020001900be0084bf9f008b0f070069
:104ad000801c460081944e000a05e8000080eb002f
:104ae0008080eb009b0d4000db9548000fba9700db
:104af0000804e8001c00200001003700940020009a
:104b00001800fb000003b100e90f5000dcff360085
:104b10000c0778009d002000809fbe001100090056
:104b20000d05d800810678004f00be00e08f5600ca
:104b300017003200e98616001901be00e00f51008f
:104b4000e08f5900070032000d00e9004200dd004f
:104b500081992100008040001000be00670f07000f
:104b6000808cbe000a854600616ab9009b1d120058
:104b70009b951a0006003700690555009200200039
:104b8000030020009b0d4100db954900e4845400a4
:104b9000e80f5500040034001902be00e00f520077
:104ba000e08f5a00f4ff3200e00f5600340032006c
:104bb0009840780053c6b30083cf50000300320002
:104bc00053c4b30083cf50002c003a00d84478007f
:104bd000b1c2b30081cf540003003200d3c2b3008e
:104be00083cf540002003a000804e80001003700b7
:104bf000814478006000b8000007eb00fc0f2e0035
:104c00005d5f2000100037008c0f50008d8f580022
:104c10000b003c00a20020000300200084bf9f0086
:104c2000360f07000003b1000180b1000fba9700f2
:104c30000402fb00cfa2de000000420081804a0097
:104c40000804e8001e002000184278000401fb0060
:104c50000203b100e90f5100ebff3600d3c2b300ed
:104c600083cf540002003a0060001000e08018007a
:104c70009b0d4000db954800010037000c077800d1
:104c8000efb19700e08f510005003200e00f5700b0
:104c900001003a005fb497006fb0970008087800f1
:104ca00092002000110009000205d8004f0778008b
:104cb0004f06be004f05be004f04be00af00b1005e
:104cc00000000600889fbe008a9fbe008c9fbe0029
:104cd00080067800810578001d047800880478003b
:104ce000010037008904e800194578000a00fb003c
:104cf0007f04070080007800e08f5000f9ff3a0041
:104d0000d2c2b300824f550003003a008904e80084
:104d10008100200004003700b2c2b300824f55006a
:104d200001003a008904e80019417800e3c6b300a5
:104d3000834f510003003200e3c4b300834f51009e
:104d400025003a00d940780012c6b30082cf500047
:104d5000040032000000eb0012c4b30082cf500008
:104d60005b003a00d9407800e2c6b30082cf500021
:104d7000040032000000eb00e2c4b30082cf500018
:104d800053003a000904780081c2b300d8cf100064
:104d90000a003a0088047800fcc5b3005945780041
:104da0000a00fb0044040700e00f5000fbff3a003c
:104db0008c4f5500f9ff320001003700880478005d
:104dc0004000200091c2b30099cf100040003a008b
:104dd0000904e8003e00370093c6b300834f51003a
:104de0000300320093c4b300834f51003c003a00eb
:104df00059417800e3c6b300834f510004003200ec
:104e00000000eb00e3c4b300834f510030003a00d0
:104e10005941780063c6b300834f5100040032004b
:104e20000000eb0063c4b300834f510028003a0038
:104e300009047800010078003000b300d840780001
:104e400092c6b30082cf50000300320092c4b30078
:104e500082cf50001e003a0088007800514178004f
:104e6000e3c6b300834f510003003200e3c4b30034
:104e7000834f510016003a005141780093c6b300a9
:104e8000834f51000300320093c4b300834f51009d
:104e90000f003a005141780043c7b300834f5100df
:104ea0000300320043c5b300834f510008003a00ad
:104eb0005141780093c7b300834f51000300320083
:104ec00093c5b300834f510001003a000104e8008c
:104ed000e08f550005003200880d78000300370090
:104ee000010078000000a00009047800880e780016
:104ef0004f06be004f05be004f04be000000060076
:104f0000f2874700889fbe008a9fbe008c9fbe002c
:104f10008e1f7800d0b79f00f1b79f000203780082
:104f200000077800010037000e07e8001e447800f3
:104f30000800fb0086bf9f00ed0307000fbb970032
:104f4000e00f5000f8ff3a00c8ef9f00d3c2b30053
:104f5000834f54000400320083c1e9000840780008
:104f6000834f500002003a000e07e80001003700ae
:104f7000c3ef9f00e00f530005003500e10f530021
:104f80000300320043022000830f53000700340067
:104f90006044b800ffb09700e08f50007600320008
:104fa0005fb197008208780073003700e00f53006c
:104fb0000e003200f00f53001a003a0003c3b30092
:104fc0009ecf110017003a009e41900085c7b300a4
:104fd00085cf51000300320085c5b30085cf510055
:104fe00010003a000e87e8000e003700a6002000ef
:104ff00003c3b3009ecf11000a003a009e41900007
:1050000082c7b30082cf5100040032008600200026
:1050100085c5b30085cf510002003a000e87e80035
:105020000601200003c3b3000e0078000100370022
:105030000000e80090cf1100fdff320080067800ec
:10504000adb79f006044b80020662100a0e79f0034
:105050006135b9000e003700afe0970001465000ff
:105060000a01be000800be0086bf9f00230e070095
:105070000c02fb00cfa2de008d06e800b8b79f004f
:10508000c9b79f0004044000858448000fbb970007
:105090001d00fb0086bf9f0082fa07000fb9970032
:1050a000800078002066210016fc07000fbb9700e7
:1050b000e00f5000e8ff3a008d0f570007003a005c
:1050c0006044b800ffb19700e08f51002a00320021
:1050d0005fb097008009780027003700afb09700d5
:1050e000818156007068210060407b000000fb0059
:1050f000008051001600330010003a000c02fb0043
:10510000cfa2de000402540085825c00840f5400ac
:10511000858f5c00090039006131b9000400be00d0
:1051200027f807000001be003fb09700cfb09700fe
:10513000800f5100818f59000500320020022000ad
:10514000404088000084eb008084eb0006003700bc
:10515000d0c2b300cfe8970080cf500002003a00e1
:1051600060041400e0841c007fb19700e00f510040
:10517000010032000d0978000800be004f077800da
:105180004f06be004f05be004f04be002f01b10008
:1051900000000600ea874700889fbe008a9fbe0085
:1051a0008c9fbe008e1f7800d0b79f00010478004e
:1051b000e2b79f00030578006722b90084067800f3
:1051c0000006eb0001c3b300020037000804e8004a
:1051d0001c00200098cf1000fcff3200000deb00f7
:1051e0003a1578008a0478008005eb006388210076
:1051f0002b0037008d8f550017003d0074002000f4
:10520000801f7800110009008405d8004f00780045
:10521000e08f500003003a00e4844400800ceb006f
:10522000b91478001902be00442bdd00cc23de0047
:10523000870373004423dd00c58921000500500069
:10524000634278000402fb00cfa2de00841c43000e
:1052500085944b000f00370014002000050020004b
:105260001a0d42005a954a008d8f55000a003a00e7
:10527000c589210005005000e3407800e7cf5000c9
:10528000050034001000200001002000990c4000af
:10529000d99448008b05e8000804e8001c002000b1
:1052a000184778008e00fb0062012000c0892100b1
:1052b000f3b79f0093fb0700ffb19700e00f50008a
:1052c000ccff3a008d8f5500010034008d05780029
:1052d000e1c2b300814f570001003a000804e80022
:1052e000e08f55002b003a00070037000081eb00eb
:1052f0008081eb001a0d41005a9549000804e8002e
:105300001c0020000100370001c3b30098cf10003b
:10531000f6ff32001f0037008d8f55001a003d0048
:10532000801f7800110009008305d8004f00780025
:10533000e08f500003003a00e4844400800ceb004e
:10534000b91478001902be00442bdd00cc23de0026
:10535000870373004423dd00c4892100040050004a
:105360006e4278000402fb00cfa2de00841c4300e2
:1053700085944b008b05e8000080eb008080eb00fb
:105380001a0d40005a9548000804e8001c0020004f
:1053900002003700730020006e8821009800fb0097
:1053a00062012000c0892100f3b79f0055fb070070
:1053b000ffb19700e00f5000d7ff3a008c01780052
:1053c00074002000801f7800110009008405d800b7
:1053d0004f007800e08f500014003200e78010008a
:1053e0004208dd001902be000000e900030033009e
:1053f0000402420085824a00fbff3700848cbe0015
:105400008b854000610ab9001a1d12001a951a0016
:1054100006003700e78555007400200005002000d5
:105420001a0d42005a954a00e4845400e68f550054
:10543000040034001902be00e00f5200e08f5a0051
:10544000f4ff32001a03be00423add00ce32de0025
:10545000850272004232dd00048dbe00e00f56006e
:10546000360032009840780003c7b30083cf500065
:105470000300320003c5b30083cf50002e003a0072
:10548000d8447800b1c2b30081cf54000300320089
:10549000d3c2b30083cf540002003a000804e800ee
:1054a00001003700814478006000b8008001eb0003
:1054b000fc0f2e005d5f2000120037008c0f5000a3
:1054c0008d8f58000d003c00a2002000030020003a
:1054d000f4b79f0085bf9f00080d07000003b100cf
:1054e0000180b1000e03fb00cfb3de0000004300db
:1054f00081804b008fba97007fb297000804e800c4
:1055000013002000184778000e01fb000203b100d1
:10551000e90f5100e9ff3600d6c2b30086cf540030
:1055200002003a0060001000e0801800041d4000f6
:1055300005954800010037008c017800efb2970014
:10554000e08f520005003200e08f510001003a0068
:105550005fb497006fb097000808780072002000d1
:10556000110009008205d8004f0778004f06be00e1
:105570004f05be004f04be00af00b10000000600a2
:10558000889fbe0000047800180090008204780014
:10559000808f5400010036008004780018007800e5
:1055a00009017800e0fa0700188c44001800900008
:1055b0008904500019049800080078004f04be00c8
:1055c000000006000400fa00e08f500003003a00db
:1055d0000f80e900e0bf9f0002003700e0bf9f009e
:1055e0008100e900f1bf9f00e480570000ac220079
:1055f00004000700efb897008048eb000080fa0035
:10560000000006004f06b000889fbe008a9fbe00c3
:105610008c9fbe008e1f7800800578000105780001
:10562000820478008300780000f92f000f0040000a
:105630003804070028f92f000f0444004b04980099
:105640005a0498000000eb00600c9800aeae2100f8
:10565000edad2100fcff2700194078008085fb009c
:105660000b05fb008b05ea00cf5dde005002200039
:10567000800f55000d003200e18f55000b003a00fd
:10568000c80190000b017800890078005800900054
:105690000300010050049800e00f50008b0032001e
:1056a000680890000000e800600c98008b844400bb
:1056b00050022000800f550004003200e00f55001a
:1056c000e5ff3a007f909700810037000000eb0073
:1056d000400c9800300c9800200c9800100c98009a
:1056e000000c980070049800001498000700370020
:1056f0000e005000000040006d00780088109000ff
:1057000001007000001498008904e8001945780031
:105710008a00fb00a0ae2100befa0700e00f500097
:10572000f3ff3a00a1c2b300814f55000e003a00ca
:105730008f8897000180e900808f9f00100078001b
:10574000700c9800e00f500005003d000000ea00da
:10575000700c9800081090000020a0000014980021
:105760008904e8000f003700700c9800080037002b
:10577000780890008c0f5000040032006a00b900d5
:105780000003b10002004000700c98008904e8009a
:105790001901fb0000fd2f0002004000e90f50003e
:1057a000f3ff3600e0c2b300994f1000030032004f
:1057b0000080eb00500c98001a003700a0c2b30024
:1057c000d94f100007003a008f8897000180e90048
:1057d000808f9f0010007800500c98008904e8002a
:1057e000100037000000eb00500c98000800370054
:1057f000580890008c0f5000040032006a00b90075
:105800000003b10002004000500c98008904e80039
:105810001901fb0000fd2f0002004000e90f5000bd
:10582000f3ff3600194578008a00fb0040bd2100d7
:1058300078fa0700e00f5000020032008904e80007
:1058400001003700004578002a64980080c6b30044
:10585000804f550004003a00994f15000a003a00a5
:105860006640500006003700c0c6b300804f5500a8
:1058700005003a00994f150003003a0065404000ca
:10588000206498008904e80063fb2f008f814100a9
:105890001941780001f92f008f804000080078003e
:1058a00011000700e00f500008003a0061fb2f00d4
:1058b0008f8040000800780096070700e00f500036
:1058c000020035008904e80063ff37000080eb0028
:1058d0004f0778004f06be004f05be004f04be00c4
:1058e0004f06b10000000600889fbe008a1f7800a6
:1058f00000047800824478000305780070c6b30085
:1059000080cf540021003c0000c0e90080cf54004b
:10591000d7003d007240500080cf54004301320058
:105920000d003c006c40500080cf540056013c00fc
:1059300000c0e90080cf5400cd003d0050c2b3004c
:1059400080cf54004d0132007c40400080cf540095
:105950004d013a00c600370010c6b30080cf540096
:10596000c300320004003c006940500080cf540066
:1059700045013a006c00370030c6b30080cf5400b8
:10598000180032000040e8000900370000c7b300eb
:1059900080cf54001601320008003c0000c0e9002e
:1059a00080cf5400db0032005f003c0065405000b7
:1059b00080cf540034013a000f00370050c7b300c5
:1059c00080cf5400580032006340400080cf540024
:1059d000550032006540500080cf54002a013a0043
:1059e000120137001181e9008208780078009000e8
:1059f000127578002a01370028609000c2c6b300f3
:105a0000824f500009003a001100780064025000f3
:105a1000840878001400be00140290004fa2de003b
:105a200004017800840178001200370012c7b30027
:105a3000824f500003003200a2c6b300824f5000d4
:105a400006003a00110178006800510080087800d3
:105a50005001be004000be00060037001180e90082
:105a60008008780010007800cf80de000101780007
:105a700082017800009cbe000294be002862900063
:105a800085c6b300854f52000e00320025c6b30014
:105a9000854f520005003a000000fb00cf80de0079
:105aa00001017800820178000900370045c7b30082
:105ab000854f520003003200e6c24200854f52007b
:105ac00005003a00cf80de000101780082017800f5
